{
  "transactions": [
    {
      "hash": "0xdd5c489f23723dbe28afb6c86b76361727c06de11a46898d4f29bded2ba83439",
      "transactionType": "CALL",
      "contractName": null,
      "contractAddress": "0x609ee565f00953ac734db9379b851f775701f4e0",
      "function": "createComposableSPG((string,string,string,string,uint32,uint256,address,address,address,bool,bool))",
      "arguments": [
        "(MyComposableSPG, MCSPG, https://example.com/metadata/, https://example.com/contract-metadata, 100000, 0, 0x0000000000000000000000000000000000000000, 0x0000000000000000000000000000000000000000, 0x369Abe773328A9Aa2bb48B0D6F7D4bca58959EAb, true, true)"
      ],
      "transaction": {
        "from": "0x369abe773328a9aa2bb48b0d6f7d4bca58959eab",
        "to": "0x609ee565f00953ac734db9379b851f775701f4e0",
        "gas": "0xee463",
        "value": "0x0",
        "input": "0xb934751b0000000000000000000000000000000000000000000000000000000000000020000000000000000000000000000000000000000000000000000000000000016000000000000000000000000000000000000000000000000000000000000001a000000000000000000000000000000000000000000000000000000000000001e0000000000000000000000000000000000000000000000000000000000000022000000000000000000000000000000000000000000000000000000000000186a0000000000000000000000000000000000000000000000000000000000000000000000000000000000000000000000000000000000000000000000000000000000000000000000000000000000000000000000000000000000000000000000000000000000000000000000000369abe773328a9aa2bb48b0d6f7d4bca58959eab00000000000000000000000000000000000000000000000000000000000000010000000000000000000000000000000000000000000000000000000000000001000000000000000000000000000000000000000000000000000000000000000f4d79436f6d706f7361626c65535047000000000000000000000000000000000000000000000000000000000000000000000000000000000000000000000000054d43535047000000000000000000000000000000000000000000000000000000000000000000000000000000000000000000000000000000000000000000001d68747470733a2f2f6578616d706c652e636f6d2f6d657461646174612f000000000000000000000000000000000000000000000000000000000000000000002568747470733a2f2f6578616d706c652e636f6d2f636f6e74726163742d6d65746164617461000000000000000000000000000000000000000000000000000000",
        "nonce": "0x25",
        "chainId": "0x5ec"
      },
      "additionalContracts": [],
      "isFixedGasLimit": false
    }
  ],
  "receipts": [
    {
      "status": "0x1",
      "cumulativeGasUsed": "0x45885e",
      "logs": [
        {
          "address": "0x4e31389d0b02d6fefe030255f47880b391bf2ff3",
          "topics": [
            "0x1cf3b03a6cf19fa2baba4df148e9dcabedea7f8a5c07840e207e5c089be95d3e",
            "0x000000000000000000000000230c64c1c5b8868f08dca6e7cbc1a7671f95b34e"
          ],
          "data": "0x",
          "blockHash": "0x28c0cb3bf832a5e3d173a09e6dcbd700e1e6288b1598002915c0019862835285",
          "blockNumber": "0x6d2bb",
          "transactionHash": "0xdd5c489f23723dbe28afb6c86b76361727c06de11a46898d4f29bded2ba83439",
          "transactionIndex": "0x2c",
          "logIndex": "0x60",
          "removed": false
        },
        {
          "address": "0x4e31389d0b02d6fefe030255f47880b391bf2ff3",
          "topics": [
            "0x2f8788117e7eff1d82e926ec794901d17c78024a50270940304540a733656f0d",
            "0x0000000000000000000000000000000000000000000000000000000000000000",
            "0x000000000000000000000000369abe773328a9aa2bb48b0d6f7d4bca58959eab",
            "0x000000000000000000000000609ee565f00953ac734db9379b851f775701f4e0"
          ],
          "data": "0x",
          "blockHash": "0x28c0cb3bf832a5e3d173a09e6dcbd700e1e6288b1598002915c0019862835285",
          "blockNumber": "0x6d2bb",
          "transactionHash": "0xdd5c489f23723dbe28afb6c86b76361727c06de11a46898d4f29bded2ba83439",
          "transactionIndex": "0x2c",
          "logIndex": "0x61",
          "removed": false
        },
        {
          "address": "0x4e31389d0b02d6fefe030255f47880b391bf2ff3",
          "topics": [
            "0x2f8788117e7eff1d82e926ec794901d17c78024a50270940304540a733656f0d",
            "0x0000000000000000000000000000000000000000000000000000000000000001",
            "0x000000000000000000000000369abe773328a9aa2bb48b0d6f7d4bca58959eab",
            "0x000000000000000000000000609ee565f00953ac734db9379b851f775701f4e0"
          ],
          "data": "0x",
          "blockHash": "0x28c0cb3bf832a5e3d173a09e6dcbd700e1e6288b1598002915c0019862835285",
          "blockNumber": "0x6d2bb",
          "transactionHash": "0xdd5c489f23723dbe28afb6c86b76361727c06de11a46898d4f29bded2ba83439",
          "transactionIndex": "0x2c",
          "logIndex": "0x62",
          "removed": false
        },
        {
          "address": "0x4e31389d0b02d6fefe030255f47880b391bf2ff3",
          "topics": [
            "0x2f8788117e7eff1d82e926ec794901d17c78024a50270940304540a733656f0d",
            "0x0000000000000000000000000000000000000000000000000000000000000000",
            "0x000000000000000000000000a8815ceb96857ffb8f5f8ce920b1ae6d70254c7b",
            "0x000000000000000000000000609ee565f00953ac734db9379b851f775701f4e0"
          ],
          "data": "0x",
          "blockHash": "0x28c0cb3bf832a5e3d173a09e6dcbd700e1e6288b1598002915c0019862835285",
          "blockNumber": "0x6d2bb",
          "transactionHash": "0xdd5c489f23723dbe28afb6c86b76361727c06de11a46898d4f29bded2ba83439",
          "transactionIndex": "0x2c",
          "logIndex": "0x63",
          "removed": false
        },
        {
          "address": "0x4e31389d0b02d6fefe030255f47880b391bf2ff3",
          "topics": [
            "0x2f8788117e7eff1d82e926ec794901d17c78024a50270940304540a733656f0d",
            "0x0000000000000000000000000000000000000000000000000000000000000001",
            "0x000000000000000000000000a8815ceb96857ffb8f5f8ce920b1ae6d70254c7b",
            "0x000000000000000000000000609ee565f00953ac734db9379b851f775701f4e0"
          ],
          "data": "0x",
          "blockHash": "0x28c0cb3bf832a5e3d173a09e6dcbd700e1e6288b1598002915c0019862835285",
          "blockNumber": "0x6d2bb",
          "transactionHash": "0xdd5c489f23723dbe28afb6c86b76361727c06de11a46898d4f29bded2ba83439",
          "transactionIndex": "0x2c",
          "logIndex": "0x64",
          "removed": false
        },
        {
          "address": "0x4e31389d0b02d6fefe030255f47880b391bf2ff3",
          "topics": [
            "0x2f8788117e7eff1d82e926ec794901d17c78024a50270940304540a733656f0d",
            "0x0000000000000000000000000000000000000000000000000000000000000000",
            "0x000000000000000000000000cd754994ebe5ce16d432c1f936f98ac0d4aaba0e",
            "0x000000000000000000000000609ee565f00953ac734db9379b851f775701f4e0"
          ],
          "data": "0x",
          "blockHash": "0x28c0cb3bf832a5e3d173a09e6dcbd700e1e6288b1598002915c0019862835285",
          "blockNumber": "0x6d2bb",
          "transactionHash": "0xdd5c489f23723dbe28afb6c86b76361727c06de11a46898d4f29bded2ba83439",
          "transactionIndex": "0x2c",
          "logIndex": "0x65",
          "removed": false
        },
        {
          "address": "0x4e31389d0b02d6fefe030255f47880b391bf2ff3",
          "topics": [
            "0x2f8788117e7eff1d82e926ec794901d17c78024a50270940304540a733656f0d",
            "0x0000000000000000000000000000000000000000000000000000000000000001",
            "0x000000000000000000000000cd754994ebe5ce16d432c1f936f98ac0d4aaba0e",
            "0x000000000000000000000000609ee565f00953ac734db9379b851f775701f4e0"
          ],
          "data": "0x",
          "blockHash": "0x28c0cb3bf832a5e3d173a09e6dcbd700e1e6288b1598002915c0019862835285",
          "blockNumber": "0x6d2bb",
          "transactionHash": "0xdd5c489f23723dbe28afb6c86b76361727c06de11a46898d4f29bded2ba83439",
          "transactionIndex": "0x2c",
          "logIndex": "0x66",
          "removed": false
        },
        {
          "address": "0x4e31389d0b02d6fefe030255f47880b391bf2ff3",
          "topics": [
            "0x2f8788117e7eff1d82e926ec794901d17c78024a50270940304540a733656f0d",
            "0x0000000000000000000000000000000000000000000000000000000000000000",
            "0x00000000000000000000000044bad1e4035a44eac1606b222873e4a85e8b7d9c",
            "0x000000000000000000000000609ee565f00953ac734db9379b851f775701f4e0"
          ],
          "data": "0x",
          "blockHash": "0x28c0cb3bf832a5e3d173a09e6dcbd700e1e6288b1598002915c0019862835285",
          "blockNumber": "0x6d2bb",
          "transactionHash": "0xdd5c489f23723dbe28afb6c86b76361727c06de11a46898d4f29bded2ba83439",
          "transactionIndex": "0x2c",
          "logIndex": "0x67",
          "removed": false
        },
        {
          "address": "0x4e31389d0b02d6fefe030255f47880b391bf2ff3",
          "topics": [
            "0x2f8788117e7eff1d82e926ec794901d17c78024a50270940304540a733656f0d",
            "0x0000000000000000000000000000000000000000000000000000000000000001",
            "0x00000000000000000000000044bad1e4035a44eac1606b222873e4a85e8b7d9c",
            "0x000000000000000000000000609ee565f00953ac734db9379b851f775701f4e0"
          ],
          "data": "0x",
          "blockHash": "0x28c0cb3bf832a5e3d173a09e6dcbd700e1e6288b1598002915c0019862835285",
          "blockNumber": "0x6d2bb",
          "transactionHash": "0xdd5c489f23723dbe28afb6c86b76361727c06de11a46898d4f29bded2ba83439",
          "transactionIndex": "0x2c",
          "logIndex": "0x68",
          "removed": false
        },
        {
          "address": "0x4e31389d0b02d6fefe030255f47880b391bf2ff3",
          "topics": [
            "0x2f8788117e7eff1d82e926ec794901d17c78024a50270940304540a733656f0d",
            "0x0000000000000000000000000000000000000000000000000000000000000000",
            "0x000000000000000000000000de13be395e1cd753471447cf6a656979ef87881c",
            "0x000000000000000000000000609ee565f00953ac734db9379b851f775701f4e0"
          ],
          "data": "0x",
          "blockHash": "0x28c0cb3bf832a5e3d173a09e6dcbd700e1e6288b1598002915c0019862835285",
          "blockNumber": "0x6d2bb",
          "transactionHash": "0xdd5c489f23723dbe28afb6c86b76361727c06de11a46898d4f29bded2ba83439",
          "transactionIndex": "0x2c",
          "logIndex": "0x69",
          "removed": false
        },
        {
          "address": "0x4e31389d0b02d6fefe030255f47880b391bf2ff3",
          "topics": [
            "0x2f8788117e7eff1d82e926ec794901d17c78024a50270940304540a733656f0d",
            "0x0000000000000000000000000000000000000000000000000000000000000001",
            "0x000000000000000000000000de13be395e1cd753471447cf6a656979ef87881c",
            "0x000000000000000000000000609ee565f00953ac734db9379b851f775701f4e0"
          ],
          "data": "0x",
          "blockHash": "0x28c0cb3bf832a5e3d173a09e6dcbd700e1e6288b1598002915c0019862835285",
          "blockNumber": "0x6d2bb",
          "transactionHash": "0xdd5c489f23723dbe28afb6c86b76361727c06de11a46898d4f29bded2ba83439",
          "transactionIndex": "0x2c",
          "logIndex": "0x6a",
          "removed": false
        },
        {
          "address": "0x4e31389d0b02d6fefe030255f47880b391bf2ff3",
          "topics": [
            "0xc7f505b2f371ae2175ee4913f4499e1f2633a7b5936321eed1cdaeb6115181d2"
          ],
          "data": "0x0000000000000000000000000000000000000000000000000000000000000001",
          "blockHash": "0x28c0cb3bf832a5e3d173a09e6dcbd700e1e6288b1598002915c0019862835285",
          "blockNumber": "0x6d2bb",
          "transactionHash": "0xdd5c489f23723dbe28afb6c86b76361727c06de11a46898d4f29bded2ba83439",
          "transactionIndex": "0x2c",
          "logIndex": "0x6b",
          "removed": false
        },
        {
          "address": "0x609ee565f00953ac734db9379b851f775701f4e0",
          "topics": [
            "0x68c2aee2986f58d77e87c1faf99e7dfd6cdc0998ea3c6278d3d8013291a7cdfa",
            "0x0000000000000000000000004e31389d0b02d6fefe030255f47880b391bf2ff3"
          ],
          "data": "0x000000000000000000000000000000000000000000000000000000000000006000000000000000000000000000000000000000000000000000000000000000a000000000000000000000000000000000000000000000000000000000000000e0000000000000000000000000000000000000000000000000000000000000000f4d79436f6d706f7361626c65535047000000000000000000000000000000000000000000000000000000000000000000000000000000000000000000000000054d43535047000000000000000000000000000000000000000000000000000000000000000000000000000000000000000000000000000000000000000000002568747470733a2f2f6578616d706c652e636f6d2f636f6e74726163742d6d65746164617461000000000000000000000000000000000000000000000000000000",
          "blockHash": "0x28c0cb3bf832a5e3d173a09e6dcbd700e1e6288b1598002915c0019862835285",
          "blockNumber": "0x6d2bb",
          "transactionHash": "0xdd5c489f23723dbe28afb6c86b76361727c06de11a46898d4f29bded2ba83439",
          "transactionIndex": "0x2c",
          "logIndex": "0x6c",
          "removed": false
        }
      ],
      "logsBloom": "0x01000004000000000000000000000000000100000000000000200010000000000000000000000004000400000080000000000000000000000000000000040040000000000000000000001000005402000000000000040000000000000004000000000000020000000000000000000800004000000000000000004000000002000000000000000000000800000000080000000080000084000000000000000040000000000000000000800000000000200000400000000000201000000000800000000000000000008000000000001000000000000004202300800002000060010010000000000000000000000000000000000000000000000000010000000000",
      "type": "0x2",
      "transactionHash": "0xdd5c489f23723dbe28afb6c86b76361727c06de11a46898d4f29bded2ba83439",
      "transactionIndex": "0x2c",
      "blockHash": "0x28c0cb3bf832a5e3d173a09e6dcbd700e1e6288b1598002915c0019862835285",
      "blockNumber": "0x6d2bb",
      "gasUsed": "0xa2f53",
      "effectiveGasPrice": "0x4d7c6caf",
      "from": "0x369abe773328a9aa2bb48b0d6f7d4bca58959eab",
      "to": "0x609ee565f00953ac734db9379b851f775701f4e0",
      "contractAddress": null
    }
  ],
  "libraries": [],
  "pending": [],
  "returns": {},
  "timestamp": 1731225303,
  "chain": 1516,
  "commit": "906839e"
}