{
  "transactions": [
    {
      "hash": "0xa2995e5caafa66d206d4a7d0f8b2e735ee9aaf1b8abd9ece502ebad1ce191680",
      "transactionType": "CALL",
      "contractName": null,
      "contractAddress": "0x5d7b01702f0fb3757327c8c57a347f85333394d4",
      "function": "createComposableSPG((string,string,string,string,uint32,uint256,address,address,address,bool,bool))",
      "arguments": [
        "(MyComposableSPG, MCSPG, https://example.com/metadata/, https://example.com/contract-metadata, 100000, 0, 0xC0F6E387aC0B324Ec18EAcf22EE7271207dCE3d5, 0x369Abe773328A9Aa2bb48B0D6F7D4bca58959EAb, 0x369Abe773328A9Aa2bb48B0D6F7D4bca58959EAb, true, true)"
      ],
      "transaction": {
        "from": "0x369abe773328a9aa2bb48b0d6f7d4bca58959eab",
        "to": "0x5d7b01702f0fb3757327c8c57a347f85333394d4",
        "gas": "0xe7e8b",
        "value": "0x0",
        "input": "0xb934751b0000000000000000000000000000000000000000000000000000000000000020000000000000000000000000000000000000000000000000000000000000016000000000000000000000000000000000000000000000000000000000000001a000000000000000000000000000000000000000000000000000000000000001e0000000000000000000000000000000000000000000000000000000000000022000000000000000000000000000000000000000000000000000000000000186a00000000000000000000000000000000000000000000000000000000000000000000000000000000000000000c0f6e387ac0b324ec18eacf22ee7271207dce3d5000000000000000000000000369abe773328a9aa2bb48b0d6f7d4bca58959eab000000000000000000000000369abe773328a9aa2bb48b0d6f7d4bca58959eab00000000000000000000000000000000000000000000000000000000000000010000000000000000000000000000000000000000000000000000000000000001000000000000000000000000000000000000000000000000000000000000000f4d79436f6d706f7361626c65535047000000000000000000000000000000000000000000000000000000000000000000000000000000000000000000000000054d43535047000000000000000000000000000000000000000000000000000000000000000000000000000000000000000000000000000000000000000000001d68747470733a2f2f6578616d706c652e636f6d2f6d657461646174612f000000000000000000000000000000000000000000000000000000000000000000002568747470733a2f2f6578616d706c652e636f6d2f636f6e74726163742d6d65746164617461000000000000000000000000000000000000000000000000000000",
        "nonce": "0x1b",
        "chainId": "0x5ec"
      },
      "additionalContracts": [],
      "isFixedGasLimit": false
    }
  ],
  "receipts": [
    {
      "status": "0x1",
      "cumulativeGasUsed": "0x3599cd",
      "logs": [
        {
          "address": "0x706e74e28549ac5df33d55f624dea5e7413beeef",
          "topics": [
            "0x1cf3b03a6cf19fa2baba4df148e9dcabedea7f8a5c07840e207e5c089be95d3e",
            "0x0000000000000000000000009c4d3b9163812951f29ef3fb7245ab860e49926c"
          ],
          "data": "0x",
          "blockHash": "0x9d705bdca3ecbaefb0ac3dc68a3f6b3c4ecc70eafe3665d801fce769ff81a9c4",
          "blockNumber": "0x68c16",
          "transactionHash": "0xa2995e5caafa66d206d4a7d0f8b2e735ee9aaf1b8abd9ece502ebad1ce191680",
          "transactionIndex": "0xe",
          "logIndex": "0x3a",
          "removed": false
        },
        {
          "address": "0x706e74e28549ac5df33d55f624dea5e7413beeef",
          "topics": [
            "0x2f8788117e7eff1d82e926ec794901d17c78024a50270940304540a733656f0d",
            "0x0000000000000000000000000000000000000000000000000000000000000000",
            "0x000000000000000000000000369abe773328a9aa2bb48b0d6f7d4bca58959eab",
            "0x0000000000000000000000005d7b01702f0fb3757327c8c57a347f85333394d4"
          ],
          "data": "0x",
          "blockHash": "0x9d705bdca3ecbaefb0ac3dc68a3f6b3c4ecc70eafe3665d801fce769ff81a9c4",
          "blockNumber": "0x68c16",
          "transactionHash": "0xa2995e5caafa66d206d4a7d0f8b2e735ee9aaf1b8abd9ece502ebad1ce191680",
          "transactionIndex": "0xe",
          "logIndex": "0x3b",
          "removed": false
        },
        {
          "address": "0x706e74e28549ac5df33d55f624dea5e7413beeef",
          "topics": [
            "0x2f8788117e7eff1d82e926ec794901d17c78024a50270940304540a733656f0d",
            "0x0000000000000000000000000000000000000000000000000000000000000001",
            "0x000000000000000000000000369abe773328a9aa2bb48b0d6f7d4bca58959eab",
            "0x0000000000000000000000005d7b01702f0fb3757327c8c57a347f85333394d4"
          ],
          "data": "0x",
          "blockHash": "0x9d705bdca3ecbaefb0ac3dc68a3f6b3c4ecc70eafe3665d801fce769ff81a9c4",
          "blockNumber": "0x68c16",
          "transactionHash": "0xa2995e5caafa66d206d4a7d0f8b2e735ee9aaf1b8abd9ece502ebad1ce191680",
          "transactionIndex": "0xe",
          "logIndex": "0x3c",
          "removed": false
        },
        {
          "address": "0x706e74e28549ac5df33d55f624dea5e7413beeef",
          "topics": [
            "0x2f8788117e7eff1d82e926ec794901d17c78024a50270940304540a733656f0d",
            "0x0000000000000000000000000000000000000000000000000000000000000000",
            "0x000000000000000000000000a8815ceb96857ffb8f5f8ce920b1ae6d70254c7b",
            "0x0000000000000000000000005d7b01702f0fb3757327c8c57a347f85333394d4"
          ],
          "data": "0x",
          "blockHash": "0x9d705bdca3ecbaefb0ac3dc68a3f6b3c4ecc70eafe3665d801fce769ff81a9c4",
          "blockNumber": "0x68c16",
          "transactionHash": "0xa2995e5caafa66d206d4a7d0f8b2e735ee9aaf1b8abd9ece502ebad1ce191680",
          "transactionIndex": "0xe",
          "logIndex": "0x3d",
          "removed": false
        },
        {
          "address": "0x706e74e28549ac5df33d55f624dea5e7413beeef",
          "topics": [
            "0x2f8788117e7eff1d82e926ec794901d17c78024a50270940304540a733656f0d",
            "0x0000000000000000000000000000000000000000000000000000000000000001",
            "0x000000000000000000000000a8815ceb96857ffb8f5f8ce920b1ae6d70254c7b",
            "0x0000000000000000000000005d7b01702f0fb3757327c8c57a347f85333394d4"
          ],
          "data": "0x",
          "blockHash": "0x9d705bdca3ecbaefb0ac3dc68a3f6b3c4ecc70eafe3665d801fce769ff81a9c4",
          "blockNumber": "0x68c16",
          "transactionHash": "0xa2995e5caafa66d206d4a7d0f8b2e735ee9aaf1b8abd9ece502ebad1ce191680",
          "transactionIndex": "0xe",
          "logIndex": "0x3e",
          "removed": false
        },
        {
          "address": "0x706e74e28549ac5df33d55f624dea5e7413beeef",
          "topics": [
            "0x2f8788117e7eff1d82e926ec794901d17c78024a50270940304540a733656f0d",
            "0x0000000000000000000000000000000000000000000000000000000000000000",
            "0x000000000000000000000000cd754994ebe5ce16d432c1f936f98ac0d4aaba0e",
            "0x0000000000000000000000005d7b01702f0fb3757327c8c57a347f85333394d4"
          ],
          "data": "0x",
          "blockHash": "0x9d705bdca3ecbaefb0ac3dc68a3f6b3c4ecc70eafe3665d801fce769ff81a9c4",
          "blockNumber": "0x68c16",
          "transactionHash": "0xa2995e5caafa66d206d4a7d0f8b2e735ee9aaf1b8abd9ece502ebad1ce191680",
          "transactionIndex": "0xe",
          "logIndex": "0x3f",
          "removed": false
        },
        {
          "address": "0x706e74e28549ac5df33d55f624dea5e7413beeef",
          "topics": [
            "0x2f8788117e7eff1d82e926ec794901d17c78024a50270940304540a733656f0d",
            "0x0000000000000000000000000000000000000000000000000000000000000001",
            "0x000000000000000000000000cd754994ebe5ce16d432c1f936f98ac0d4aaba0e",
            "0x0000000000000000000000005d7b01702f0fb3757327c8c57a347f85333394d4"
          ],
          "data": "0x",
          "blockHash": "0x9d705bdca3ecbaefb0ac3dc68a3f6b3c4ecc70eafe3665d801fce769ff81a9c4",
          "blockNumber": "0x68c16",
          "transactionHash": "0xa2995e5caafa66d206d4a7d0f8b2e735ee9aaf1b8abd9ece502ebad1ce191680",
          "transactionIndex": "0xe",
          "logIndex": "0x40",
          "removed": false
        },
        {
          "address": "0x706e74e28549ac5df33d55f624dea5e7413beeef",
          "topics": [
            "0x2f8788117e7eff1d82e926ec794901d17c78024a50270940304540a733656f0d",
            "0x0000000000000000000000000000000000000000000000000000000000000000",
            "0x00000000000000000000000044bad1e4035a44eac1606b222873e4a85e8b7d9c",
            "0x0000000000000000000000005d7b01702f0fb3757327c8c57a347f85333394d4"
          ],
          "data": "0x",
          "blockHash": "0x9d705bdca3ecbaefb0ac3dc68a3f6b3c4ecc70eafe3665d801fce769ff81a9c4",
          "blockNumber": "0x68c16",
          "transactionHash": "0xa2995e5caafa66d206d4a7d0f8b2e735ee9aaf1b8abd9ece502ebad1ce191680",
          "transactionIndex": "0xe",
          "logIndex": "0x41",
          "removed": false
        },
        {
          "address": "0x706e74e28549ac5df33d55f624dea5e7413beeef",
          "topics": [
            "0x2f8788117e7eff1d82e926ec794901d17c78024a50270940304540a733656f0d",
            "0x0000000000000000000000000000000000000000000000000000000000000001",
            "0x00000000000000000000000044bad1e4035a44eac1606b222873e4a85e8b7d9c",
            "0x0000000000000000000000005d7b01702f0fb3757327c8c57a347f85333394d4"
          ],
          "data": "0x",
          "blockHash": "0x9d705bdca3ecbaefb0ac3dc68a3f6b3c4ecc70eafe3665d801fce769ff81a9c4",
          "blockNumber": "0x68c16",
          "transactionHash": "0xa2995e5caafa66d206d4a7d0f8b2e735ee9aaf1b8abd9ece502ebad1ce191680",
          "transactionIndex": "0xe",
          "logIndex": "0x42",
          "removed": false
        },
        {
          "address": "0x706e74e28549ac5df33d55f624dea5e7413beeef",
          "topics": [
            "0x2f8788117e7eff1d82e926ec794901d17c78024a50270940304540a733656f0d",
            "0x0000000000000000000000000000000000000000000000000000000000000000",
            "0x000000000000000000000000de13be395e1cd753471447cf6a656979ef87881c",
            "0x0000000000000000000000005d7b01702f0fb3757327c8c57a347f85333394d4"
          ],
          "data": "0x",
          "blockHash": "0x9d705bdca3ecbaefb0ac3dc68a3f6b3c4ecc70eafe3665d801fce769ff81a9c4",
          "blockNumber": "0x68c16",
          "transactionHash": "0xa2995e5caafa66d206d4a7d0f8b2e735ee9aaf1b8abd9ece502ebad1ce191680",
          "transactionIndex": "0xe",
          "logIndex": "0x43",
          "removed": false
        },
        {
          "address": "0x706e74e28549ac5df33d55f624dea5e7413beeef",
          "topics": [
            "0x2f8788117e7eff1d82e926ec794901d17c78024a50270940304540a733656f0d",
            "0x0000000000000000000000000000000000000000000000000000000000000001",
            "0x000000000000000000000000de13be395e1cd753471447cf6a656979ef87881c",
            "0x0000000000000000000000005d7b01702f0fb3757327c8c57a347f85333394d4"
          ],
          "data": "0x",
          "blockHash": "0x9d705bdca3ecbaefb0ac3dc68a3f6b3c4ecc70eafe3665d801fce769ff81a9c4",
          "blockNumber": "0x68c16",
          "transactionHash": "0xa2995e5caafa66d206d4a7d0f8b2e735ee9aaf1b8abd9ece502ebad1ce191680",
          "transactionIndex": "0xe",
          "logIndex": "0x44",
          "removed": false
        },
        {
          "address": "0x706e74e28549ac5df33d55f624dea5e7413beeef",
          "topics": [
            "0xc7f505b2f371ae2175ee4913f4499e1f2633a7b5936321eed1cdaeb6115181d2"
          ],
          "data": "0x0000000000000000000000000000000000000000000000000000000000000001",
          "blockHash": "0x9d705bdca3ecbaefb0ac3dc68a3f6b3c4ecc70eafe3665d801fce769ff81a9c4",
          "blockNumber": "0x68c16",
          "transactionHash": "0xa2995e5caafa66d206d4a7d0f8b2e735ee9aaf1b8abd9ece502ebad1ce191680",
          "transactionIndex": "0xe",
          "logIndex": "0x45",
          "removed": false
        },
        {
          "address": "0x5d7b01702f0fb3757327c8c57a347f85333394d4",
          "topics": [
            "0x68c2aee2986f58d77e87c1faf99e7dfd6cdc0998ea3c6278d3d8013291a7cdfa",
            "0x000000000000000000000000706e74e28549ac5df33d55f624dea5e7413beeef"
          ],
          "data": "0x000000000000000000000000000000000000000000000000000000000000006000000000000000000000000000000000000000000000000000000000000000a000000000000000000000000000000000000000000000000000000000000000e0000000000000000000000000000000000000000000000000000000000000000f4d79436f6d706f7361626c65535047000000000000000000000000000000000000000000000000000000000000000000000000000000000000000000000000054d43535047000000000000000000000000000000000000000000000000000000000000000000000000000000000000000000000000000000000000000000002568747470733a2f2f6578616d706c652e636f6d2f636f6e74726163742d6d65746164617461000000000000000000000000000000000000000000000000000000",
          "blockHash": "0x9d705bdca3ecbaefb0ac3dc68a3f6b3c4ecc70eafe3665d801fce769ff81a9c4",
          "blockNumber": "0x68c16",
          "transactionHash": "0xa2995e5caafa66d206d4a7d0f8b2e735ee9aaf1b8abd9ece502ebad1ce191680",
          "transactionIndex": "0xe",
          "logIndex": "0x46",
          "removed": false
        }
      ],
      "logsBloom": "0x00000004000000000000000000000000000100000000000000200000000000000000400000008004200000200000000000000000010000000000000000040000000000010000000000001000025400000000008000040000000000010004000000000000020000000000000000000800004000000000000000004000000000000000000000000200000800000000080000000080000084000000000000000000000000000000000000800000000400000000400000000000201000000000000000080000000000008000000000001000000000000004000300800000400060010000000000000080000000000000000000000000000000000000000000000000",
      "type": "0x2",
      "transactionHash": "0xa2995e5caafa66d206d4a7d0f8b2e735ee9aaf1b8abd9ece502ebad1ce191680",
      "transactionIndex": "0xe",
      "blockHash": "0x9d705bdca3ecbaefb0ac3dc68a3f6b3c4ecc70eafe3665d801fce769ff81a9c4",
      "blockNumber": "0x68c16",
      "gasUsed": "0xa7eef",
      "effectiveGasPrice": "0x4d7c6cdc",
      "from": "0x369abe773328a9aa2bb48b0d6f7d4bca58959eab",
      "to": "0x5d7b01702f0fb3757327c8c57a347f85333394d4",
      "contractAddress": null
    }
  ],
  "libraries": [],
  "pending": [],
  "returns": {},
  "timestamp": 1731166914,
  "chain": 1516,
  "commit": "906839e"
}