{
  "transactions": [
    {
      "hash": "0x85f971168e4b5a2983798f6a224cfeceb0134a31fc3a38fc2862393b539acd64",
      "transactionType": "CALL",
      "contractName": null,
      "contractAddress": "0x56206e867225f46df24eab1f680e92c92f80a4ff",
      "function": "createComposableSPG((string,string,string,string,uint32,uint256,address,address,address,bool,bool))",
      "arguments": [
        "(Storynames Banner, NSBANNER, https://api.storyname.space/metadata/, https://rose-occupational-bee-58.mypinata.cloud/ipfs/QmRMfYGRu8xtCTTtm7kPrb8PXTuQcSyoMVJTLQk2ujpLDp, 1000000000, 0, 0x0000000000000000000000000000000000000000, 0x0000000000000000000000000000000000000000, 0x369Abe773328A9Aa2bb48B0D6F7D4bca58959EAb, true, true)"
      ],
      "transaction": {
        "from": "0x369abe773328a9aa2bb48b0d6f7d4bca58959eab",
        "to": "0x56206e867225f46df24eab1f680e92c92f80a4ff",
        "gas": "0x108c17",
        "value": "0x0",
        "input": "0xb934751b0000000000000000000000000000000000000000000000000000000000000020000000000000000000000000000000000000000000000000000000000000016000000000000000000000000000000000000000000000000000000000000001a000000000000000000000000000000000000000000000000000000000000001e00000000000000000000000000000000000000000000000000000000000000240000000000000000000000000000000000000000000000000000000003b9aca00000000000000000000000000000000000000000000000000000000000000000000000000000000000000000000000000000000000000000000000000000000000000000000000000000000000000000000000000000000000000000000000000000000000000000000000000369abe773328a9aa2bb48b0d6f7d4bca58959eab00000000000000000000000000000000000000000000000000000000000000010000000000000000000000000000000000000000000000000000000000000001000000000000000000000000000000000000000000000000000000000000001153746f72796e616d65732042616e6e657200000000000000000000000000000000000000000000000000000000000000000000000000000000000000000000084e5342414e4e4552000000000000000000000000000000000000000000000000000000000000000000000000000000000000000000000000000000000000002568747470733a2f2f6170692e73746f72796e616d652e73706163652f6d657461646174612f000000000000000000000000000000000000000000000000000000000000000000000000000000000000000000000000000000000000000000006368747470733a2f2f726f73652d6f636375706174696f6e616c2d6265652d35382e6d7970696e6174612e636c6f75642f697066732f516d524d6659475275387874435454746d376b5072623850585475516353796f4d564a544c516b32756a704c44700000000000000000000000000000000000000000000000000000000000",
        "nonce": "0x54",
        "chainId": "0x5ec"
      },
      "additionalContracts": [],
      "isFixedGasLimit": false
    }
  ],
  "receipts": [
    {
      "status": "0x1",
      "cumulativeGasUsed": "0x84c748",
      "logs": [
        {
          "address": "0x9b2a0a391c00e44e08ea248565958d35a9d86be3",
          "topics": [
            "0x1cf3b03a6cf19fa2baba4df148e9dcabedea7f8a5c07840e207e5c089be95d3e",
            "0x000000000000000000000000d023bb3269f88345f3d79f2fe5acfaaac6189b8e"
          ],
          "data": "0x",
          "blockHash": "0x81e3c98842f46ec9ee67d0054b62af02ed887d478c445737b242a57acd557fdc",
          "blockNumber": "0xb0b44",
          "transactionHash": "0x85f971168e4b5a2983798f6a224cfeceb0134a31fc3a38fc2862393b539acd64",
          "transactionIndex": "0x27",
          "logIndex": "0x63",
          "removed": false
        },
        {
          "address": "0x9b2a0a391c00e44e08ea248565958d35a9d86be3",
          "topics": [
            "0x2f8788117e7eff1d82e926ec794901d17c78024a50270940304540a733656f0d",
            "0x0000000000000000000000000000000000000000000000000000000000000000",
            "0x000000000000000000000000369abe773328a9aa2bb48b0d6f7d4bca58959eab",
            "0x00000000000000000000000056206e867225f46df24eab1f680e92c92f80a4ff"
          ],
          "data": "0x",
          "blockHash": "0x81e3c98842f46ec9ee67d0054b62af02ed887d478c445737b242a57acd557fdc",
          "blockNumber": "0xb0b44",
          "transactionHash": "0x85f971168e4b5a2983798f6a224cfeceb0134a31fc3a38fc2862393b539acd64",
          "transactionIndex": "0x27",
          "logIndex": "0x64",
          "removed": false
        },
        {
          "address": "0x9b2a0a391c00e44e08ea248565958d35a9d86be3",
          "topics": [
            "0x2f8788117e7eff1d82e926ec794901d17c78024a50270940304540a733656f0d",
            "0x0000000000000000000000000000000000000000000000000000000000000001",
            "0x000000000000000000000000369abe773328a9aa2bb48b0d6f7d4bca58959eab",
            "0x00000000000000000000000056206e867225f46df24eab1f680e92c92f80a4ff"
          ],
          "data": "0x",
          "blockHash": "0x81e3c98842f46ec9ee67d0054b62af02ed887d478c445737b242a57acd557fdc",
          "blockNumber": "0xb0b44",
          "transactionHash": "0x85f971168e4b5a2983798f6a224cfeceb0134a31fc3a38fc2862393b539acd64",
          "transactionIndex": "0x27",
          "logIndex": "0x65",
          "removed": false
        },
        {
          "address": "0x9b2a0a391c00e44e08ea248565958d35a9d86be3",
          "topics": [
            "0x2f8788117e7eff1d82e926ec794901d17c78024a50270940304540a733656f0d",
            "0x0000000000000000000000000000000000000000000000000000000000000000",
            "0x000000000000000000000000a8815ceb96857ffb8f5f8ce920b1ae6d70254c7b",
            "0x00000000000000000000000056206e867225f46df24eab1f680e92c92f80a4ff"
          ],
          "data": "0x",
          "blockHash": "0x81e3c98842f46ec9ee67d0054b62af02ed887d478c445737b242a57acd557fdc",
          "blockNumber": "0xb0b44",
          "transactionHash": "0x85f971168e4b5a2983798f6a224cfeceb0134a31fc3a38fc2862393b539acd64",
          "transactionIndex": "0x27",
          "logIndex": "0x66",
          "removed": false
        },
        {
          "address": "0x9b2a0a391c00e44e08ea248565958d35a9d86be3",
          "topics": [
            "0x2f8788117e7eff1d82e926ec794901d17c78024a50270940304540a733656f0d",
            "0x0000000000000000000000000000000000000000000000000000000000000001",
            "0x000000000000000000000000a8815ceb96857ffb8f5f8ce920b1ae6d70254c7b",
            "0x00000000000000000000000056206e867225f46df24eab1f680e92c92f80a4ff"
          ],
          "data": "0x",
          "blockHash": "0x81e3c98842f46ec9ee67d0054b62af02ed887d478c445737b242a57acd557fdc",
          "blockNumber": "0xb0b44",
          "transactionHash": "0x85f971168e4b5a2983798f6a224cfeceb0134a31fc3a38fc2862393b539acd64",
          "transactionIndex": "0x27",
          "logIndex": "0x67",
          "removed": false
        },
        {
          "address": "0x9b2a0a391c00e44e08ea248565958d35a9d86be3",
          "topics": [
            "0x2f8788117e7eff1d82e926ec794901d17c78024a50270940304540a733656f0d",
            "0x0000000000000000000000000000000000000000000000000000000000000000",
            "0x000000000000000000000000cd754994ebe5ce16d432c1f936f98ac0d4aaba0e",
            "0x00000000000000000000000056206e867225f46df24eab1f680e92c92f80a4ff"
          ],
          "data": "0x",
          "blockHash": "0x81e3c98842f46ec9ee67d0054b62af02ed887d478c445737b242a57acd557fdc",
          "blockNumber": "0xb0b44",
          "transactionHash": "0x85f971168e4b5a2983798f6a224cfeceb0134a31fc3a38fc2862393b539acd64",
          "transactionIndex": "0x27",
          "logIndex": "0x68",
          "removed": false
        },
        {
          "address": "0x9b2a0a391c00e44e08ea248565958d35a9d86be3",
          "topics": [
            "0x2f8788117e7eff1d82e926ec794901d17c78024a50270940304540a733656f0d",
            "0x0000000000000000000000000000000000000000000000000000000000000001",
            "0x000000000000000000000000cd754994ebe5ce16d432c1f936f98ac0d4aaba0e",
            "0x00000000000000000000000056206e867225f46df24eab1f680e92c92f80a4ff"
          ],
          "data": "0x",
          "blockHash": "0x81e3c98842f46ec9ee67d0054b62af02ed887d478c445737b242a57acd557fdc",
          "blockNumber": "0xb0b44",
          "transactionHash": "0x85f971168e4b5a2983798f6a224cfeceb0134a31fc3a38fc2862393b539acd64",
          "transactionIndex": "0x27",
          "logIndex": "0x69",
          "removed": false
        },
        {
          "address": "0x9b2a0a391c00e44e08ea248565958d35a9d86be3",
          "topics": [
            "0x2f8788117e7eff1d82e926ec794901d17c78024a50270940304540a733656f0d",
            "0x0000000000000000000000000000000000000000000000000000000000000000",
            "0x00000000000000000000000044bad1e4035a44eac1606b222873e4a85e8b7d9c",
            "0x00000000000000000000000056206e867225f46df24eab1f680e92c92f80a4ff"
          ],
          "data": "0x",
          "blockHash": "0x81e3c98842f46ec9ee67d0054b62af02ed887d478c445737b242a57acd557fdc",
          "blockNumber": "0xb0b44",
          "transactionHash": "0x85f971168e4b5a2983798f6a224cfeceb0134a31fc3a38fc2862393b539acd64",
          "transactionIndex": "0x27",
          "logIndex": "0x6a",
          "removed": false
        },
        {
          "address": "0x9b2a0a391c00e44e08ea248565958d35a9d86be3",
          "topics": [
            "0x2f8788117e7eff1d82e926ec794901d17c78024a50270940304540a733656f0d",
            "0x0000000000000000000000000000000000000000000000000000000000000001",
            "0x00000000000000000000000044bad1e4035a44eac1606b222873e4a85e8b7d9c",
            "0x00000000000000000000000056206e867225f46df24eab1f680e92c92f80a4ff"
          ],
          "data": "0x",
          "blockHash": "0x81e3c98842f46ec9ee67d0054b62af02ed887d478c445737b242a57acd557fdc",
          "blockNumber": "0xb0b44",
          "transactionHash": "0x85f971168e4b5a2983798f6a224cfeceb0134a31fc3a38fc2862393b539acd64",
          "transactionIndex": "0x27",
          "logIndex": "0x6b",
          "removed": false
        },
        {
          "address": "0x9b2a0a391c00e44e08ea248565958d35a9d86be3",
          "topics": [
            "0x2f8788117e7eff1d82e926ec794901d17c78024a50270940304540a733656f0d",
            "0x0000000000000000000000000000000000000000000000000000000000000000",
            "0x000000000000000000000000de13be395e1cd753471447cf6a656979ef87881c",
            "0x00000000000000000000000056206e867225f46df24eab1f680e92c92f80a4ff"
          ],
          "data": "0x",
          "blockHash": "0x81e3c98842f46ec9ee67d0054b62af02ed887d478c445737b242a57acd557fdc",
          "blockNumber": "0xb0b44",
          "transactionHash": "0x85f971168e4b5a2983798f6a224cfeceb0134a31fc3a38fc2862393b539acd64",
          "transactionIndex": "0x27",
          "logIndex": "0x6c",
          "removed": false
        },
        {
          "address": "0x9b2a0a391c00e44e08ea248565958d35a9d86be3",
          "topics": [
            "0x2f8788117e7eff1d82e926ec794901d17c78024a50270940304540a733656f0d",
            "0x0000000000000000000000000000000000000000000000000000000000000001",
            "0x000000000000000000000000de13be395e1cd753471447cf6a656979ef87881c",
            "0x00000000000000000000000056206e867225f46df24eab1f680e92c92f80a4ff"
          ],
          "data": "0x",
          "blockHash": "0x81e3c98842f46ec9ee67d0054b62af02ed887d478c445737b242a57acd557fdc",
          "blockNumber": "0xb0b44",
          "transactionHash": "0x85f971168e4b5a2983798f6a224cfeceb0134a31fc3a38fc2862393b539acd64",
          "transactionIndex": "0x27",
          "logIndex": "0x6d",
          "removed": false
        },
        {
          "address": "0x9b2a0a391c00e44e08ea248565958d35a9d86be3",
          "topics": [
            "0xc7f505b2f371ae2175ee4913f4499e1f2633a7b5936321eed1cdaeb6115181d2"
          ],
          "data": "0x0000000000000000000000000000000000000000000000000000000000000001",
          "blockHash": "0x81e3c98842f46ec9ee67d0054b62af02ed887d478c445737b242a57acd557fdc",
          "blockNumber": "0xb0b44",
          "transactionHash": "0x85f971168e4b5a2983798f6a224cfeceb0134a31fc3a38fc2862393b539acd64",
          "transactionIndex": "0x27",
          "logIndex": "0x6e",
          "removed": false
        },
        {
          "address": "0x56206e867225f46df24eab1f680e92c92f80a4ff",
          "topics": [
            "0x68c2aee2986f58d77e87c1faf99e7dfd6cdc0998ea3c6278d3d8013291a7cdfa",
            "0x0000000000000000000000009b2a0a391c00e44e08ea248565958d35a9d86be3"
          ],
          "data": "0x000000000000000000000000000000000000000000000000000000000000006000000000000000000000000000000000000000000000000000000000000000a000000000000000000000000000000000000000000000000000000000000000e0000000000000000000000000000000000000000000000000000000000000001153746f72796e616d65732042616e6e657200000000000000000000000000000000000000000000000000000000000000000000000000000000000000000000084e5342414e4e4552000000000000000000000000000000000000000000000000000000000000000000000000000000000000000000000000000000000000006368747470733a2f2f726f73652d6f636375706174696f6e616c2d6265652d35382e6d7970696e6174612e636c6f75642f697066732f516d524d6659475275387874435454746d376b5072623850585475516353796f4d564a544c516b32756a704c44700000000000000000000000000000000000000000000000000000000000",
          "blockHash": "0x81e3c98842f46ec9ee67d0054b62af02ed887d478c445737b242a57acd557fdc",
          "blockNumber": "0xb0b44",
          "transactionHash": "0x85f971168e4b5a2983798f6a224cfeceb0134a31fc3a38fc2862393b539acd64",
          "transactionIndex": "0x27",
          "logIndex": "0x6f",
          "removed": false
        }
      ],
      "logsBloom": "0x00000004000000000000000000000000000100100000000000200000000000000000000000000004000000000000000002000000000000010000000000040000400000100000000000001000005400000000000000040080000800002004000004040000020000000000000000000800004200000000000000004000000000000000000000000000000800000000080000000080000084000000000000000000000000000000000000800000000000000000400000000004201000000000000000000000000000008000000000001000000000000004000300800000000060010000008000000000000000000000005000000000000000000000000000000000",
      "type": "0x2",
      "transactionHash": "0x85f971168e4b5a2983798f6a224cfeceb0134a31fc3a38fc2862393b539acd64",
      "transactionIndex": "0x27",
      "blockHash": "0x81e3c98842f46ec9ee67d0054b62af02ed887d478c445737b242a57acd557fdc",
      "blockNumber": "0xb0b44",
      "gasUsed": "0xb510f",
      "effectiveGasPrice": "0x3c05783f8",
      "from": "0x369abe773328a9aa2bb48b0d6f7d4bca58959eab",
      "to": "0x56206e867225f46df24eab1f680e92c92f80a4ff",
      "contractAddress": null
    }
  ],
  "libraries": [],
  "pending": [],
  "returns": {},
  "timestamp": 1732206115,
  "chain": 1516,
  "commit": "906839e"
}