{
  "transactions": [
    {
      "hash": "0x9ed91e027a550573de1b2b3e2c5cfab394761b3a4bd035779cc4ecc22f5f89a4",
      "transactionType": "CALL",
      "contractName": null,
      "contractAddress": "0x647b236e824c112e712d9ff9c9fee5e84a917e2d",
      "function": "createComposableSPG((string,string,string,string,uint32,uint256,address,address,address,bool,bool))",
      "arguments": [
        "(MyComposableSPG, MCSPG, https://example.com/metadata/, https://example.com/contract-metadata, 100000, 0, 0x0000000000000000000000000000000000000000, 0x0000000000000000000000000000000000000000, 0x369Abe773328A9Aa2bb48B0D6F7D4bca58959EAb, true, true)"
      ],
      "transaction": {
        "from": "0x369abe773328a9aa2bb48b0d6f7d4bca58959eab",
        "to": "0x647b236e824c112e712d9ff9c9fee5e84a917e2d",
        "gas": "0xee463",
        "value": "0x0",
        "input": "0xb934751b0000000000000000000000000000000000000000000000000000000000000020000000000000000000000000000000000000000000000000000000000000016000000000000000000000000000000000000000000000000000000000000001a000000000000000000000000000000000000000000000000000000000000001e0000000000000000000000000000000000000000000000000000000000000022000000000000000000000000000000000000000000000000000000000000186a0000000000000000000000000000000000000000000000000000000000000000000000000000000000000000000000000000000000000000000000000000000000000000000000000000000000000000000000000000000000000000000000000000000000000000000000000369abe773328a9aa2bb48b0d6f7d4bca58959eab00000000000000000000000000000000000000000000000000000000000000010000000000000000000000000000000000000000000000000000000000000001000000000000000000000000000000000000000000000000000000000000000f4d79436f6d706f7361626c65535047000000000000000000000000000000000000000000000000000000000000000000000000000000000000000000000000054d43535047000000000000000000000000000000000000000000000000000000000000000000000000000000000000000000000000000000000000000000001d68747470733a2f2f6578616d706c652e636f6d2f6d657461646174612f000000000000000000000000000000000000000000000000000000000000000000002568747470733a2f2f6578616d706c652e636f6d2f636f6e74726163742d6d65746164617461000000000000000000000000000000000000000000000000000000",
        "nonce": "0x2b",
        "chainId": "0x5ec"
      },
      "additionalContracts": [],
      "isFixedGasLimit": false
    }
  ],
  "receipts": [
    {
      "status": "0x1",
      "cumulativeGasUsed": "0x9cb866",
      "logs": [
        {
          "address": "0xed96851e75501e3b8a6765d7fb0c30e2016d133f",
          "topics": [
            "0x1cf3b03a6cf19fa2baba4df148e9dcabedea7f8a5c07840e207e5c089be95d3e",
            "0x00000000000000000000000083137e12dd39c6926dafa569d726902bed452e9b"
          ],
          "data": "0x",
          "blockHash": "0xd3573a368b0ae403ce922fbea67703f5e79f3cbec0fc5c3a8c49e8504d229723",
          "blockNumber": "0x763d8",
          "transactionHash": "0x9ed91e027a550573de1b2b3e2c5cfab394761b3a4bd035779cc4ecc22f5f89a4",
          "transactionIndex": "0x29",
          "logIndex": "0x94",
          "removed": false
        },
        {
          "address": "0xed96851e75501e3b8a6765d7fb0c30e2016d133f",
          "topics": [
            "0x2f8788117e7eff1d82e926ec794901d17c78024a50270940304540a733656f0d",
            "0x0000000000000000000000000000000000000000000000000000000000000000",
            "0x000000000000000000000000369abe773328a9aa2bb48b0d6f7d4bca58959eab",
            "0x000000000000000000000000647b236e824c112e712d9ff9c9fee5e84a917e2d"
          ],
          "data": "0x",
          "blockHash": "0xd3573a368b0ae403ce922fbea67703f5e79f3cbec0fc5c3a8c49e8504d229723",
          "blockNumber": "0x763d8",
          "transactionHash": "0x9ed91e027a550573de1b2b3e2c5cfab394761b3a4bd035779cc4ecc22f5f89a4",
          "transactionIndex": "0x29",
          "logIndex": "0x95",
          "removed": false
        },
        {
          "address": "0xed96851e75501e3b8a6765d7fb0c30e2016d133f",
          "topics": [
            "0x2f8788117e7eff1d82e926ec794901d17c78024a50270940304540a733656f0d",
            "0x0000000000000000000000000000000000000000000000000000000000000001",
            "0x000000000000000000000000369abe773328a9aa2bb48b0d6f7d4bca58959eab",
            "0x000000000000000000000000647b236e824c112e712d9ff9c9fee5e84a917e2d"
          ],
          "data": "0x",
          "blockHash": "0xd3573a368b0ae403ce922fbea67703f5e79f3cbec0fc5c3a8c49e8504d229723",
          "blockNumber": "0x763d8",
          "transactionHash": "0x9ed91e027a550573de1b2b3e2c5cfab394761b3a4bd035779cc4ecc22f5f89a4",
          "transactionIndex": "0x29",
          "logIndex": "0x96",
          "removed": false
        },
        {
          "address": "0xed96851e75501e3b8a6765d7fb0c30e2016d133f",
          "topics": [
            "0x2f8788117e7eff1d82e926ec794901d17c78024a50270940304540a733656f0d",
            "0x0000000000000000000000000000000000000000000000000000000000000000",
            "0x000000000000000000000000a8815ceb96857ffb8f5f8ce920b1ae6d70254c7b",
            "0x000000000000000000000000647b236e824c112e712d9ff9c9fee5e84a917e2d"
          ],
          "data": "0x",
          "blockHash": "0xd3573a368b0ae403ce922fbea67703f5e79f3cbec0fc5c3a8c49e8504d229723",
          "blockNumber": "0x763d8",
          "transactionHash": "0x9ed91e027a550573de1b2b3e2c5cfab394761b3a4bd035779cc4ecc22f5f89a4",
          "transactionIndex": "0x29",
          "logIndex": "0x97",
          "removed": false
        },
        {
          "address": "0xed96851e75501e3b8a6765d7fb0c30e2016d133f",
          "topics": [
            "0x2f8788117e7eff1d82e926ec794901d17c78024a50270940304540a733656f0d",
            "0x0000000000000000000000000000000000000000000000000000000000000001",
            "0x000000000000000000000000a8815ceb96857ffb8f5f8ce920b1ae6d70254c7b",
            "0x000000000000000000000000647b236e824c112e712d9ff9c9fee5e84a917e2d"
          ],
          "data": "0x",
          "blockHash": "0xd3573a368b0ae403ce922fbea67703f5e79f3cbec0fc5c3a8c49e8504d229723",
          "blockNumber": "0x763d8",
          "transactionHash": "0x9ed91e027a550573de1b2b3e2c5cfab394761b3a4bd035779cc4ecc22f5f89a4",
          "transactionIndex": "0x29",
          "logIndex": "0x98",
          "removed": false
        },
        {
          "address": "0xed96851e75501e3b8a6765d7fb0c30e2016d133f",
          "topics": [
            "0x2f8788117e7eff1d82e926ec794901d17c78024a50270940304540a733656f0d",
            "0x0000000000000000000000000000000000000000000000000000000000000000",
            "0x000000000000000000000000cd754994ebe5ce16d432c1f936f98ac0d4aaba0e",
            "0x000000000000000000000000647b236e824c112e712d9ff9c9fee5e84a917e2d"
          ],
          "data": "0x",
          "blockHash": "0xd3573a368b0ae403ce922fbea67703f5e79f3cbec0fc5c3a8c49e8504d229723",
          "blockNumber": "0x763d8",
          "transactionHash": "0x9ed91e027a550573de1b2b3e2c5cfab394761b3a4bd035779cc4ecc22f5f89a4",
          "transactionIndex": "0x29",
          "logIndex": "0x99",
          "removed": false
        },
        {
          "address": "0xed96851e75501e3b8a6765d7fb0c30e2016d133f",
          "topics": [
            "0x2f8788117e7eff1d82e926ec794901d17c78024a50270940304540a733656f0d",
            "0x0000000000000000000000000000000000000000000000000000000000000001",
            "0x000000000000000000000000cd754994ebe5ce16d432c1f936f98ac0d4aaba0e",
            "0x000000000000000000000000647b236e824c112e712d9ff9c9fee5e84a917e2d"
          ],
          "data": "0x",
          "blockHash": "0xd3573a368b0ae403ce922fbea67703f5e79f3cbec0fc5c3a8c49e8504d229723",
          "blockNumber": "0x763d8",
          "transactionHash": "0x9ed91e027a550573de1b2b3e2c5cfab394761b3a4bd035779cc4ecc22f5f89a4",
          "transactionIndex": "0x29",
          "logIndex": "0x9a",
          "removed": false
        },
        {
          "address": "0xed96851e75501e3b8a6765d7fb0c30e2016d133f",
          "topics": [
            "0x2f8788117e7eff1d82e926ec794901d17c78024a50270940304540a733656f0d",
            "0x0000000000000000000000000000000000000000000000000000000000000000",
            "0x00000000000000000000000044bad1e4035a44eac1606b222873e4a85e8b7d9c",
            "0x000000000000000000000000647b236e824c112e712d9ff9c9fee5e84a917e2d"
          ],
          "data": "0x",
          "blockHash": "0xd3573a368b0ae403ce922fbea67703f5e79f3cbec0fc5c3a8c49e8504d229723",
          "blockNumber": "0x763d8",
          "transactionHash": "0x9ed91e027a550573de1b2b3e2c5cfab394761b3a4bd035779cc4ecc22f5f89a4",
          "transactionIndex": "0x29",
          "logIndex": "0x9b",
          "removed": false
        },
        {
          "address": "0xed96851e75501e3b8a6765d7fb0c30e2016d133f",
          "topics": [
            "0x2f8788117e7eff1d82e926ec794901d17c78024a50270940304540a733656f0d",
            "0x0000000000000000000000000000000000000000000000000000000000000001",
            "0x00000000000000000000000044bad1e4035a44eac1606b222873e4a85e8b7d9c",
            "0x000000000000000000000000647b236e824c112e712d9ff9c9fee5e84a917e2d"
          ],
          "data": "0x",
          "blockHash": "0xd3573a368b0ae403ce922fbea67703f5e79f3cbec0fc5c3a8c49e8504d229723",
          "blockNumber": "0x763d8",
          "transactionHash": "0x9ed91e027a550573de1b2b3e2c5cfab394761b3a4bd035779cc4ecc22f5f89a4",
          "transactionIndex": "0x29",
          "logIndex": "0x9c",
          "removed": false
        },
        {
          "address": "0xed96851e75501e3b8a6765d7fb0c30e2016d133f",
          "topics": [
            "0x2f8788117e7eff1d82e926ec794901d17c78024a50270940304540a733656f0d",
            "0x0000000000000000000000000000000000000000000000000000000000000000",
            "0x000000000000000000000000de13be395e1cd753471447cf6a656979ef87881c",
            "0x000000000000000000000000647b236e824c112e712d9ff9c9fee5e84a917e2d"
          ],
          "data": "0x",
          "blockHash": "0xd3573a368b0ae403ce922fbea67703f5e79f3cbec0fc5c3a8c49e8504d229723",
          "blockNumber": "0x763d8",
          "transactionHash": "0x9ed91e027a550573de1b2b3e2c5cfab394761b3a4bd035779cc4ecc22f5f89a4",
          "transactionIndex": "0x29",
          "logIndex": "0x9d",
          "removed": false
        },
        {
          "address": "0xed96851e75501e3b8a6765d7fb0c30e2016d133f",
          "topics": [
            "0x2f8788117e7eff1d82e926ec794901d17c78024a50270940304540a733656f0d",
            "0x0000000000000000000000000000000000000000000000000000000000000001",
            "0x000000000000000000000000de13be395e1cd753471447cf6a656979ef87881c",
            "0x000000000000000000000000647b236e824c112e712d9ff9c9fee5e84a917e2d"
          ],
          "data": "0x",
          "blockHash": "0xd3573a368b0ae403ce922fbea67703f5e79f3cbec0fc5c3a8c49e8504d229723",
          "blockNumber": "0x763d8",
          "transactionHash": "0x9ed91e027a550573de1b2b3e2c5cfab394761b3a4bd035779cc4ecc22f5f89a4",
          "transactionIndex": "0x29",
          "logIndex": "0x9e",
          "removed": false
        },
        {
          "address": "0xed96851e75501e3b8a6765d7fb0c30e2016d133f",
          "topics": [
            "0xc7f505b2f371ae2175ee4913f4499e1f2633a7b5936321eed1cdaeb6115181d2"
          ],
          "data": "0x0000000000000000000000000000000000000000000000000000000000000001",
          "blockHash": "0xd3573a368b0ae403ce922fbea67703f5e79f3cbec0fc5c3a8c49e8504d229723",
          "blockNumber": "0x763d8",
          "transactionHash": "0x9ed91e027a550573de1b2b3e2c5cfab394761b3a4bd035779cc4ecc22f5f89a4",
          "transactionIndex": "0x29",
          "logIndex": "0x9f",
          "removed": false
        },
        {
          "address": "0x647b236e824c112e712d9ff9c9fee5e84a917e2d",
          "topics": [
            "0x68c2aee2986f58d77e87c1faf99e7dfd6cdc0998ea3c6278d3d8013291a7cdfa",
            "0x000000000000000000000000ed96851e75501e3b8a6765d7fb0c30e2016d133f"
          ],
          "data": "0x000000000000000000000000000000000000000000000000000000000000006000000000000000000000000000000000000000000000000000000000000000a000000000000000000000000000000000000000000000000000000000000000e0000000000000000000000000000000000000000000000000000000000000000f4d79436f6d706f7361626c65535047000000000000000000000000000000000000000000000000000000000000000000000000000000000000000000000000054d43535047000000000000000000000000000000000000000000000000000000000000000000000000000000000000000000000000000000000000000000002568747470733a2f2f6578616d706c652e636f6d2f636f6e74726163742d6d65746164617461000000000000000000000000000000000000000000000000000000",
          "blockHash": "0xd3573a368b0ae403ce922fbea67703f5e79f3cbec0fc5c3a8c49e8504d229723",
          "blockNumber": "0x763d8",
          "transactionHash": "0x9ed91e027a550573de1b2b3e2c5cfab394761b3a4bd035779cc4ecc22f5f89a4",
          "transactionIndex": "0x29",
          "logIndex": "0xa0",
          "removed": false
        }
      ],
      "logsBloom": "0x00000004000000000000000000000000000100800000000000220000000000000000000000000004000000000000000000000000000000000020000000040000000040000000000000005000005400000000000000040000000000000004000000000000020000000800000000000800004000000000400000004000000100000000000000000000000a00000000080000000080000084000000000080000000000000000000000000800000000000000000408000000000201000000000000000000000000000008000000000001000000000000004000300800020000060010000000008000000000000000000000000000004000000000000000008000000",
      "type": "0x2",
      "transactionHash": "0x9ed91e027a550573de1b2b3e2c5cfab394761b3a4bd035779cc4ecc22f5f89a4",
      "transactionIndex": "0x29",
      "blockHash": "0xd3573a368b0ae403ce922fbea67703f5e79f3cbec0fc5c3a8c49e8504d229723",
      "blockNumber": "0x763d8",
      "gasUsed": "0xa2f53",
      "effectiveGasPrice": "0x8ed6184",
      "from": "0x369abe773328a9aa2bb48b0d6f7d4bca58959eab",
      "to": "0x647b236e824c112e712d9ff9c9fee5e84a917e2d",
      "contractAddress": null
    }
  ],
  "libraries": [],
  "pending": [],
  "returns": {},
  "timestamp": 1731346345,
  "chain": 1516,
  "commit": "906839e"
}