{
  "transactions": [
    {
      "hash": "0x326e3506b9d0d3e90941edc836ac7e2b73d5949660b06101a722c5b8e46b2ad4",
      "transactionType": "CALL",
      "contractName": null,
      "contractAddress": "0xe9a0e1d1deb69b7a57e05daa5cd6f2707d3331d3",
      "function": "createComposableSPG((string,string,string,string,uint32,uint256,address,address,address,bool,bool))",
      "arguments": [
        "(MyComposableSPG, MCSPG, https://example.com/metadata/, https://example.com/contract-metadata, 100000, 0, 0x0000000000000000000000000000000000000000, 0x0000000000000000000000000000000000000000, 0x369Abe773328A9Aa2bb48B0D6F7D4bca58959EAb, true, true)"
      ],
      "transaction": {
        "from": "0x369abe773328a9aa2bb48b0d6f7d4bca58959eab",
        "to": "0xe9a0e1d1deb69b7a57e05daa5cd6f2707d3331d3",
        "gas": "0xee463",
        "value": "0x0",
        "input": "0xb934751b0000000000000000000000000000000000000000000000000000000000000020000000000000000000000000000000000000000000000000000000000000016000000000000000000000000000000000000000000000000000000000000001a000000000000000000000000000000000000000000000000000000000000001e0000000000000000000000000000000000000000000000000000000000000022000000000000000000000000000000000000000000000000000000000000186a0000000000000000000000000000000000000000000000000000000000000000000000000000000000000000000000000000000000000000000000000000000000000000000000000000000000000000000000000000000000000000000000000000000000000000000000000369abe773328a9aa2bb48b0d6f7d4bca58959eab00000000000000000000000000000000000000000000000000000000000000010000000000000000000000000000000000000000000000000000000000000001000000000000000000000000000000000000000000000000000000000000000f4d79436f6d706f7361626c65535047000000000000000000000000000000000000000000000000000000000000000000000000000000000000000000000000054d43535047000000000000000000000000000000000000000000000000000000000000000000000000000000000000000000000000000000000000000000001d68747470733a2f2f6578616d706c652e636f6d2f6d657461646174612f000000000000000000000000000000000000000000000000000000000000000000002568747470733a2f2f6578616d706c652e636f6d2f636f6e74726163742d6d65746164617461000000000000000000000000000000000000000000000000000000",
        "nonce": "0x27",
        "chainId": "0x5ec"
      },
      "additionalContracts": [],
      "isFixedGasLimit": false
    }
  ],
  "receipts": [
    {
      "status": "0x1",
      "cumulativeGasUsed": "0xc3d3d2",
      "logs": [
        {
          "address": "0x588a4769d45f434659568d0c8dfa545b84d173af",
          "topics": [
            "0x1cf3b03a6cf19fa2baba4df148e9dcabedea7f8a5c07840e207e5c089be95d3e",
            "0x0000000000000000000000001be311f9df2e272fef6305955dabb6f62f2f0cc2"
          ],
          "data": "0x",
          "blockHash": "0xbac8034f5f9a9cd5c60900c4558cb80ef0ddf4dac85439c73897a1d189a44c02",
          "blockNumber": "0x6d519",
          "transactionHash": "0x326e3506b9d0d3e90941edc836ac7e2b73d5949660b06101a722c5b8e46b2ad4",
          "transactionIndex": "0x41",
          "logIndex": "0xb7",
          "removed": false
        },
        {
          "address": "0x588a4769d45f434659568d0c8dfa545b84d173af",
          "topics": [
            "0x2f8788117e7eff1d82e926ec794901d17c78024a50270940304540a733656f0d",
            "0x0000000000000000000000000000000000000000000000000000000000000000",
            "0x000000000000000000000000369abe773328a9aa2bb48b0d6f7d4bca58959eab",
            "0x000000000000000000000000e9a0e1d1deb69b7a57e05daa5cd6f2707d3331d3"
          ],
          "data": "0x",
          "blockHash": "0xbac8034f5f9a9cd5c60900c4558cb80ef0ddf4dac85439c73897a1d189a44c02",
          "blockNumber": "0x6d519",
          "transactionHash": "0x326e3506b9d0d3e90941edc836ac7e2b73d5949660b06101a722c5b8e46b2ad4",
          "transactionIndex": "0x41",
          "logIndex": "0xb8",
          "removed": false
        },
        {
          "address": "0x588a4769d45f434659568d0c8dfa545b84d173af",
          "topics": [
            "0x2f8788117e7eff1d82e926ec794901d17c78024a50270940304540a733656f0d",
            "0x0000000000000000000000000000000000000000000000000000000000000001",
            "0x000000000000000000000000369abe773328a9aa2bb48b0d6f7d4bca58959eab",
            "0x000000000000000000000000e9a0e1d1deb69b7a57e05daa5cd6f2707d3331d3"
          ],
          "data": "0x",
          "blockHash": "0xbac8034f5f9a9cd5c60900c4558cb80ef0ddf4dac85439c73897a1d189a44c02",
          "blockNumber": "0x6d519",
          "transactionHash": "0x326e3506b9d0d3e90941edc836ac7e2b73d5949660b06101a722c5b8e46b2ad4",
          "transactionIndex": "0x41",
          "logIndex": "0xb9",
          "removed": false
        },
        {
          "address": "0x588a4769d45f434659568d0c8dfa545b84d173af",
          "topics": [
            "0x2f8788117e7eff1d82e926ec794901d17c78024a50270940304540a733656f0d",
            "0x0000000000000000000000000000000000000000000000000000000000000000",
            "0x000000000000000000000000a8815ceb96857ffb8f5f8ce920b1ae6d70254c7b",
            "0x000000000000000000000000e9a0e1d1deb69b7a57e05daa5cd6f2707d3331d3"
          ],
          "data": "0x",
          "blockHash": "0xbac8034f5f9a9cd5c60900c4558cb80ef0ddf4dac85439c73897a1d189a44c02",
          "blockNumber": "0x6d519",
          "transactionHash": "0x326e3506b9d0d3e90941edc836ac7e2b73d5949660b06101a722c5b8e46b2ad4",
          "transactionIndex": "0x41",
          "logIndex": "0xba",
          "removed": false
        },
        {
          "address": "0x588a4769d45f434659568d0c8dfa545b84d173af",
          "topics": [
            "0x2f8788117e7eff1d82e926ec794901d17c78024a50270940304540a733656f0d",
            "0x0000000000000000000000000000000000000000000000000000000000000001",
            "0x000000000000000000000000a8815ceb96857ffb8f5f8ce920b1ae6d70254c7b",
            "0x000000000000000000000000e9a0e1d1deb69b7a57e05daa5cd6f2707d3331d3"
          ],
          "data": "0x",
          "blockHash": "0xbac8034f5f9a9cd5c60900c4558cb80ef0ddf4dac85439c73897a1d189a44c02",
          "blockNumber": "0x6d519",
          "transactionHash": "0x326e3506b9d0d3e90941edc836ac7e2b73d5949660b06101a722c5b8e46b2ad4",
          "transactionIndex": "0x41",
          "logIndex": "0xbb",
          "removed": false
        },
        {
          "address": "0x588a4769d45f434659568d0c8dfa545b84d173af",
          "topics": [
            "0x2f8788117e7eff1d82e926ec794901d17c78024a50270940304540a733656f0d",
            "0x0000000000000000000000000000000000000000000000000000000000000000",
            "0x000000000000000000000000cd754994ebe5ce16d432c1f936f98ac0d4aaba0e",
            "0x000000000000000000000000e9a0e1d1deb69b7a57e05daa5cd6f2707d3331d3"
          ],
          "data": "0x",
          "blockHash": "0xbac8034f5f9a9cd5c60900c4558cb80ef0ddf4dac85439c73897a1d189a44c02",
          "blockNumber": "0x6d519",
          "transactionHash": "0x326e3506b9d0d3e90941edc836ac7e2b73d5949660b06101a722c5b8e46b2ad4",
          "transactionIndex": "0x41",
          "logIndex": "0xbc",
          "removed": false
        },
        {
          "address": "0x588a4769d45f434659568d0c8dfa545b84d173af",
          "topics": [
            "0x2f8788117e7eff1d82e926ec794901d17c78024a50270940304540a733656f0d",
            "0x0000000000000000000000000000000000000000000000000000000000000001",
            "0x000000000000000000000000cd754994ebe5ce16d432c1f936f98ac0d4aaba0e",
            "0x000000000000000000000000e9a0e1d1deb69b7a57e05daa5cd6f2707d3331d3"
          ],
          "data": "0x",
          "blockHash": "0xbac8034f5f9a9cd5c60900c4558cb80ef0ddf4dac85439c73897a1d189a44c02",
          "blockNumber": "0x6d519",
          "transactionHash": "0x326e3506b9d0d3e90941edc836ac7e2b73d5949660b06101a722c5b8e46b2ad4",
          "transactionIndex": "0x41",
          "logIndex": "0xbd",
          "removed": false
        },
        {
          "address": "0x588a4769d45f434659568d0c8dfa545b84d173af",
          "topics": [
            "0x2f8788117e7eff1d82e926ec794901d17c78024a50270940304540a733656f0d",
            "0x0000000000000000000000000000000000000000000000000000000000000000",
            "0x00000000000000000000000044bad1e4035a44eac1606b222873e4a85e8b7d9c",
            "0x000000000000000000000000e9a0e1d1deb69b7a57e05daa5cd6f2707d3331d3"
          ],
          "data": "0x",
          "blockHash": "0xbac8034f5f9a9cd5c60900c4558cb80ef0ddf4dac85439c73897a1d189a44c02",
          "blockNumber": "0x6d519",
          "transactionHash": "0x326e3506b9d0d3e90941edc836ac7e2b73d5949660b06101a722c5b8e46b2ad4",
          "transactionIndex": "0x41",
          "logIndex": "0xbe",
          "removed": false
        },
        {
          "address": "0x588a4769d45f434659568d0c8dfa545b84d173af",
          "topics": [
            "0x2f8788117e7eff1d82e926ec794901d17c78024a50270940304540a733656f0d",
            "0x0000000000000000000000000000000000000000000000000000000000000001",
            "0x00000000000000000000000044bad1e4035a44eac1606b222873e4a85e8b7d9c",
            "0x000000000000000000000000e9a0e1d1deb69b7a57e05daa5cd6f2707d3331d3"
          ],
          "data": "0x",
          "blockHash": "0xbac8034f5f9a9cd5c60900c4558cb80ef0ddf4dac85439c73897a1d189a44c02",
          "blockNumber": "0x6d519",
          "transactionHash": "0x326e3506b9d0d3e90941edc836ac7e2b73d5949660b06101a722c5b8e46b2ad4",
          "transactionIndex": "0x41",
          "logIndex": "0xbf",
          "removed": false
        },
        {
          "address": "0x588a4769d45f434659568d0c8dfa545b84d173af",
          "topics": [
            "0x2f8788117e7eff1d82e926ec794901d17c78024a50270940304540a733656f0d",
            "0x0000000000000000000000000000000000000000000000000000000000000000",
            "0x000000000000000000000000de13be395e1cd753471447cf6a656979ef87881c",
            "0x000000000000000000000000e9a0e1d1deb69b7a57e05daa5cd6f2707d3331d3"
          ],
          "data": "0x",
          "blockHash": "0xbac8034f5f9a9cd5c60900c4558cb80ef0ddf4dac85439c73897a1d189a44c02",
          "blockNumber": "0x6d519",
          "transactionHash": "0x326e3506b9d0d3e90941edc836ac7e2b73d5949660b06101a722c5b8e46b2ad4",
          "transactionIndex": "0x41",
          "logIndex": "0xc0",
          "removed": false
        },
        {
          "address": "0x588a4769d45f434659568d0c8dfa545b84d173af",
          "topics": [
            "0x2f8788117e7eff1d82e926ec794901d17c78024a50270940304540a733656f0d",
            "0x0000000000000000000000000000000000000000000000000000000000000001",
            "0x000000000000000000000000de13be395e1cd753471447cf6a656979ef87881c",
            "0x000000000000000000000000e9a0e1d1deb69b7a57e05daa5cd6f2707d3331d3"
          ],
          "data": "0x",
          "blockHash": "0xbac8034f5f9a9cd5c60900c4558cb80ef0ddf4dac85439c73897a1d189a44c02",
          "blockNumber": "0x6d519",
          "transactionHash": "0x326e3506b9d0d3e90941edc836ac7e2b73d5949660b06101a722c5b8e46b2ad4",
          "transactionIndex": "0x41",
          "logIndex": "0xc1",
          "removed": false
        },
        {
          "address": "0x588a4769d45f434659568d0c8dfa545b84d173af",
          "topics": [
            "0xc7f505b2f371ae2175ee4913f4499e1f2633a7b5936321eed1cdaeb6115181d2"
          ],
          "data": "0x0000000000000000000000000000000000000000000000000000000000000001",
          "blockHash": "0xbac8034f5f9a9cd5c60900c4558cb80ef0ddf4dac85439c73897a1d189a44c02",
          "blockNumber": "0x6d519",
          "transactionHash": "0x326e3506b9d0d3e90941edc836ac7e2b73d5949660b06101a722c5b8e46b2ad4",
          "transactionIndex": "0x41",
          "logIndex": "0xc2",
          "removed": false
        },
        {
          "address": "0xe9a0e1d1deb69b7a57e05daa5cd6f2707d3331d3",
          "topics": [
            "0x68c2aee2986f58d77e87c1faf99e7dfd6cdc0998ea3c6278d3d8013291a7cdfa",
            "0x000000000000000000000000588a4769d45f434659568d0c8dfa545b84d173af"
          ],
          "data": "0x000000000000000000000000000000000000000000000000000000000000006000000000000000000000000000000000000000000000000000000000000000a000000000000000000000000000000000000000000000000000000000000000e0000000000000000000000000000000000000000000000000000000000000000f4d79436f6d706f7361626c65535047000000000000000000000000000000000000000000000000000000000000000000000000000000000000000000000000054d43535047000000000000000000000000000000000000000000000000000000000000000000000000000000000000000000000000000000000000000000002568747470733a2f2f6578616d706c652e636f6d2f636f6e74726163742d6d65746164617461000000000000000000000000000000000000000000000000000000",
          "blockHash": "0xbac8034f5f9a9cd5c60900c4558cb80ef0ddf4dac85439c73897a1d189a44c02",
          "blockNumber": "0x6d519",
          "transactionHash": "0x326e3506b9d0d3e90941edc836ac7e2b73d5949660b06101a722c5b8e46b2ad4",
          "transactionIndex": "0x41",
          "logIndex": "0xc3",
          "removed": false
        }
      ],
      "logsBloom": "0x00000004002000000000000000000000000100000000000000200000000000010000000000000004000000000000000000000000000000000800000000040000000000000008000000001000405400000000000000240000000000000004000000000000020000000000000000000800005000008000000000004000000000000000002000000200000800000000080400000080000084000000004000000000000000000000000000800000000000000000400000000000201000000000000000000000000000008000000000001200000000000006000300800000000060010000400000000000000000000000000000000000000000000000000000000000",
      "type": "0x2",
      "transactionHash": "0x326e3506b9d0d3e90941edc836ac7e2b73d5949660b06101a722c5b8e46b2ad4",
      "transactionIndex": "0x41",
      "blockHash": "0xbac8034f5f9a9cd5c60900c4558cb80ef0ddf4dac85439c73897a1d189a44c02",
      "blockNumber": "0x6d519",
      "gasUsed": "0xa2f53",
      "effectiveGasPrice": "0x4d7c6c96",
      "from": "0x369abe773328a9aa2bb48b0d6f7d4bca58959eab",
      "to": "0xe9a0e1d1deb69b7a57e05daa5cd6f2707d3331d3",
      "contractAddress": null
    }
  ],
  "libraries": [],
  "pending": [],
  "returns": {},
  "timestamp": 1731227278,
  "chain": 1516,
  "commit": "906839e"
}