{
  "transactions": [
    {
      "hash": "0x9997e50c683a736a6374f99271fe27bfc512b97c7f0bfd46a5fdb6d32cad997e",
      "transactionType": "CALL",
      "contractName": null,
      "contractAddress": "0x96908409c0110116a408b1640d7314687d6e498a",
      "function": "createComposableSPG((string,string,string,string,uint32,uint256,address,address,address,bool,bool))",
      "arguments": [
        "(MyComposableSPG, MCSPG, https://example.com/metadata/, https://example.com/contract-metadata, 100000, 0, 0x0000000000000000000000000000000000000000, 0x0000000000000000000000000000000000000000, 0x369Abe773328A9Aa2bb48B0D6F7D4bca58959EAb, true, true)"
      ],
      "transaction": {
        "from": "0x369abe773328a9aa2bb48b0d6f7d4bca58959eab",
        "to": "0x96908409c0110116a408b1640d7314687d6e498a",
        "gas": "0xee463",
        "value": "0x0",
        "input": "0xb934751b0000000000000000000000000000000000000000000000000000000000000020000000000000000000000000000000000000000000000000000000000000016000000000000000000000000000000000000000000000000000000000000001a000000000000000000000000000000000000000000000000000000000000001e0000000000000000000000000000000000000000000000000000000000000022000000000000000000000000000000000000000000000000000000000000186a0000000000000000000000000000000000000000000000000000000000000000000000000000000000000000000000000000000000000000000000000000000000000000000000000000000000000000000000000000000000000000000000000000000000000000000000000369abe773328a9aa2bb48b0d6f7d4bca58959eab00000000000000000000000000000000000000000000000000000000000000010000000000000000000000000000000000000000000000000000000000000001000000000000000000000000000000000000000000000000000000000000000f4d79436f6d706f7361626c65535047000000000000000000000000000000000000000000000000000000000000000000000000000000000000000000000000054d43535047000000000000000000000000000000000000000000000000000000000000000000000000000000000000000000000000000000000000000000001d68747470733a2f2f6578616d706c652e636f6d2f6d657461646174612f000000000000000000000000000000000000000000000000000000000000000000002568747470733a2f2f6578616d706c652e636f6d2f636f6e74726163742d6d65746164617461000000000000000000000000000000000000000000000000000000",
        "nonce": "0x29",
        "chainId": "0x5ec"
      },
      "additionalContracts": [],
      "isFixedGasLimit": false
    }
  ],
  "receipts": [
    {
      "status": "0x1",
      "cumulativeGasUsed": "0x107f52e",
      "logs": [
        {
          "address": "0xdac39283c8982a4e57bae597f07040bfc430cd17",
          "topics": [
            "0x1cf3b03a6cf19fa2baba4df148e9dcabedea7f8a5c07840e207e5c089be95d3e",
            "0x000000000000000000000000932dbfa2f504561e84da897db84ae51ce36bd805"
          ],
          "data": "0x",
          "blockHash": "0x962201d543db661d23687762a285f2050cad33cf78f0bb7ccd68284108719b75",
          "blockNumber": "0x75e78",
          "transactionHash": "0x9997e50c683a736a6374f99271fe27bfc512b97c7f0bfd46a5fdb6d32cad997e",
          "transactionIndex": "0x2f",
          "logIndex": "0xce",
          "removed": false
        },
        {
          "address": "0xdac39283c8982a4e57bae597f07040bfc430cd17",
          "topics": [
            "0x2f8788117e7eff1d82e926ec794901d17c78024a50270940304540a733656f0d",
            "0x0000000000000000000000000000000000000000000000000000000000000000",
            "0x000000000000000000000000369abe773328a9aa2bb48b0d6f7d4bca58959eab",
            "0x00000000000000000000000096908409c0110116a408b1640d7314687d6e498a"
          ],
          "data": "0x",
          "blockHash": "0x962201d543db661d23687762a285f2050cad33cf78f0bb7ccd68284108719b75",
          "blockNumber": "0x75e78",
          "transactionHash": "0x9997e50c683a736a6374f99271fe27bfc512b97c7f0bfd46a5fdb6d32cad997e",
          "transactionIndex": "0x2f",
          "logIndex": "0xcf",
          "removed": false
        },
        {
          "address": "0xdac39283c8982a4e57bae597f07040bfc430cd17",
          "topics": [
            "0x2f8788117e7eff1d82e926ec794901d17c78024a50270940304540a733656f0d",
            "0x0000000000000000000000000000000000000000000000000000000000000001",
            "0x000000000000000000000000369abe773328a9aa2bb48b0d6f7d4bca58959eab",
            "0x00000000000000000000000096908409c0110116a408b1640d7314687d6e498a"
          ],
          "data": "0x",
          "blockHash": "0x962201d543db661d23687762a285f2050cad33cf78f0bb7ccd68284108719b75",
          "blockNumber": "0x75e78",
          "transactionHash": "0x9997e50c683a736a6374f99271fe27bfc512b97c7f0bfd46a5fdb6d32cad997e",
          "transactionIndex": "0x2f",
          "logIndex": "0xd0",
          "removed": false
        },
        {
          "address": "0xdac39283c8982a4e57bae597f07040bfc430cd17",
          "topics": [
            "0x2f8788117e7eff1d82e926ec794901d17c78024a50270940304540a733656f0d",
            "0x0000000000000000000000000000000000000000000000000000000000000000",
            "0x000000000000000000000000a8815ceb96857ffb8f5f8ce920b1ae6d70254c7b",
            "0x00000000000000000000000096908409c0110116a408b1640d7314687d6e498a"
          ],
          "data": "0x",
          "blockHash": "0x962201d543db661d23687762a285f2050cad33cf78f0bb7ccd68284108719b75",
          "blockNumber": "0x75e78",
          "transactionHash": "0x9997e50c683a736a6374f99271fe27bfc512b97c7f0bfd46a5fdb6d32cad997e",
          "transactionIndex": "0x2f",
          "logIndex": "0xd1",
          "removed": false
        },
        {
          "address": "0xdac39283c8982a4e57bae597f07040bfc430cd17",
          "topics": [
            "0x2f8788117e7eff1d82e926ec794901d17c78024a50270940304540a733656f0d",
            "0x0000000000000000000000000000000000000000000000000000000000000001",
            "0x000000000000000000000000a8815ceb96857ffb8f5f8ce920b1ae6d70254c7b",
            "0x00000000000000000000000096908409c0110116a408b1640d7314687d6e498a"
          ],
          "data": "0x",
          "blockHash": "0x962201d543db661d23687762a285f2050cad33cf78f0bb7ccd68284108719b75",
          "blockNumber": "0x75e78",
          "transactionHash": "0x9997e50c683a736a6374f99271fe27bfc512b97c7f0bfd46a5fdb6d32cad997e",
          "transactionIndex": "0x2f",
          "logIndex": "0xd2",
          "removed": false
        },
        {
          "address": "0xdac39283c8982a4e57bae597f07040bfc430cd17",
          "topics": [
            "0x2f8788117e7eff1d82e926ec794901d17c78024a50270940304540a733656f0d",
            "0x0000000000000000000000000000000000000000000000000000000000000000",
            "0x000000000000000000000000cd754994ebe5ce16d432c1f936f98ac0d4aaba0e",
            "0x00000000000000000000000096908409c0110116a408b1640d7314687d6e498a"
          ],
          "data": "0x",
          "blockHash": "0x962201d543db661d23687762a285f2050cad33cf78f0bb7ccd68284108719b75",
          "blockNumber": "0x75e78",
          "transactionHash": "0x9997e50c683a736a6374f99271fe27bfc512b97c7f0bfd46a5fdb6d32cad997e",
          "transactionIndex": "0x2f",
          "logIndex": "0xd3",
          "removed": false
        },
        {
          "address": "0xdac39283c8982a4e57bae597f07040bfc430cd17",
          "topics": [
            "0x2f8788117e7eff1d82e926ec794901d17c78024a50270940304540a733656f0d",
            "0x0000000000000000000000000000000000000000000000000000000000000001",
            "0x000000000000000000000000cd754994ebe5ce16d432c1f936f98ac0d4aaba0e",
            "0x00000000000000000000000096908409c0110116a408b1640d7314687d6e498a"
          ],
          "data": "0x",
          "blockHash": "0x962201d543db661d23687762a285f2050cad33cf78f0bb7ccd68284108719b75",
          "blockNumber": "0x75e78",
          "transactionHash": "0x9997e50c683a736a6374f99271fe27bfc512b97c7f0bfd46a5fdb6d32cad997e",
          "transactionIndex": "0x2f",
          "logIndex": "0xd4",
          "removed": false
        },
        {
          "address": "0xdac39283c8982a4e57bae597f07040bfc430cd17",
          "topics": [
            "0x2f8788117e7eff1d82e926ec794901d17c78024a50270940304540a733656f0d",
            "0x0000000000000000000000000000000000000000000000000000000000000000",
            "0x00000000000000000000000044bad1e4035a44eac1606b222873e4a85e8b7d9c",
            "0x00000000000000000000000096908409c0110116a408b1640d7314687d6e498a"
          ],
          "data": "0x",
          "blockHash": "0x962201d543db661d23687762a285f2050cad33cf78f0bb7ccd68284108719b75",
          "blockNumber": "0x75e78",
          "transactionHash": "0x9997e50c683a736a6374f99271fe27bfc512b97c7f0bfd46a5fdb6d32cad997e",
          "transactionIndex": "0x2f",
          "logIndex": "0xd5",
          "removed": false
        },
        {
          "address": "0xdac39283c8982a4e57bae597f07040bfc430cd17",
          "topics": [
            "0x2f8788117e7eff1d82e926ec794901d17c78024a50270940304540a733656f0d",
            "0x0000000000000000000000000000000000000000000000000000000000000001",
            "0x00000000000000000000000044bad1e4035a44eac1606b222873e4a85e8b7d9c",
            "0x00000000000000000000000096908409c0110116a408b1640d7314687d6e498a"
          ],
          "data": "0x",
          "blockHash": "0x962201d543db661d23687762a285f2050cad33cf78f0bb7ccd68284108719b75",
          "blockNumber": "0x75e78",
          "transactionHash": "0x9997e50c683a736a6374f99271fe27bfc512b97c7f0bfd46a5fdb6d32cad997e",
          "transactionIndex": "0x2f",
          "logIndex": "0xd6",
          "removed": false
        },
        {
          "address": "0xdac39283c8982a4e57bae597f07040bfc430cd17",
          "topics": [
            "0x2f8788117e7eff1d82e926ec794901d17c78024a50270940304540a733656f0d",
            "0x0000000000000000000000000000000000000000000000000000000000000000",
            "0x000000000000000000000000de13be395e1cd753471447cf6a656979ef87881c",
            "0x00000000000000000000000096908409c0110116a408b1640d7314687d6e498a"
          ],
          "data": "0x",
          "blockHash": "0x962201d543db661d23687762a285f2050cad33cf78f0bb7ccd68284108719b75",
          "blockNumber": "0x75e78",
          "transactionHash": "0x9997e50c683a736a6374f99271fe27bfc512b97c7f0bfd46a5fdb6d32cad997e",
          "transactionIndex": "0x2f",
          "logIndex": "0xd7",
          "removed": false
        },
        {
          "address": "0xdac39283c8982a4e57bae597f07040bfc430cd17",
          "topics": [
            "0x2f8788117e7eff1d82e926ec794901d17c78024a50270940304540a733656f0d",
            "0x0000000000000000000000000000000000000000000000000000000000000001",
            "0x000000000000000000000000de13be395e1cd753471447cf6a656979ef87881c",
            "0x00000000000000000000000096908409c0110116a408b1640d7314687d6e498a"
          ],
          "data": "0x",
          "blockHash": "0x962201d543db661d23687762a285f2050cad33cf78f0bb7ccd68284108719b75",
          "blockNumber": "0x75e78",
          "transactionHash": "0x9997e50c683a736a6374f99271fe27bfc512b97c7f0bfd46a5fdb6d32cad997e",
          "transactionIndex": "0x2f",
          "logIndex": "0xd8",
          "removed": false
        },
        {
          "address": "0xdac39283c8982a4e57bae597f07040bfc430cd17",
          "topics": [
            "0xc7f505b2f371ae2175ee4913f4499e1f2633a7b5936321eed1cdaeb6115181d2"
          ],
          "data": "0x0000000000000000000000000000000000000000000000000000000000000001",
          "blockHash": "0x962201d543db661d23687762a285f2050cad33cf78f0bb7ccd68284108719b75",
          "blockNumber": "0x75e78",
          "transactionHash": "0x9997e50c683a736a6374f99271fe27bfc512b97c7f0bfd46a5fdb6d32cad997e",
          "transactionIndex": "0x2f",
          "logIndex": "0xd9",
          "removed": false
        },
        {
          "address": "0x96908409c0110116a408b1640d7314687d6e498a",
          "topics": [
            "0x68c2aee2986f58d77e87c1faf99e7dfd6cdc0998ea3c6278d3d8013291a7cdfa",
            "0x000000000000000000000000dac39283c8982a4e57bae597f07040bfc430cd17"
          ],
          "data": "0x000000000000000000000000000000000000000000000000000000000000006000000000000000000000000000000000000000000000000000000000000000a000000000000000000000000000000000000000000000000000000000000000e0000000000000000000000000000000000000000000000000000000000000000f4d79436f6d706f7361626c65535047000000000000000000000000000000000000000000000000000000000000000000000000000000000000000000000000054d43535047000000000000000000000000000000000000000000000000000000000000000000000000000000000000000000000000000000000000000000002568747470733a2f2f6578616d706c652e636f6d2f636f6e74726163742d6d65746164617461000000000000000000000000000000000000000000000000000000",
          "blockHash": "0x962201d543db661d23687762a285f2050cad33cf78f0bb7ccd68284108719b75",
          "blockNumber": "0x75e78",
          "transactionHash": "0x9997e50c683a736a6374f99271fe27bfc512b97c7f0bfd46a5fdb6d32cad997e",
          "transactionIndex": "0x2f",
          "logIndex": "0xda",
          "removed": false
        }
      ],
      "logsBloom": "0x00000004020000000000000000000000000100000000000000200000000000000000000000200004000000000000000000000000000000040000000c00040000000000000000000000001000005400000000000000040000000000000004000000000000020000000000000000000800004000000000000000004000000000000000000000000000000800000000088000000080000084000000000000000000000000000000000000802000000000000000400000000000209000000000000000000000000000008000000020101002000000000004000300800400000060010000000000000000000100000000000000000000000000008000000800000000",
      "type": "0x2",
      "transactionHash": "0x9997e50c683a736a6374f99271fe27bfc512b97c7f0bfd46a5fdb6d32cad997e",
      "transactionIndex": "0x2f",
      "blockHash": "0x962201d543db661d23687762a285f2050cad33cf78f0bb7ccd68284108719b75",
      "blockNumber": "0x75e78",
      "gasUsed": "0xa2f53",
      "effectiveGasPrice": "0x8ed61cb",
      "from": "0x369abe773328a9aa2bb48b0d6f7d4bca58959eab",
      "to": "0x96908409c0110116a408b1640d7314687d6e498a",
      "contractAddress": null
    }
  ],
  "libraries": [],
  "pending": [],
  "returns": {},
  "timestamp": 1731341792,
  "chain": 1516,
  "commit": "906839e"
}