{
  "transactions": [
    {
      "hash": "0x5b98a8d92307f936afbb2e7a19a2b2b03c93d9d4c0419de514456d27ac7d27ab",
      "transactionType": "CALL",
      "contractName": null,
      "contractAddress": "0xa9a2a89c0142a70532fd59c60187122b657019d9",
      "function": "createComposableSPG((string,string,string,string,uint32,uint256,address,address,address,bool,bool))",
      "arguments": [
        "(Storynames Logo, NSLOGO, https://api.storyname.space/metadata/, https://rose-occupational-bee-58.mypinata.cloud/ipfs/QmQp6dssRXAixVnruoDE1tUbMFbKF5dtM6L3yq9gfJNTYu, 1000000000, 0, 0x0000000000000000000000000000000000000000, 0x0000000000000000000000000000000000000000, 0x369Abe773328A9Aa2bb48B0D6F7D4bca58959EAb, true, true)"
      ],
      "transaction": {
        "from": "0x369abe773328a9aa2bb48b0d6f7d4bca58959eab",
        "to": "0xa9a2a89c0142a70532fd59c60187122b657019d9",
        "gas": "0x108bd1",
        "value": "0x0",
        "input": "0xb934751b0000000000000000000000000000000000000000000000000000000000000020000000000000000000000000000000000000000000000000000000000000016000000000000000000000000000000000000000000000000000000000000001a000000000000000000000000000000000000000000000000000000000000001e00000000000000000000000000000000000000000000000000000000000000240000000000000000000000000000000000000000000000000000000003b9aca00000000000000000000000000000000000000000000000000000000000000000000000000000000000000000000000000000000000000000000000000000000000000000000000000000000000000000000000000000000000000000000000000000000000000000000000000369abe773328a9aa2bb48b0d6f7d4bca58959eab00000000000000000000000000000000000000000000000000000000000000010000000000000000000000000000000000000000000000000000000000000001000000000000000000000000000000000000000000000000000000000000000f53746f72796e616d6573204c6f676f000000000000000000000000000000000000000000000000000000000000000000000000000000000000000000000000064e534c4f474f0000000000000000000000000000000000000000000000000000000000000000000000000000000000000000000000000000000000000000002568747470733a2f2f6170692e73746f72796e616d652e73706163652f6d657461646174612f000000000000000000000000000000000000000000000000000000000000000000000000000000000000000000000000000000000000000000006368747470733a2f2f726f73652d6f636375706174696f6e616c2d6265652d35382e6d7970696e6174612e636c6f75642f697066732f516d5170366473735258416978566e72756f4445317455624d46624b463564744d364c3379713967664a4e5459750000000000000000000000000000000000000000000000000000000000",
        "nonce": "0x92",
        "chainId": "0x5ec"
      },
      "additionalContracts": [],
      "isFixedGasLimit": false
    }
  ],
  "receipts": [
    {
      "status": "0x1",
      "cumulativeGasUsed": "0x43f08b",
      "logs": [
        {
          "address": "0x4b334a66e2fcc7795bc6ee4fe3ce938c3619237e",
          "topics": [
            "0x1cf3b03a6cf19fa2baba4df148e9dcabedea7f8a5c07840e207e5c089be95d3e",
            "0x000000000000000000000000fafba5ed48bed74de01c36def4cb1f083eeccebb"
          ],
          "data": "0x",
          "blockHash": "0x43946d76b1e022491c6517e2603bed3a55eb473f8dd6611481958957f520d67c",
          "blockNumber": "0xb3139",
          "transactionHash": "0x5b98a8d92307f936afbb2e7a19a2b2b03c93d9d4c0419de514456d27ac7d27ab",
          "transactionIndex": "0x18",
          "logIndex": "0x4e",
          "removed": false
        },
        {
          "address": "0x4b334a66e2fcc7795bc6ee4fe3ce938c3619237e",
          "topics": [
            "0x2f8788117e7eff1d82e926ec794901d17c78024a50270940304540a733656f0d",
            "0x0000000000000000000000000000000000000000000000000000000000000000",
            "0x000000000000000000000000369abe773328a9aa2bb48b0d6f7d4bca58959eab",
            "0x000000000000000000000000a9a2a89c0142a70532fd59c60187122b657019d9"
          ],
          "data": "0x",
          "blockHash": "0x43946d76b1e022491c6517e2603bed3a55eb473f8dd6611481958957f520d67c",
          "blockNumber": "0xb3139",
          "transactionHash": "0x5b98a8d92307f936afbb2e7a19a2b2b03c93d9d4c0419de514456d27ac7d27ab",
          "transactionIndex": "0x18",
          "logIndex": "0x4f",
          "removed": false
        },
        {
          "address": "0x4b334a66e2fcc7795bc6ee4fe3ce938c3619237e",
          "topics": [
            "0x2f8788117e7eff1d82e926ec794901d17c78024a50270940304540a733656f0d",
            "0x0000000000000000000000000000000000000000000000000000000000000001",
            "0x000000000000000000000000369abe773328a9aa2bb48b0d6f7d4bca58959eab",
            "0x000000000000000000000000a9a2a89c0142a70532fd59c60187122b657019d9"
          ],
          "data": "0x",
          "blockHash": "0x43946d76b1e022491c6517e2603bed3a55eb473f8dd6611481958957f520d67c",
          "blockNumber": "0xb3139",
          "transactionHash": "0x5b98a8d92307f936afbb2e7a19a2b2b03c93d9d4c0419de514456d27ac7d27ab",
          "transactionIndex": "0x18",
          "logIndex": "0x50",
          "removed": false
        },
        {
          "address": "0x4b334a66e2fcc7795bc6ee4fe3ce938c3619237e",
          "topics": [
            "0x2f8788117e7eff1d82e926ec794901d17c78024a50270940304540a733656f0d",
            "0x0000000000000000000000000000000000000000000000000000000000000000",
            "0x000000000000000000000000a8815ceb96857ffb8f5f8ce920b1ae6d70254c7b",
            "0x000000000000000000000000a9a2a89c0142a70532fd59c60187122b657019d9"
          ],
          "data": "0x",
          "blockHash": "0x43946d76b1e022491c6517e2603bed3a55eb473f8dd6611481958957f520d67c",
          "blockNumber": "0xb3139",
          "transactionHash": "0x5b98a8d92307f936afbb2e7a19a2b2b03c93d9d4c0419de514456d27ac7d27ab",
          "transactionIndex": "0x18",
          "logIndex": "0x51",
          "removed": false
        },
        {
          "address": "0x4b334a66e2fcc7795bc6ee4fe3ce938c3619237e",
          "topics": [
            "0x2f8788117e7eff1d82e926ec794901d17c78024a50270940304540a733656f0d",
            "0x0000000000000000000000000000000000000000000000000000000000000001",
            "0x000000000000000000000000a8815ceb96857ffb8f5f8ce920b1ae6d70254c7b",
            "0x000000000000000000000000a9a2a89c0142a70532fd59c60187122b657019d9"
          ],
          "data": "0x",
          "blockHash": "0x43946d76b1e022491c6517e2603bed3a55eb473f8dd6611481958957f520d67c",
          "blockNumber": "0xb3139",
          "transactionHash": "0x5b98a8d92307f936afbb2e7a19a2b2b03c93d9d4c0419de514456d27ac7d27ab",
          "transactionIndex": "0x18",
          "logIndex": "0x52",
          "removed": false
        },
        {
          "address": "0x4b334a66e2fcc7795bc6ee4fe3ce938c3619237e",
          "topics": [
            "0x2f8788117e7eff1d82e926ec794901d17c78024a50270940304540a733656f0d",
            "0x0000000000000000000000000000000000000000000000000000000000000000",
            "0x000000000000000000000000cd754994ebe5ce16d432c1f936f98ac0d4aaba0e",
            "0x000000000000000000000000a9a2a89c0142a70532fd59c60187122b657019d9"
          ],
          "data": "0x",
          "blockHash": "0x43946d76b1e022491c6517e2603bed3a55eb473f8dd6611481958957f520d67c",
          "blockNumber": "0xb3139",
          "transactionHash": "0x5b98a8d92307f936afbb2e7a19a2b2b03c93d9d4c0419de514456d27ac7d27ab",
          "transactionIndex": "0x18",
          "logIndex": "0x53",
          "removed": false
        },
        {
          "address": "0x4b334a66e2fcc7795bc6ee4fe3ce938c3619237e",
          "topics": [
            "0x2f8788117e7eff1d82e926ec794901d17c78024a50270940304540a733656f0d",
            "0x0000000000000000000000000000000000000000000000000000000000000001",
            "0x000000000000000000000000cd754994ebe5ce16d432c1f936f98ac0d4aaba0e",
            "0x000000000000000000000000a9a2a89c0142a70532fd59c60187122b657019d9"
          ],
          "data": "0x",
          "blockHash": "0x43946d76b1e022491c6517e2603bed3a55eb473f8dd6611481958957f520d67c",
          "blockNumber": "0xb3139",
          "transactionHash": "0x5b98a8d92307f936afbb2e7a19a2b2b03c93d9d4c0419de514456d27ac7d27ab",
          "transactionIndex": "0x18",
          "logIndex": "0x54",
          "removed": false
        },
        {
          "address": "0x4b334a66e2fcc7795bc6ee4fe3ce938c3619237e",
          "topics": [
            "0x2f8788117e7eff1d82e926ec794901d17c78024a50270940304540a733656f0d",
            "0x0000000000000000000000000000000000000000000000000000000000000000",
            "0x00000000000000000000000044bad1e4035a44eac1606b222873e4a85e8b7d9c",
            "0x000000000000000000000000a9a2a89c0142a70532fd59c60187122b657019d9"
          ],
          "data": "0x",
          "blockHash": "0x43946d76b1e022491c6517e2603bed3a55eb473f8dd6611481958957f520d67c",
          "blockNumber": "0xb3139",
          "transactionHash": "0x5b98a8d92307f936afbb2e7a19a2b2b03c93d9d4c0419de514456d27ac7d27ab",
          "transactionIndex": "0x18",
          "logIndex": "0x55",
          "removed": false
        },
        {
          "address": "0x4b334a66e2fcc7795bc6ee4fe3ce938c3619237e",
          "topics": [
            "0x2f8788117e7eff1d82e926ec794901d17c78024a50270940304540a733656f0d",
            "0x0000000000000000000000000000000000000000000000000000000000000001",
            "0x00000000000000000000000044bad1e4035a44eac1606b222873e4a85e8b7d9c",
            "0x000000000000000000000000a9a2a89c0142a70532fd59c60187122b657019d9"
          ],
          "data": "0x",
          "blockHash": "0x43946d76b1e022491c6517e2603bed3a55eb473f8dd6611481958957f520d67c",
          "blockNumber": "0xb3139",
          "transactionHash": "0x5b98a8d92307f936afbb2e7a19a2b2b03c93d9d4c0419de514456d27ac7d27ab",
          "transactionIndex": "0x18",
          "logIndex": "0x56",
          "removed": false
        },
        {
          "address": "0x4b334a66e2fcc7795bc6ee4fe3ce938c3619237e",
          "topics": [
            "0x2f8788117e7eff1d82e926ec794901d17c78024a50270940304540a733656f0d",
            "0x0000000000000000000000000000000000000000000000000000000000000000",
            "0x000000000000000000000000de13be395e1cd753471447cf6a656979ef87881c",
            "0x000000000000000000000000a9a2a89c0142a70532fd59c60187122b657019d9"
          ],
          "data": "0x",
          "blockHash": "0x43946d76b1e022491c6517e2603bed3a55eb473f8dd6611481958957f520d67c",
          "blockNumber": "0xb3139",
          "transactionHash": "0x5b98a8d92307f936afbb2e7a19a2b2b03c93d9d4c0419de514456d27ac7d27ab",
          "transactionIndex": "0x18",
          "logIndex": "0x57",
          "removed": false
        },
        {
          "address": "0x4b334a66e2fcc7795bc6ee4fe3ce938c3619237e",
          "topics": [
            "0x2f8788117e7eff1d82e926ec794901d17c78024a50270940304540a733656f0d",
            "0x0000000000000000000000000000000000000000000000000000000000000001",
            "0x000000000000000000000000de13be395e1cd753471447cf6a656979ef87881c",
            "0x000000000000000000000000a9a2a89c0142a70532fd59c60187122b657019d9"
          ],
          "data": "0x",
          "blockHash": "0x43946d76b1e022491c6517e2603bed3a55eb473f8dd6611481958957f520d67c",
          "blockNumber": "0xb3139",
          "transactionHash": "0x5b98a8d92307f936afbb2e7a19a2b2b03c93d9d4c0419de514456d27ac7d27ab",
          "transactionIndex": "0x18",
          "logIndex": "0x58",
          "removed": false
        },
        {
          "address": "0x4b334a66e2fcc7795bc6ee4fe3ce938c3619237e",
          "topics": [
            "0xc7f505b2f371ae2175ee4913f4499e1f2633a7b5936321eed1cdaeb6115181d2"
          ],
          "data": "0x0000000000000000000000000000000000000000000000000000000000000001",
          "blockHash": "0x43946d76b1e022491c6517e2603bed3a55eb473f8dd6611481958957f520d67c",
          "blockNumber": "0xb3139",
          "transactionHash": "0x5b98a8d92307f936afbb2e7a19a2b2b03c93d9d4c0419de514456d27ac7d27ab",
          "transactionIndex": "0x18",
          "logIndex": "0x59",
          "removed": false
        },
        {
          "address": "0xa9a2a89c0142a70532fd59c60187122b657019d9",
          "topics": [
            "0x68c2aee2986f58d77e87c1faf99e7dfd6cdc0998ea3c6278d3d8013291a7cdfa",
            "0x0000000000000000000000004b334a66e2fcc7795bc6ee4fe3ce938c3619237e"
          ],
          "data": "0x000000000000000000000000000000000000000000000000000000000000006000000000000000000000000000000000000000000000000000000000000000a000000000000000000000000000000000000000000000000000000000000000e0000000000000000000000000000000000000000000000000000000000000000f53746f72796e616d6573204c6f676f000000000000000000000000000000000000000000000000000000000000000000000000000000000000000000000000064e534c4f474f0000000000000000000000000000000000000000000000000000000000000000000000000000000000000000000000000000000000000000006368747470733a2f2f726f73652d6f636375706174696f6e616c2d6265652d35382e6d7970696e6174612e636c6f75642f697066732f516d5170366473735258416978566e72756f4445317455624d46624b463564744d364c3379713967664a4e5459750000000000000000000000000000000000000000000000000000000000",
          "blockHash": "0x43946d76b1e022491c6517e2603bed3a55eb473f8dd6611481958957f520d67c",
          "blockNumber": "0xb3139",
          "transactionHash": "0x5b98a8d92307f936afbb2e7a19a2b2b03c93d9d4c0419de514456d27ac7d27ab",
          "transactionIndex": "0x18",
          "logIndex": "0x5a",
          "removed": false
        }
      ],
      "logsBloom": "0x00000004000000000000000000000000000100000000000000200000000000000000010000000004000000000000000100000000000000000000000000040000000000000000000000001000045408000000000000040000000000000004000000000000020000000000000000000800014000000000000000004000000000000000000000000000000800000c0008000000008000008c000000000000000000000000000000000000800010002000000000400000000080201020000000000000000000100000008000000000001000000000000004000300800000800060010000000000000000000000000000000000000000000000000000000000000010",
      "type": "0x2",
      "transactionHash": "0x5b98a8d92307f936afbb2e7a19a2b2b03c93d9d4c0419de514456d27ac7d27ab",
      "transactionIndex": "0x18",
      "blockHash": "0x43946d76b1e022491c6517e2603bed3a55eb473f8dd6611481958957f520d67c",
      "blockNumber": "0xb3139",
      "gasUsed": "0xb50df",
      "effectiveGasPrice": "0x3b9af55ec",
      "from": "0x369abe773328a9aa2bb48b0d6f7d4bca58959eab",
      "to": "0xa9a2a89c0142a70532fd59c60187122b657019d9",
      "contractAddress": null
    }
  ],
  "libraries": [],
  "pending": [],
  "returns": {},
  "timestamp": 1732240964,
  "chain": 1516,
  "commit": "906839e"
}