{
  "transactions": [
    {
      "hash": "0x809fee86fd5e593e73aef8f72d05bf41d35d4c819e2e5c87dc42dd8301921a6e",
      "transactionType": "CALL",
      "contractName": null,
      "contractAddress": "0x12444bbb51a8813062aa498f7c4758aaab674b33",
      "function": "createComposableSPG((string,string,string,string,uint32,uint256,address,address,address,bool,bool))",
      "arguments": [
        "(MyComposableSPG, MCSPG, https://example.com/metadata/, https://example.com/contract-metadata, 10000, 10000000000000000, 0xC0F6E387aC0B324Ec18EAcf22EE7271207dCE3d5, 0x369Abe773328A9Aa2bb48B0D6F7D4bca58959EAb, 0x369Abe773328A9Aa2bb48B0D6F7D4bca58959EAb, true, true)"
      ],
      "transaction": {
        "from": "0x369abe773328a9aa2bb48b0d6f7d4bca58959eab",
        "to": "0x12444bbb51a8813062aa498f7c4758aaab674b33",
        "gas": "0xfcbde",
        "value": "0x0",
        "input": "0xb934751b0000000000000000000000000000000000000000000000000000000000000020000000000000000000000000000000000000000000000000000000000000016000000000000000000000000000000000000000000000000000000000000001a000000000000000000000000000000000000000000000000000000000000001e000000000000000000000000000000000000000000000000000000000000002200000000000000000000000000000000000000000000000000000000000002710000000000000000000000000000000000000000000000000002386f26fc10000000000000000000000000000c0f6e387ac0b324ec18eacf22ee7271207dce3d5000000000000000000000000369abe773328a9aa2bb48b0d6f7d4bca58959eab000000000000000000000000369abe773328a9aa2bb48b0d6f7d4bca58959eab00000000000000000000000000000000000000000000000000000000000000010000000000000000000000000000000000000000000000000000000000000001000000000000000000000000000000000000000000000000000000000000000f4d79436f6d706f7361626c65535047000000000000000000000000000000000000000000000000000000000000000000000000000000000000000000000000054d43535047000000000000000000000000000000000000000000000000000000000000000000000000000000000000000000000000000000000000000000001d68747470733a2f2f6578616d706c652e636f6d2f6d657461646174612f000000000000000000000000000000000000000000000000000000000000000000002568747470733a2f2f6578616d706c652e636f6d2f636f6e74726163742d6d65746164617461000000000000000000000000000000000000000000000000000000",
        "nonce": "0x11",
        "chainId": "0x5ec"
      },
      "additionalContracts": [],
      "isFixedGasLimit": false
    }
  ],
  "receipts": [
    {
      "status": "0x1",
      "cumulativeGasUsed": "0x391859",
      "logs": [
        {
          "address": "0x2d00104f1457a72df87b3cee67b83bffede860b8",
          "topics": [
            "0x1cf3b03a6cf19fa2baba4df148e9dcabedea7f8a5c07840e207e5c089be95d3e",
            "0x0000000000000000000000000aa75b550a9eb6fabd1bc26af9842d99a754d9c4"
          ],
          "data": "0x",
          "blockHash": "0xc36573b92051a21804dcf16a1bc1da8b199ccbdd62e71f875f3c57c20b569ea3",
          "blockNumber": "0x67184",
          "transactionHash": "0x809fee86fd5e593e73aef8f72d05bf41d35d4c819e2e5c87dc42dd8301921a6e",
          "transactionIndex": "0xf",
          "logIndex": "0x2b",
          "removed": false
        },
        {
          "address": "0x2d00104f1457a72df87b3cee67b83bffede860b8",
          "topics": [
            "0x2f8788117e7eff1d82e926ec794901d17c78024a50270940304540a733656f0d",
            "0x0000000000000000000000000000000000000000000000000000000000000000",
            "0x000000000000000000000000369abe773328a9aa2bb48b0d6f7d4bca58959eab",
            "0x00000000000000000000000012444bbb51a8813062aa498f7c4758aaab674b33"
          ],
          "data": "0x",
          "blockHash": "0xc36573b92051a21804dcf16a1bc1da8b199ccbdd62e71f875f3c57c20b569ea3",
          "blockNumber": "0x67184",
          "transactionHash": "0x809fee86fd5e593e73aef8f72d05bf41d35d4c819e2e5c87dc42dd8301921a6e",
          "transactionIndex": "0xf",
          "logIndex": "0x2c",
          "removed": false
        },
        {
          "address": "0x2d00104f1457a72df87b3cee67b83bffede860b8",
          "topics": [
            "0x2f8788117e7eff1d82e926ec794901d17c78024a50270940304540a733656f0d",
            "0x0000000000000000000000000000000000000000000000000000000000000001",
            "0x000000000000000000000000369abe773328a9aa2bb48b0d6f7d4bca58959eab",
            "0x00000000000000000000000012444bbb51a8813062aa498f7c4758aaab674b33"
          ],
          "data": "0x",
          "blockHash": "0xc36573b92051a21804dcf16a1bc1da8b199ccbdd62e71f875f3c57c20b569ea3",
          "blockNumber": "0x67184",
          "transactionHash": "0x809fee86fd5e593e73aef8f72d05bf41d35d4c819e2e5c87dc42dd8301921a6e",
          "transactionIndex": "0xf",
          "logIndex": "0x2d",
          "removed": false
        },
        {
          "address": "0x2d00104f1457a72df87b3cee67b83bffede860b8",
          "topics": [
            "0x2f8788117e7eff1d82e926ec794901d17c78024a50270940304540a733656f0d",
            "0x0000000000000000000000000000000000000000000000000000000000000000",
            "0x000000000000000000000000a8815ceb96857ffb8f5f8ce920b1ae6d70254c7b",
            "0x00000000000000000000000012444bbb51a8813062aa498f7c4758aaab674b33"
          ],
          "data": "0x",
          "blockHash": "0xc36573b92051a21804dcf16a1bc1da8b199ccbdd62e71f875f3c57c20b569ea3",
          "blockNumber": "0x67184",
          "transactionHash": "0x809fee86fd5e593e73aef8f72d05bf41d35d4c819e2e5c87dc42dd8301921a6e",
          "transactionIndex": "0xf",
          "logIndex": "0x2e",
          "removed": false
        },
        {
          "address": "0x2d00104f1457a72df87b3cee67b83bffede860b8",
          "topics": [
            "0x2f8788117e7eff1d82e926ec794901d17c78024a50270940304540a733656f0d",
            "0x0000000000000000000000000000000000000000000000000000000000000001",
            "0x000000000000000000000000a8815ceb96857ffb8f5f8ce920b1ae6d70254c7b",
            "0x00000000000000000000000012444bbb51a8813062aa498f7c4758aaab674b33"
          ],
          "data": "0x",
          "blockHash": "0xc36573b92051a21804dcf16a1bc1da8b199ccbdd62e71f875f3c57c20b569ea3",
          "blockNumber": "0x67184",
          "transactionHash": "0x809fee86fd5e593e73aef8f72d05bf41d35d4c819e2e5c87dc42dd8301921a6e",
          "transactionIndex": "0xf",
          "logIndex": "0x2f",
          "removed": false
        },
        {
          "address": "0x2d00104f1457a72df87b3cee67b83bffede860b8",
          "topics": [
            "0x2f8788117e7eff1d82e926ec794901d17c78024a50270940304540a733656f0d",
            "0x0000000000000000000000000000000000000000000000000000000000000000",
            "0x000000000000000000000000cd754994ebe5ce16d432c1f936f98ac0d4aaba0e",
            "0x00000000000000000000000012444bbb51a8813062aa498f7c4758aaab674b33"
          ],
          "data": "0x",
          "blockHash": "0xc36573b92051a21804dcf16a1bc1da8b199ccbdd62e71f875f3c57c20b569ea3",
          "blockNumber": "0x67184",
          "transactionHash": "0x809fee86fd5e593e73aef8f72d05bf41d35d4c819e2e5c87dc42dd8301921a6e",
          "transactionIndex": "0xf",
          "logIndex": "0x30",
          "removed": false
        },
        {
          "address": "0x2d00104f1457a72df87b3cee67b83bffede860b8",
          "topics": [
            "0x2f8788117e7eff1d82e926ec794901d17c78024a50270940304540a733656f0d",
            "0x0000000000000000000000000000000000000000000000000000000000000001",
            "0x000000000000000000000000cd754994ebe5ce16d432c1f936f98ac0d4aaba0e",
            "0x00000000000000000000000012444bbb51a8813062aa498f7c4758aaab674b33"
          ],
          "data": "0x",
          "blockHash": "0xc36573b92051a21804dcf16a1bc1da8b199ccbdd62e71f875f3c57c20b569ea3",
          "blockNumber": "0x67184",
          "transactionHash": "0x809fee86fd5e593e73aef8f72d05bf41d35d4c819e2e5c87dc42dd8301921a6e",
          "transactionIndex": "0xf",
          "logIndex": "0x31",
          "removed": false
        },
        {
          "address": "0x2d00104f1457a72df87b3cee67b83bffede860b8",
          "topics": [
            "0x2f8788117e7eff1d82e926ec794901d17c78024a50270940304540a733656f0d",
            "0x0000000000000000000000000000000000000000000000000000000000000000",
            "0x00000000000000000000000044bad1e4035a44eac1606b222873e4a85e8b7d9c",
            "0x00000000000000000000000012444bbb51a8813062aa498f7c4758aaab674b33"
          ],
          "data": "0x",
          "blockHash": "0xc36573b92051a21804dcf16a1bc1da8b199ccbdd62e71f875f3c57c20b569ea3",
          "blockNumber": "0x67184",
          "transactionHash": "0x809fee86fd5e593e73aef8f72d05bf41d35d4c819e2e5c87dc42dd8301921a6e",
          "transactionIndex": "0xf",
          "logIndex": "0x32",
          "removed": false
        },
        {
          "address": "0x2d00104f1457a72df87b3cee67b83bffede860b8",
          "topics": [
            "0x2f8788117e7eff1d82e926ec794901d17c78024a50270940304540a733656f0d",
            "0x0000000000000000000000000000000000000000000000000000000000000001",
            "0x00000000000000000000000044bad1e4035a44eac1606b222873e4a85e8b7d9c",
            "0x00000000000000000000000012444bbb51a8813062aa498f7c4758aaab674b33"
          ],
          "data": "0x",
          "blockHash": "0xc36573b92051a21804dcf16a1bc1da8b199ccbdd62e71f875f3c57c20b569ea3",
          "blockNumber": "0x67184",
          "transactionHash": "0x809fee86fd5e593e73aef8f72d05bf41d35d4c819e2e5c87dc42dd8301921a6e",
          "transactionIndex": "0xf",
          "logIndex": "0x33",
          "removed": false
        },
        {
          "address": "0x2d00104f1457a72df87b3cee67b83bffede860b8",
          "topics": [
            "0x2f8788117e7eff1d82e926ec794901d17c78024a50270940304540a733656f0d",
            "0x0000000000000000000000000000000000000000000000000000000000000000",
            "0x000000000000000000000000de13be395e1cd753471447cf6a656979ef87881c",
            "0x00000000000000000000000012444bbb51a8813062aa498f7c4758aaab674b33"
          ],
          "data": "0x",
          "blockHash": "0xc36573b92051a21804dcf16a1bc1da8b199ccbdd62e71f875f3c57c20b569ea3",
          "blockNumber": "0x67184",
          "transactionHash": "0x809fee86fd5e593e73aef8f72d05bf41d35d4c819e2e5c87dc42dd8301921a6e",
          "transactionIndex": "0xf",
          "logIndex": "0x34",
          "removed": false
        },
        {
          "address": "0x2d00104f1457a72df87b3cee67b83bffede860b8",
          "topics": [
            "0x2f8788117e7eff1d82e926ec794901d17c78024a50270940304540a733656f0d",
            "0x0000000000000000000000000000000000000000000000000000000000000001",
            "0x000000000000000000000000de13be395e1cd753471447cf6a656979ef87881c",
            "0x00000000000000000000000012444bbb51a8813062aa498f7c4758aaab674b33"
          ],
          "data": "0x",
          "blockHash": "0xc36573b92051a21804dcf16a1bc1da8b199ccbdd62e71f875f3c57c20b569ea3",
          "blockNumber": "0x67184",
          "transactionHash": "0x809fee86fd5e593e73aef8f72d05bf41d35d4c819e2e5c87dc42dd8301921a6e",
          "transactionIndex": "0xf",
          "logIndex": "0x35",
          "removed": false
        },
        {
          "address": "0x2d00104f1457a72df87b3cee67b83bffede860b8",
          "topics": [
            "0xc7f505b2f371ae2175ee4913f4499e1f2633a7b5936321eed1cdaeb6115181d2"
          ],
          "data": "0x0000000000000000000000000000000000000000000000000000000000000001",
          "blockHash": "0xc36573b92051a21804dcf16a1bc1da8b199ccbdd62e71f875f3c57c20b569ea3",
          "blockNumber": "0x67184",
          "transactionHash": "0x809fee86fd5e593e73aef8f72d05bf41d35d4c819e2e5c87dc42dd8301921a6e",
          "transactionIndex": "0xf",
          "logIndex": "0x36",
          "removed": false
        },
        {
          "address": "0x12444bbb51a8813062aa498f7c4758aaab674b33",
          "topics": [
            "0x68c2aee2986f58d77e87c1faf99e7dfd6cdc0998ea3c6278d3d8013291a7cdfa",
            "0x0000000000000000000000002d00104f1457a72df87b3cee67b83bffede860b8"
          ],
          "data": "0x000000000000000000000000000000000000000000000000000000000000006000000000000000000000000000000000000000000000000000000000000000a000000000000000000000000000000000000000000000000000000000000000e0000000000000000000000000000000000000000000000000000000000000000f4d79436f6d706f7361626c65535047000000000000000000000000000000000000000000000000000000000000000000000000000000000000000000000000054d43535047000000000000000000000000000000000000000000000000000000000000000000000000000000000000000000000000000000000000000000002568747470733a2f2f6578616d706c652e636f6d2f636f6e74726163742d6d65746164617461000000000000000000000000000000000000000000000000000000",
          "blockHash": "0xc36573b92051a21804dcf16a1bc1da8b199ccbdd62e71f875f3c57c20b569ea3",
          "blockNumber": "0x67184",
          "transactionHash": "0x809fee86fd5e593e73aef8f72d05bf41d35d4c819e2e5c87dc42dd8301921a6e",
          "transactionIndex": "0xf",
          "logIndex": "0x37",
          "removed": false
        }
      ],
      "logsBloom": "0x00000004000000000000000000000000000100000000000000200000000000800000080000000004000040000000000000000000000000000000000000040000000000000000000008001000005400000000000000040000000000000004000000000000020000200000000000000800004000000000020000004000000000000000000000000000020800000000080000000080000084000000000000008000000010004000000000800000000000000000400008000000201000000000000000000000000000008000000000001010000000000004000300804004000060010000000000000000000000000000000000000000000008000000000000000000",
      "type": "0x2",
      "transactionHash": "0x809fee86fd5e593e73aef8f72d05bf41d35d4c819e2e5c87dc42dd8301921a6e",
      "transactionIndex": "0xf",
      "blockHash": "0xc36573b92051a21804dcf16a1bc1da8b199ccbdd62e71f875f3c57c20b569ea3",
      "blockNumber": "0x67184",
      "gasUsed": "0xacd9a",
      "effectiveGasPrice": "0x4d7c6cfa",
      "from": "0x369abe773328a9aa2bb48b0d6f7d4bca58959eab",
      "to": "0x12444bbb51a8813062aa498f7c4758aaab674b33",
      "contractAddress": null
    }
  ],
  "libraries": [],
  "pending": [],
  "returns": {},
  "timestamp": 1731144904,
  "chain": 1516,
  "commit": "ea0f85d"
}