{
  "transactions": [
    {
      "hash": "0x564ef2403bce47686f9808e7a76dacdf3e004a59a5618e98049f9aa3669ce0b3",
      "transactionType": "CALL",
      "contractName": null,
      "contractAddress": "0x667fb11088fbd7ee87f2273566dc16889e81e411",
      "function": "createComposableSPG((string,string,string,string,uint32,uint256,address,address,address,bool,bool))",
      "arguments": [
        "(MyComposableSPG, MCSPG, https://example.com/metadata/, https://example.com/contract-metadata, 100000, 0, 0x0000000000000000000000000000000000000000, 0x0000000000000000000000000000000000000000, 0x369Abe773328A9Aa2bb48B0D6F7D4bca58959EAb, true, true)"
      ],
      "transaction": {
        "from": "0x369abe773328a9aa2bb48b0d6f7d4bca58959eab",
        "to": "0x667fb11088fbd7ee87f2273566dc16889e81e411",
        "gas": "0xee463",
        "value": "0x0",
        "input": "0xb934751b0000000000000000000000000000000000000000000000000000000000000020000000000000000000000000000000000000000000000000000000000000016000000000000000000000000000000000000000000000000000000000000001a000000000000000000000000000000000000000000000000000000000000001e0000000000000000000000000000000000000000000000000000000000000022000000000000000000000000000000000000000000000000000000000000186a0000000000000000000000000000000000000000000000000000000000000000000000000000000000000000000000000000000000000000000000000000000000000000000000000000000000000000000000000000000000000000000000000000000000000000000000000369abe773328a9aa2bb48b0d6f7d4bca58959eab00000000000000000000000000000000000000000000000000000000000000010000000000000000000000000000000000000000000000000000000000000001000000000000000000000000000000000000000000000000000000000000000f4d79436f6d706f7361626c65535047000000000000000000000000000000000000000000000000000000000000000000000000000000000000000000000000054d43535047000000000000000000000000000000000000000000000000000000000000000000000000000000000000000000000000000000000000000000001d68747470733a2f2f6578616d706c652e636f6d2f6d657461646174612f000000000000000000000000000000000000000000000000000000000000000000002568747470733a2f2f6578616d706c652e636f6d2f636f6e74726163742d6d65746164617461000000000000000000000000000000000000000000000000000000",
        "nonce": "0x2f",
        "chainId": "0x5ec"
      },
      "additionalContracts": [],
      "isFixedGasLimit": false
    }
  ],
  "receipts": [
    {
      "status": "0x1",
      "cumulativeGasUsed": "0x2139e6",
      "logs": [
        {
          "address": "0xaca6b0cf209e28967fefc26d930361751f8f0293",
          "topics": [
            "0x1cf3b03a6cf19fa2baba4df148e9dcabedea7f8a5c07840e207e5c089be95d3e",
            "0x0000000000000000000000004a055ab24648345d3af27795ecf83875500a9e10"
          ],
          "data": "0x",
          "blockHash": "0xaf3191b949a613c681d7f344ae37329f9a4c01d8805da25103cdd6f11f3b801f",
          "blockNumber": "0x7652d",
          "transactionHash": "0x564ef2403bce47686f9808e7a76dacdf3e004a59a5618e98049f9aa3669ce0b3",
          "transactionIndex": "0x9",
          "logIndex": "0x1a",
          "removed": false
        },
        {
          "address": "0xaca6b0cf209e28967fefc26d930361751f8f0293",
          "topics": [
            "0x2f8788117e7eff1d82e926ec794901d17c78024a50270940304540a733656f0d",
            "0x0000000000000000000000000000000000000000000000000000000000000000",
            "0x000000000000000000000000369abe773328a9aa2bb48b0d6f7d4bca58959eab",
            "0x000000000000000000000000667fb11088fbd7ee87f2273566dc16889e81e411"
          ],
          "data": "0x",
          "blockHash": "0xaf3191b949a613c681d7f344ae37329f9a4c01d8805da25103cdd6f11f3b801f",
          "blockNumber": "0x7652d",
          "transactionHash": "0x564ef2403bce47686f9808e7a76dacdf3e004a59a5618e98049f9aa3669ce0b3",
          "transactionIndex": "0x9",
          "logIndex": "0x1b",
          "removed": false
        },
        {
          "address": "0xaca6b0cf209e28967fefc26d930361751f8f0293",
          "topics": [
            "0x2f8788117e7eff1d82e926ec794901d17c78024a50270940304540a733656f0d",
            "0x0000000000000000000000000000000000000000000000000000000000000001",
            "0x000000000000000000000000369abe773328a9aa2bb48b0d6f7d4bca58959eab",
            "0x000000000000000000000000667fb11088fbd7ee87f2273566dc16889e81e411"
          ],
          "data": "0x",
          "blockHash": "0xaf3191b949a613c681d7f344ae37329f9a4c01d8805da25103cdd6f11f3b801f",
          "blockNumber": "0x7652d",
          "transactionHash": "0x564ef2403bce47686f9808e7a76dacdf3e004a59a5618e98049f9aa3669ce0b3",
          "transactionIndex": "0x9",
          "logIndex": "0x1c",
          "removed": false
        },
        {
          "address": "0xaca6b0cf209e28967fefc26d930361751f8f0293",
          "topics": [
            "0x2f8788117e7eff1d82e926ec794901d17c78024a50270940304540a733656f0d",
            "0x0000000000000000000000000000000000000000000000000000000000000000",
            "0x000000000000000000000000a8815ceb96857ffb8f5f8ce920b1ae6d70254c7b",
            "0x000000000000000000000000667fb11088fbd7ee87f2273566dc16889e81e411"
          ],
          "data": "0x",
          "blockHash": "0xaf3191b949a613c681d7f344ae37329f9a4c01d8805da25103cdd6f11f3b801f",
          "blockNumber": "0x7652d",
          "transactionHash": "0x564ef2403bce47686f9808e7a76dacdf3e004a59a5618e98049f9aa3669ce0b3",
          "transactionIndex": "0x9",
          "logIndex": "0x1d",
          "removed": false
        },
        {
          "address": "0xaca6b0cf209e28967fefc26d930361751f8f0293",
          "topics": [
            "0x2f8788117e7eff1d82e926ec794901d17c78024a50270940304540a733656f0d",
            "0x0000000000000000000000000000000000000000000000000000000000000001",
            "0x000000000000000000000000a8815ceb96857ffb8f5f8ce920b1ae6d70254c7b",
            "0x000000000000000000000000667fb11088fbd7ee87f2273566dc16889e81e411"
          ],
          "data": "0x",
          "blockHash": "0xaf3191b949a613c681d7f344ae37329f9a4c01d8805da25103cdd6f11f3b801f",
          "blockNumber": "0x7652d",
          "transactionHash": "0x564ef2403bce47686f9808e7a76dacdf3e004a59a5618e98049f9aa3669ce0b3",
          "transactionIndex": "0x9",
          "logIndex": "0x1e",
          "removed": false
        },
        {
          "address": "0xaca6b0cf209e28967fefc26d930361751f8f0293",
          "topics": [
            "0x2f8788117e7eff1d82e926ec794901d17c78024a50270940304540a733656f0d",
            "0x0000000000000000000000000000000000000000000000000000000000000000",
            "0x000000000000000000000000cd754994ebe5ce16d432c1f936f98ac0d4aaba0e",
            "0x000000000000000000000000667fb11088fbd7ee87f2273566dc16889e81e411"
          ],
          "data": "0x",
          "blockHash": "0xaf3191b949a613c681d7f344ae37329f9a4c01d8805da25103cdd6f11f3b801f",
          "blockNumber": "0x7652d",
          "transactionHash": "0x564ef2403bce47686f9808e7a76dacdf3e004a59a5618e98049f9aa3669ce0b3",
          "transactionIndex": "0x9",
          "logIndex": "0x1f",
          "removed": false
        },
        {
          "address": "0xaca6b0cf209e28967fefc26d930361751f8f0293",
          "topics": [
            "0x2f8788117e7eff1d82e926ec794901d17c78024a50270940304540a733656f0d",
            "0x0000000000000000000000000000000000000000000000000000000000000001",
            "0x000000000000000000000000cd754994ebe5ce16d432c1f936f98ac0d4aaba0e",
            "0x000000000000000000000000667fb11088fbd7ee87f2273566dc16889e81e411"
          ],
          "data": "0x",
          "blockHash": "0xaf3191b949a613c681d7f344ae37329f9a4c01d8805da25103cdd6f11f3b801f",
          "blockNumber": "0x7652d",
          "transactionHash": "0x564ef2403bce47686f9808e7a76dacdf3e004a59a5618e98049f9aa3669ce0b3",
          "transactionIndex": "0x9",
          "logIndex": "0x20",
          "removed": false
        },
        {
          "address": "0xaca6b0cf209e28967fefc26d930361751f8f0293",
          "topics": [
            "0x2f8788117e7eff1d82e926ec794901d17c78024a50270940304540a733656f0d",
            "0x0000000000000000000000000000000000000000000000000000000000000000",
            "0x00000000000000000000000044bad1e4035a44eac1606b222873e4a85e8b7d9c",
            "0x000000000000000000000000667fb11088fbd7ee87f2273566dc16889e81e411"
          ],
          "data": "0x",
          "blockHash": "0xaf3191b949a613c681d7f344ae37329f9a4c01d8805da25103cdd6f11f3b801f",
          "blockNumber": "0x7652d",
          "transactionHash": "0x564ef2403bce47686f9808e7a76dacdf3e004a59a5618e98049f9aa3669ce0b3",
          "transactionIndex": "0x9",
          "logIndex": "0x21",
          "removed": false
        },
        {
          "address": "0xaca6b0cf209e28967fefc26d930361751f8f0293",
          "topics": [
            "0x2f8788117e7eff1d82e926ec794901d17c78024a50270940304540a733656f0d",
            "0x0000000000000000000000000000000000000000000000000000000000000001",
            "0x00000000000000000000000044bad1e4035a44eac1606b222873e4a85e8b7d9c",
            "0x000000000000000000000000667fb11088fbd7ee87f2273566dc16889e81e411"
          ],
          "data": "0x",
          "blockHash": "0xaf3191b949a613c681d7f344ae37329f9a4c01d8805da25103cdd6f11f3b801f",
          "blockNumber": "0x7652d",
          "transactionHash": "0x564ef2403bce47686f9808e7a76dacdf3e004a59a5618e98049f9aa3669ce0b3",
          "transactionIndex": "0x9",
          "logIndex": "0x22",
          "removed": false
        },
        {
          "address": "0xaca6b0cf209e28967fefc26d930361751f8f0293",
          "topics": [
            "0x2f8788117e7eff1d82e926ec794901d17c78024a50270940304540a733656f0d",
            "0x0000000000000000000000000000000000000000000000000000000000000000",
            "0x000000000000000000000000de13be395e1cd753471447cf6a656979ef87881c",
            "0x000000000000000000000000667fb11088fbd7ee87f2273566dc16889e81e411"
          ],
          "data": "0x",
          "blockHash": "0xaf3191b949a613c681d7f344ae37329f9a4c01d8805da25103cdd6f11f3b801f",
          "blockNumber": "0x7652d",
          "transactionHash": "0x564ef2403bce47686f9808e7a76dacdf3e004a59a5618e98049f9aa3669ce0b3",
          "transactionIndex": "0x9",
          "logIndex": "0x23",
          "removed": false
        },
        {
          "address": "0xaca6b0cf209e28967fefc26d930361751f8f0293",
          "topics": [
            "0x2f8788117e7eff1d82e926ec794901d17c78024a50270940304540a733656f0d",
            "0x0000000000000000000000000000000000000000000000000000000000000001",
            "0x000000000000000000000000de13be395e1cd753471447cf6a656979ef87881c",
            "0x000000000000000000000000667fb11088fbd7ee87f2273566dc16889e81e411"
          ],
          "data": "0x",
          "blockHash": "0xaf3191b949a613c681d7f344ae37329f9a4c01d8805da25103cdd6f11f3b801f",
          "blockNumber": "0x7652d",
          "transactionHash": "0x564ef2403bce47686f9808e7a76dacdf3e004a59a5618e98049f9aa3669ce0b3",
          "transactionIndex": "0x9",
          "logIndex": "0x24",
          "removed": false
        },
        {
          "address": "0xaca6b0cf209e28967fefc26d930361751f8f0293",
          "topics": [
            "0xc7f505b2f371ae2175ee4913f4499e1f2633a7b5936321eed1cdaeb6115181d2"
          ],
          "data": "0x0000000000000000000000000000000000000000000000000000000000000001",
          "blockHash": "0xaf3191b949a613c681d7f344ae37329f9a4c01d8805da25103cdd6f11f3b801f",
          "blockNumber": "0x7652d",
          "transactionHash": "0x564ef2403bce47686f9808e7a76dacdf3e004a59a5618e98049f9aa3669ce0b3",
          "transactionIndex": "0x9",
          "logIndex": "0x25",
          "removed": false
        },
        {
          "address": "0x667fb11088fbd7ee87f2273566dc16889e81e411",
          "topics": [
            "0x68c2aee2986f58d77e87c1faf99e7dfd6cdc0998ea3c6278d3d8013291a7cdfa",
            "0x000000000000000000000000aca6b0cf209e28967fefc26d930361751f8f0293"
          ],
          "data": "0x000000000000000000000000000000000000000000000000000000000000006000000000000000000000000000000000000000000000000000000000000000a000000000000000000000000000000000000000000000000000000000000000e0000000000000000000000000000000000000000000000000000000000000000f4d79436f6d706f7361626c65535047000000000000000000000000000000000000000000000000000000000000000000000000000000000000000000000000054d43535047000000000000000000000000000000000000000000000000000000000000000000000000000000000000000000000000000000000000000000002568747470733a2f2f6578616d706c652e636f6d2f636f6e74726163742d6d65746164617461000000000000000000000000000000000000000000000000000000",
          "blockHash": "0xaf3191b949a613c681d7f344ae37329f9a4c01d8805da25103cdd6f11f3b801f",
          "blockNumber": "0x7652d",
          "transactionHash": "0x564ef2403bce47686f9808e7a76dacdf3e004a59a5618e98049f9aa3669ce0b3",
          "transactionIndex": "0x9",
          "logIndex": "0x26",
          "removed": false
        }
      ],
      "logsBloom": "0x00000004000000000000000000000000000100000000000000200000000000000000000000000004000000000000000000000000000000000000000000040000000000000000000000001000005400000000000000040000000000000004000000000000020800000000000040000800004000000000000000004000000000040000004000000000000800000000080000000080000084000000000000004000000002000200000000800100000000400000408000000000a01000000000000000000000000000008040000000001000000000000044000300800000000060010000000000000000000000000000008000000000000000001000000000000000",
      "type": "0x2",
      "transactionHash": "0x564ef2403bce47686f9808e7a76dacdf3e004a59a5618e98049f9aa3669ce0b3",
      "transactionIndex": "0x9",
      "blockHash": "0xaf3191b949a613c681d7f344ae37329f9a4c01d8805da25103cdd6f11f3b801f",
      "blockNumber": "0x7652d",
      "gasUsed": "0xa2f53",
      "effectiveGasPrice": "0x8ed617a",
      "from": "0x369abe773328a9aa2bb48b0d6f7d4bca58959eab",
      "to": "0x667fb11088fbd7ee87f2273566dc16889e81e411",
      "contractAddress": null
    }
  ],
  "libraries": [],
  "pending": [],
  "returns": {},
  "timestamp": 1731347456,
  "chain": 1516,
  "commit": "906839e"
}