{
  "transactions": [
    {
      "hash": "0xe41a17b0f8b076b6b9165ad2f9362a863ed0ac5ae307bafe67af911851deaa79",
      "transactionType": "CALL",
      "contractName": null,
      "contractAddress": "0x56206e867225f46df24eab1f680e92c92f80a4ff",
      "function": "createComposableSPG((string,string,string,string,uint32,uint256,address,address,address,bool,bool))",
      "arguments": [
        "(Storynames Logo, NSLOGO, https://api.storyname.space/metadata/, https://rose-occupational-bee-58.mypinata.cloud/ipfs/QmQp6dssRXAixVnruoDE1tUbMFbKF5dtM6L3yq9gfJNTYu, 1000000000, 0, 0x0000000000000000000000000000000000000000, 0x0000000000000000000000000000000000000000, 0x369Abe773328A9Aa2bb48B0D6F7D4bca58959EAb, true, true)"
      ],
      "transaction": {
        "from": "0x369abe773328a9aa2bb48b0d6f7d4bca58959eab",
        "to": "0x56206e867225f46df24eab1f680e92c92f80a4ff",
        "gas": "0x108bd1",
        "value": "0x0",
        "input": "0xb934751b0000000000000000000000000000000000000000000000000000000000000020000000000000000000000000000000000000000000000000000000000000016000000000000000000000000000000000000000000000000000000000000001a000000000000000000000000000000000000000000000000000000000000001e00000000000000000000000000000000000000000000000000000000000000240000000000000000000000000000000000000000000000000000000003b9aca00000000000000000000000000000000000000000000000000000000000000000000000000000000000000000000000000000000000000000000000000000000000000000000000000000000000000000000000000000000000000000000000000000000000000000000000000369abe773328a9aa2bb48b0d6f7d4bca58959eab00000000000000000000000000000000000000000000000000000000000000010000000000000000000000000000000000000000000000000000000000000001000000000000000000000000000000000000000000000000000000000000000f53746f72796e616d6573204c6f676f000000000000000000000000000000000000000000000000000000000000000000000000000000000000000000000000064e534c4f474f0000000000000000000000000000000000000000000000000000000000000000000000000000000000000000000000000000000000000000002568747470733a2f2f6170692e73746f72796e616d652e73706163652f6d657461646174612f000000000000000000000000000000000000000000000000000000000000000000000000000000000000000000000000000000000000000000006368747470733a2f2f726f73652d6f636375706174696f6e616c2d6265652d35382e6d7970696e6174612e636c6f75642f697066732f516d5170366473735258416978566e72756f4445317455624d46624b463564744d364c3379713967664a4e5459750000000000000000000000000000000000000000000000000000000000",
        "nonce": "0x53",
        "chainId": "0x5ec"
      },
      "additionalContracts": [],
      "isFixedGasLimit": false
    }
  ],
  "receipts": [
    {
      "status": "0x1",
      "cumulativeGasUsed": "0x121a5e4",
      "logs": [
        {
          "address": "0xacf49c544786bcacd99307793ea5361748c96750",
          "topics": [
            "0x1cf3b03a6cf19fa2baba4df148e9dcabedea7f8a5c07840e207e5c089be95d3e",
            "0x000000000000000000000000d023bb3269f88345f3d79f2fe5acfaaac6189b8e"
          ],
          "data": "0x",
          "blockHash": "0x60104d1fec5a55c7af4802c3986ff1d84bf3a958eb4aabe479e09a598d76e233",
          "blockNumber": "0xb0b1b",
          "transactionHash": "0xe41a17b0f8b076b6b9165ad2f9362a863ed0ac5ae307bafe67af911851deaa79",
          "transactionIndex": "0x48",
          "logIndex": "0xbe",
          "removed": false
        },
        {
          "address": "0xacf49c544786bcacd99307793ea5361748c96750",
          "topics": [
            "0x2f8788117e7eff1d82e926ec794901d17c78024a50270940304540a733656f0d",
            "0x0000000000000000000000000000000000000000000000000000000000000000",
            "0x000000000000000000000000369abe773328a9aa2bb48b0d6f7d4bca58959eab",
            "0x00000000000000000000000056206e867225f46df24eab1f680e92c92f80a4ff"
          ],
          "data": "0x",
          "blockHash": "0x60104d1fec5a55c7af4802c3986ff1d84bf3a958eb4aabe479e09a598d76e233",
          "blockNumber": "0xb0b1b",
          "transactionHash": "0xe41a17b0f8b076b6b9165ad2f9362a863ed0ac5ae307bafe67af911851deaa79",
          "transactionIndex": "0x48",
          "logIndex": "0xbf",
          "removed": false
        },
        {
          "address": "0xacf49c544786bcacd99307793ea5361748c96750",
          "topics": [
            "0x2f8788117e7eff1d82e926ec794901d17c78024a50270940304540a733656f0d",
            "0x0000000000000000000000000000000000000000000000000000000000000001",
            "0x000000000000000000000000369abe773328a9aa2bb48b0d6f7d4bca58959eab",
            "0x00000000000000000000000056206e867225f46df24eab1f680e92c92f80a4ff"
          ],
          "data": "0x",
          "blockHash": "0x60104d1fec5a55c7af4802c3986ff1d84bf3a958eb4aabe479e09a598d76e233",
          "blockNumber": "0xb0b1b",
          "transactionHash": "0xe41a17b0f8b076b6b9165ad2f9362a863ed0ac5ae307bafe67af911851deaa79",
          "transactionIndex": "0x48",
          "logIndex": "0xc0",
          "removed": false
        },
        {
          "address": "0xacf49c544786bcacd99307793ea5361748c96750",
          "topics": [
            "0x2f8788117e7eff1d82e926ec794901d17c78024a50270940304540a733656f0d",
            "0x0000000000000000000000000000000000000000000000000000000000000000",
            "0x000000000000000000000000a8815ceb96857ffb8f5f8ce920b1ae6d70254c7b",
            "0x00000000000000000000000056206e867225f46df24eab1f680e92c92f80a4ff"
          ],
          "data": "0x",
          "blockHash": "0x60104d1fec5a55c7af4802c3986ff1d84bf3a958eb4aabe479e09a598d76e233",
          "blockNumber": "0xb0b1b",
          "transactionHash": "0xe41a17b0f8b076b6b9165ad2f9362a863ed0ac5ae307bafe67af911851deaa79",
          "transactionIndex": "0x48",
          "logIndex": "0xc1",
          "removed": false
        },
        {
          "address": "0xacf49c544786bcacd99307793ea5361748c96750",
          "topics": [
            "0x2f8788117e7eff1d82e926ec794901d17c78024a50270940304540a733656f0d",
            "0x0000000000000000000000000000000000000000000000000000000000000001",
            "0x000000000000000000000000a8815ceb96857ffb8f5f8ce920b1ae6d70254c7b",
            "0x00000000000000000000000056206e867225f46df24eab1f680e92c92f80a4ff"
          ],
          "data": "0x",
          "blockHash": "0x60104d1fec5a55c7af4802c3986ff1d84bf3a958eb4aabe479e09a598d76e233",
          "blockNumber": "0xb0b1b",
          "transactionHash": "0xe41a17b0f8b076b6b9165ad2f9362a863ed0ac5ae307bafe67af911851deaa79",
          "transactionIndex": "0x48",
          "logIndex": "0xc2",
          "removed": false
        },
        {
          "address": "0xacf49c544786bcacd99307793ea5361748c96750",
          "topics": [
            "0x2f8788117e7eff1d82e926ec794901d17c78024a50270940304540a733656f0d",
            "0x0000000000000000000000000000000000000000000000000000000000000000",
            "0x000000000000000000000000cd754994ebe5ce16d432c1f936f98ac0d4aaba0e",
            "0x00000000000000000000000056206e867225f46df24eab1f680e92c92f80a4ff"
          ],
          "data": "0x",
          "blockHash": "0x60104d1fec5a55c7af4802c3986ff1d84bf3a958eb4aabe479e09a598d76e233",
          "blockNumber": "0xb0b1b",
          "transactionHash": "0xe41a17b0f8b076b6b9165ad2f9362a863ed0ac5ae307bafe67af911851deaa79",
          "transactionIndex": "0x48",
          "logIndex": "0xc3",
          "removed": false
        },
        {
          "address": "0xacf49c544786bcacd99307793ea5361748c96750",
          "topics": [
            "0x2f8788117e7eff1d82e926ec794901d17c78024a50270940304540a733656f0d",
            "0x0000000000000000000000000000000000000000000000000000000000000001",
            "0x000000000000000000000000cd754994ebe5ce16d432c1f936f98ac0d4aaba0e",
            "0x00000000000000000000000056206e867225f46df24eab1f680e92c92f80a4ff"
          ],
          "data": "0x",
          "blockHash": "0x60104d1fec5a55c7af4802c3986ff1d84bf3a958eb4aabe479e09a598d76e233",
          "blockNumber": "0xb0b1b",
          "transactionHash": "0xe41a17b0f8b076b6b9165ad2f9362a863ed0ac5ae307bafe67af911851deaa79",
          "transactionIndex": "0x48",
          "logIndex": "0xc4",
          "removed": false
        },
        {
          "address": "0xacf49c544786bcacd99307793ea5361748c96750",
          "topics": [
            "0x2f8788117e7eff1d82e926ec794901d17c78024a50270940304540a733656f0d",
            "0x0000000000000000000000000000000000000000000000000000000000000000",
            "0x00000000000000000000000044bad1e4035a44eac1606b222873e4a85e8b7d9c",
            "0x00000000000000000000000056206e867225f46df24eab1f680e92c92f80a4ff"
          ],
          "data": "0x",
          "blockHash": "0x60104d1fec5a55c7af4802c3986ff1d84bf3a958eb4aabe479e09a598d76e233",
          "blockNumber": "0xb0b1b",
          "transactionHash": "0xe41a17b0f8b076b6b9165ad2f9362a863ed0ac5ae307bafe67af911851deaa79",
          "transactionIndex": "0x48",
          "logIndex": "0xc5",
          "removed": false
        },
        {
          "address": "0xacf49c544786bcacd99307793ea5361748c96750",
          "topics": [
            "0x2f8788117e7eff1d82e926ec794901d17c78024a50270940304540a733656f0d",
            "0x0000000000000000000000000000000000000000000000000000000000000001",
            "0x00000000000000000000000044bad1e4035a44eac1606b222873e4a85e8b7d9c",
            "0x00000000000000000000000056206e867225f46df24eab1f680e92c92f80a4ff"
          ],
          "data": "0x",
          "blockHash": "0x60104d1fec5a55c7af4802c3986ff1d84bf3a958eb4aabe479e09a598d76e233",
          "blockNumber": "0xb0b1b",
          "transactionHash": "0xe41a17b0f8b076b6b9165ad2f9362a863ed0ac5ae307bafe67af911851deaa79",
          "transactionIndex": "0x48",
          "logIndex": "0xc6",
          "removed": false
        },
        {
          "address": "0xacf49c544786bcacd99307793ea5361748c96750",
          "topics": [
            "0x2f8788117e7eff1d82e926ec794901d17c78024a50270940304540a733656f0d",
            "0x0000000000000000000000000000000000000000000000000000000000000000",
            "0x000000000000000000000000de13be395e1cd753471447cf6a656979ef87881c",
            "0x00000000000000000000000056206e867225f46df24eab1f680e92c92f80a4ff"
          ],
          "data": "0x",
          "blockHash": "0x60104d1fec5a55c7af4802c3986ff1d84bf3a958eb4aabe479e09a598d76e233",
          "blockNumber": "0xb0b1b",
          "transactionHash": "0xe41a17b0f8b076b6b9165ad2f9362a863ed0ac5ae307bafe67af911851deaa79",
          "transactionIndex": "0x48",
          "logIndex": "0xc7",
          "removed": false
        },
        {
          "address": "0xacf49c544786bcacd99307793ea5361748c96750",
          "topics": [
            "0x2f8788117e7eff1d82e926ec794901d17c78024a50270940304540a733656f0d",
            "0x0000000000000000000000000000000000000000000000000000000000000001",
            "0x000000000000000000000000de13be395e1cd753471447cf6a656979ef87881c",
            "0x00000000000000000000000056206e867225f46df24eab1f680e92c92f80a4ff"
          ],
          "data": "0x",
          "blockHash": "0x60104d1fec5a55c7af4802c3986ff1d84bf3a958eb4aabe479e09a598d76e233",
          "blockNumber": "0xb0b1b",
          "transactionHash": "0xe41a17b0f8b076b6b9165ad2f9362a863ed0ac5ae307bafe67af911851deaa79",
          "transactionIndex": "0x48",
          "logIndex": "0xc8",
          "removed": false
        },
        {
          "address": "0xacf49c544786bcacd99307793ea5361748c96750",
          "topics": [
            "0xc7f505b2f371ae2175ee4913f4499e1f2633a7b5936321eed1cdaeb6115181d2"
          ],
          "data": "0x0000000000000000000000000000000000000000000000000000000000000001",
          "blockHash": "0x60104d1fec5a55c7af4802c3986ff1d84bf3a958eb4aabe479e09a598d76e233",
          "blockNumber": "0xb0b1b",
          "transactionHash": "0xe41a17b0f8b076b6b9165ad2f9362a863ed0ac5ae307bafe67af911851deaa79",
          "transactionIndex": "0x48",
          "logIndex": "0xc9",
          "removed": false
        },
        {
          "address": "0x56206e867225f46df24eab1f680e92c92f80a4ff",
          "topics": [
            "0x68c2aee2986f58d77e87c1faf99e7dfd6cdc0998ea3c6278d3d8013291a7cdfa",
            "0x000000000000000000000000acf49c544786bcacd99307793ea5361748c96750"
          ],
          "data": "0x000000000000000000000000000000000000000000000000000000000000006000000000000000000000000000000000000000000000000000000000000000a000000000000000000000000000000000000000000000000000000000000000e0000000000000000000000000000000000000000000000000000000000000000f53746f72796e616d6573204c6f676f000000000000000000000000000000000000000000000000000000000000000000000000000000000000000000000000064e534c4f474f0000000000000000000000000000000000000000000000000000000000000000000000000000000000000000000000000000000000000000006368747470733a2f2f726f73652d6f636375706174696f6e616c2d6265652d35382e6d7970696e6174612e636c6f75642f697066732f516d5170366473735258416978566e72756f4445317455624d46624b463564744d364c3379713967664a4e5459750000000000000000000000000000000000000000000000000000000000",
          "blockHash": "0x60104d1fec5a55c7af4802c3986ff1d84bf3a958eb4aabe479e09a598d76e233",
          "blockNumber": "0xb0b1b",
          "transactionHash": "0xe41a17b0f8b076b6b9165ad2f9362a863ed0ac5ae307bafe67af911851deaa79",
          "transactionIndex": "0x48",
          "logIndex": "0xca",
          "removed": false
        }
      ],
      "logsBloom": "0x00000004000000000002000000000000000100000000000000200000000000000000000000000004000000000000000000000002000000010000000000040000400000100000000000001000005400000000000000040080000800002004000004040000020000000000000000000800004000000000000000004000000000000000000000000200000800000000080000000080000084000000000000000000000000000000000000800000000000000000400000000004201000000000000000000000000000008000000000001000000000000004000300800400000068010000000000000000000000000000000000000000000000000000000200000000",
      "type": "0x2",
      "transactionHash": "0xe41a17b0f8b076b6b9165ad2f9362a863ed0ac5ae307bafe67af911851deaa79",
      "transactionIndex": "0x48",
      "blockHash": "0x60104d1fec5a55c7af4802c3986ff1d84bf3a958eb4aabe479e09a598d76e233",
      "blockNumber": "0xb0b1b",
      "gasUsed": "0xb50df",
      "effectiveGasPrice": "0x3cdd7f06c",
      "from": "0x369abe773328a9aa2bb48b0d6f7d4bca58959eab",
      "to": "0x56206e867225f46df24eab1f680e92c92f80a4ff",
      "contractAddress": null
    }
  ],
  "libraries": [],
  "pending": [],
  "returns": {},
  "timestamp": 1732205968,
  "chain": 1516,
  "commit": "906839e"
}