{
  "transactions": [
    {
      "hash": "0x00886749f8b2052c467871faa80d0e66b95c0c81e0594c7e18d7a2cac0e39626",
      "transactionType": "CALL",
      "contractName": null,
      "contractAddress": "0xa9a2a89c0142a70532fd59c60187122b657019d9",
      "function": "createComposableSPG((string,string,string,string,uint32,uint256,address,address,address,bool,bool))",
      "arguments": [
        "(Storynames Banner, NSBANNER, https://api.storyname.space/metadata/, https://rose-occupational-bee-58.mypinata.cloud/ipfs/QmRMfYGRu8xtCTTtm7kPrb8PXTuQcSyoMVJTLQk2ujpLDp, 1000000000, 0, 0x0000000000000000000000000000000000000000, 0x0000000000000000000000000000000000000000, 0x369Abe773328A9Aa2bb48B0D6F7D4bca58959EAb, true, true)"
      ],
      "transaction": {
        "from": "0x369abe773328a9aa2bb48b0d6f7d4bca58959eab",
        "to": "0xa9a2a89c0142a70532fd59c60187122b657019d9",
        "gas": "0xffd03",
        "value": "0x0",
        "input": "0xb934751b0000000000000000000000000000000000000000000000000000000000000020000000000000000000000000000000000000000000000000000000000000016000000000000000000000000000000000000000000000000000000000000001a000000000000000000000000000000000000000000000000000000000000001e00000000000000000000000000000000000000000000000000000000000000240000000000000000000000000000000000000000000000000000000003b9aca00000000000000000000000000000000000000000000000000000000000000000000000000000000000000000000000000000000000000000000000000000000000000000000000000000000000000000000000000000000000000000000000000000000000000000000000000369abe773328a9aa2bb48b0d6f7d4bca58959eab00000000000000000000000000000000000000000000000000000000000000010000000000000000000000000000000000000000000000000000000000000001000000000000000000000000000000000000000000000000000000000000001153746f72796e616d65732042616e6e657200000000000000000000000000000000000000000000000000000000000000000000000000000000000000000000084e5342414e4e4552000000000000000000000000000000000000000000000000000000000000000000000000000000000000000000000000000000000000002568747470733a2f2f6170692e73746f72796e616d652e73706163652f6d657461646174612f000000000000000000000000000000000000000000000000000000000000000000000000000000000000000000000000000000000000000000006368747470733a2f2f726f73652d6f636375706174696f6e616c2d6265652d35382e6d7970696e6174612e636c6f75642f697066732f516d524d6659475275387874435454746d376b5072623850585475516353796f4d564a544c516b32756a704c44700000000000000000000000000000000000000000000000000000000000",
        "nonce": "0x91",
        "chainId": "0x5ec"
      },
      "additionalContracts": [],
      "isFixedGasLimit": false
    }
  ],
  "receipts": [
    {
      "status": "0x1",
      "cumulativeGasUsed": "0x340439",
      "logs": [
        {
          "address": "0x07ea0232ab5e9c99b2c9659f93bb491e26c45801",
          "topics": [
            "0x1cf3b03a6cf19fa2baba4df148e9dcabedea7f8a5c07840e207e5c089be95d3e",
            "0x000000000000000000000000fafba5ed48bed74de01c36def4cb1f083eeccebb"
          ],
          "data": "0x",
          "blockHash": "0x0c4c2c4a9109475843634b97c8962ac59479e548e7a79eb764a124f703bd8948",
          "blockNumber": "0xb3117",
          "transactionHash": "0x00886749f8b2052c467871faa80d0e66b95c0c81e0594c7e18d7a2cac0e39626",
          "transactionIndex": "0xe",
          "logIndex": "0x26",
          "removed": false
        },
        {
          "address": "0x07ea0232ab5e9c99b2c9659f93bb491e26c45801",
          "topics": [
            "0x2f8788117e7eff1d82e926ec794901d17c78024a50270940304540a733656f0d",
            "0x0000000000000000000000000000000000000000000000000000000000000000",
            "0x000000000000000000000000369abe773328a9aa2bb48b0d6f7d4bca58959eab",
            "0x000000000000000000000000a9a2a89c0142a70532fd59c60187122b657019d9"
          ],
          "data": "0x",
          "blockHash": "0x0c4c2c4a9109475843634b97c8962ac59479e548e7a79eb764a124f703bd8948",
          "blockNumber": "0xb3117",
          "transactionHash": "0x00886749f8b2052c467871faa80d0e66b95c0c81e0594c7e18d7a2cac0e39626",
          "transactionIndex": "0xe",
          "logIndex": "0x27",
          "removed": false
        },
        {
          "address": "0x07ea0232ab5e9c99b2c9659f93bb491e26c45801",
          "topics": [
            "0x2f8788117e7eff1d82e926ec794901d17c78024a50270940304540a733656f0d",
            "0x0000000000000000000000000000000000000000000000000000000000000001",
            "0x000000000000000000000000369abe773328a9aa2bb48b0d6f7d4bca58959eab",
            "0x000000000000000000000000a9a2a89c0142a70532fd59c60187122b657019d9"
          ],
          "data": "0x",
          "blockHash": "0x0c4c2c4a9109475843634b97c8962ac59479e548e7a79eb764a124f703bd8948",
          "blockNumber": "0xb3117",
          "transactionHash": "0x00886749f8b2052c467871faa80d0e66b95c0c81e0594c7e18d7a2cac0e39626",
          "transactionIndex": "0xe",
          "logIndex": "0x28",
          "removed": false
        },
        {
          "address": "0x07ea0232ab5e9c99b2c9659f93bb491e26c45801",
          "topics": [
            "0x2f8788117e7eff1d82e926ec794901d17c78024a50270940304540a733656f0d",
            "0x0000000000000000000000000000000000000000000000000000000000000000",
            "0x000000000000000000000000a8815ceb96857ffb8f5f8ce920b1ae6d70254c7b",
            "0x000000000000000000000000a9a2a89c0142a70532fd59c60187122b657019d9"
          ],
          "data": "0x",
          "blockHash": "0x0c4c2c4a9109475843634b97c8962ac59479e548e7a79eb764a124f703bd8948",
          "blockNumber": "0xb3117",
          "transactionHash": "0x00886749f8b2052c467871faa80d0e66b95c0c81e0594c7e18d7a2cac0e39626",
          "transactionIndex": "0xe",
          "logIndex": "0x29",
          "removed": false
        },
        {
          "address": "0x07ea0232ab5e9c99b2c9659f93bb491e26c45801",
          "topics": [
            "0x2f8788117e7eff1d82e926ec794901d17c78024a50270940304540a733656f0d",
            "0x0000000000000000000000000000000000000000000000000000000000000001",
            "0x000000000000000000000000a8815ceb96857ffb8f5f8ce920b1ae6d70254c7b",
            "0x000000000000000000000000a9a2a89c0142a70532fd59c60187122b657019d9"
          ],
          "data": "0x",
          "blockHash": "0x0c4c2c4a9109475843634b97c8962ac59479e548e7a79eb764a124f703bd8948",
          "blockNumber": "0xb3117",
          "transactionHash": "0x00886749f8b2052c467871faa80d0e66b95c0c81e0594c7e18d7a2cac0e39626",
          "transactionIndex": "0xe",
          "logIndex": "0x2a",
          "removed": false
        },
        {
          "address": "0x07ea0232ab5e9c99b2c9659f93bb491e26c45801",
          "topics": [
            "0x2f8788117e7eff1d82e926ec794901d17c78024a50270940304540a733656f0d",
            "0x0000000000000000000000000000000000000000000000000000000000000000",
            "0x000000000000000000000000cd754994ebe5ce16d432c1f936f98ac0d4aaba0e",
            "0x000000000000000000000000a9a2a89c0142a70532fd59c60187122b657019d9"
          ],
          "data": "0x",
          "blockHash": "0x0c4c2c4a9109475843634b97c8962ac59479e548e7a79eb764a124f703bd8948",
          "blockNumber": "0xb3117",
          "transactionHash": "0x00886749f8b2052c467871faa80d0e66b95c0c81e0594c7e18d7a2cac0e39626",
          "transactionIndex": "0xe",
          "logIndex": "0x2b",
          "removed": false
        },
        {
          "address": "0x07ea0232ab5e9c99b2c9659f93bb491e26c45801",
          "topics": [
            "0x2f8788117e7eff1d82e926ec794901d17c78024a50270940304540a733656f0d",
            "0x0000000000000000000000000000000000000000000000000000000000000001",
            "0x000000000000000000000000cd754994ebe5ce16d432c1f936f98ac0d4aaba0e",
            "0x000000000000000000000000a9a2a89c0142a70532fd59c60187122b657019d9"
          ],
          "data": "0x",
          "blockHash": "0x0c4c2c4a9109475843634b97c8962ac59479e548e7a79eb764a124f703bd8948",
          "blockNumber": "0xb3117",
          "transactionHash": "0x00886749f8b2052c467871faa80d0e66b95c0c81e0594c7e18d7a2cac0e39626",
          "transactionIndex": "0xe",
          "logIndex": "0x2c",
          "removed": false
        },
        {
          "address": "0x07ea0232ab5e9c99b2c9659f93bb491e26c45801",
          "topics": [
            "0x2f8788117e7eff1d82e926ec794901d17c78024a50270940304540a733656f0d",
            "0x0000000000000000000000000000000000000000000000000000000000000000",
            "0x00000000000000000000000044bad1e4035a44eac1606b222873e4a85e8b7d9c",
            "0x000000000000000000000000a9a2a89c0142a70532fd59c60187122b657019d9"
          ],
          "data": "0x",
          "blockHash": "0x0c4c2c4a9109475843634b97c8962ac59479e548e7a79eb764a124f703bd8948",
          "blockNumber": "0xb3117",
          "transactionHash": "0x00886749f8b2052c467871faa80d0e66b95c0c81e0594c7e18d7a2cac0e39626",
          "transactionIndex": "0xe",
          "logIndex": "0x2d",
          "removed": false
        },
        {
          "address": "0x07ea0232ab5e9c99b2c9659f93bb491e26c45801",
          "topics": [
            "0x2f8788117e7eff1d82e926ec794901d17c78024a50270940304540a733656f0d",
            "0x0000000000000000000000000000000000000000000000000000000000000001",
            "0x00000000000000000000000044bad1e4035a44eac1606b222873e4a85e8b7d9c",
            "0x000000000000000000000000a9a2a89c0142a70532fd59c60187122b657019d9"
          ],
          "data": "0x",
          "blockHash": "0x0c4c2c4a9109475843634b97c8962ac59479e548e7a79eb764a124f703bd8948",
          "blockNumber": "0xb3117",
          "transactionHash": "0x00886749f8b2052c467871faa80d0e66b95c0c81e0594c7e18d7a2cac0e39626",
          "transactionIndex": "0xe",
          "logIndex": "0x2e",
          "removed": false
        },
        {
          "address": "0x07ea0232ab5e9c99b2c9659f93bb491e26c45801",
          "topics": [
            "0x2f8788117e7eff1d82e926ec794901d17c78024a50270940304540a733656f0d",
            "0x0000000000000000000000000000000000000000000000000000000000000000",
            "0x000000000000000000000000de13be395e1cd753471447cf6a656979ef87881c",
            "0x000000000000000000000000a9a2a89c0142a70532fd59c60187122b657019d9"
          ],
          "data": "0x",
          "blockHash": "0x0c4c2c4a9109475843634b97c8962ac59479e548e7a79eb764a124f703bd8948",
          "blockNumber": "0xb3117",
          "transactionHash": "0x00886749f8b2052c467871faa80d0e66b95c0c81e0594c7e18d7a2cac0e39626",
          "transactionIndex": "0xe",
          "logIndex": "0x2f",
          "removed": false
        },
        {
          "address": "0x07ea0232ab5e9c99b2c9659f93bb491e26c45801",
          "topics": [
            "0x2f8788117e7eff1d82e926ec794901d17c78024a50270940304540a733656f0d",
            "0x0000000000000000000000000000000000000000000000000000000000000001",
            "0x000000000000000000000000de13be395e1cd753471447cf6a656979ef87881c",
            "0x000000000000000000000000a9a2a89c0142a70532fd59c60187122b657019d9"
          ],
          "data": "0x",
          "blockHash": "0x0c4c2c4a9109475843634b97c8962ac59479e548e7a79eb764a124f703bd8948",
          "blockNumber": "0xb3117",
          "transactionHash": "0x00886749f8b2052c467871faa80d0e66b95c0c81e0594c7e18d7a2cac0e39626",
          "transactionIndex": "0xe",
          "logIndex": "0x30",
          "removed": false
        },
        {
          "address": "0x07ea0232ab5e9c99b2c9659f93bb491e26c45801",
          "topics": [
            "0xc7f505b2f371ae2175ee4913f4499e1f2633a7b5936321eed1cdaeb6115181d2"
          ],
          "data": "0x0000000000000000000000000000000000000000000000000000000000000001",
          "blockHash": "0x0c4c2c4a9109475843634b97c8962ac59479e548e7a79eb764a124f703bd8948",
          "blockNumber": "0xb3117",
          "transactionHash": "0x00886749f8b2052c467871faa80d0e66b95c0c81e0594c7e18d7a2cac0e39626",
          "transactionIndex": "0xe",
          "logIndex": "0x31",
          "removed": false
        },
        {
          "address": "0xa9a2a89c0142a70532fd59c60187122b657019d9",
          "topics": [
            "0x68c2aee2986f58d77e87c1faf99e7dfd6cdc0998ea3c6278d3d8013291a7cdfa",
            "0x00000000000000000000000007ea0232ab5e9c99b2c9659f93bb491e26c45801"
          ],
          "data": "0x000000000000000000000000000000000000000000000000000000000000006000000000000000000000000000000000000000000000000000000000000000a000000000000000000000000000000000000000000000000000000000000000e0000000000000000000000000000000000000000000000000000000000000001153746f72796e616d65732042616e6e657200000000000000000000000000000000000000000000000000000000000000000000000000000000000000000000084e5342414e4e4552000000000000000000000000000000000000000000000000000000000000000000000000000000000000000000000000000000000000006368747470733a2f2f726f73652d6f636375706174696f6e616c2d6265652d35382e6d7970696e6174612e636c6f75642f697066732f516d524d6659475275387874435454746d376b5072623850585475516353796f4d564a544c516b32756a704c44700000000000000000000000000000000000000000000000000000000000",
          "blockHash": "0x0c4c2c4a9109475843634b97c8962ac59479e548e7a79eb764a124f703bd8948",
          "blockNumber": "0xb3117",
          "transactionHash": "0x00886749f8b2052c467871faa80d0e66b95c0c81e0594c7e18d7a2cac0e39626",
          "transactionIndex": "0xe",
          "logIndex": "0x32",
          "removed": false
        }
      ],
      "logsBloom": "0x00000204000000000000000000000000002100000000000000200000000000000000000000000004000000000000000000000000000000000000000000040000000000000000000000001000045400000080000000040000000000000004000000000000020000000000000000000800014000000000000000004000000000000000000040000000000800000c00080000000080000084000000000000000000000000000000000000800010002000000000400000000080201020000000000000000000100000008000000000001000000000000004000300800000000060010000400000000000000000000000000000000000000000000000000000200000",
      "type": "0x2",
      "transactionHash": "0x00886749f8b2052c467871faa80d0e66b95c0c81e0594c7e18d7a2cac0e39626",
      "transactionIndex": "0xe",
      "blockHash": "0x0c4c2c4a9109475843634b97c8962ac59479e548e7a79eb764a124f703bd8948",
      "blockNumber": "0xb3117",
      "gasUsed": "0xb93db",
      "effectiveGasPrice": "0x3b9af55f0",
      "from": "0x369abe773328a9aa2bb48b0d6f7d4bca58959eab",
      "to": "0xa9a2a89c0142a70532fd59c60187122b657019d9",
      "contractAddress": null
    }
  ],
  "libraries": [],
  "pending": [],
  "returns": {},
  "timestamp": 1732240844,
  "chain": 1516,
  "commit": "906839e"
}