{
  "transactions": [
    {
      "hash": "0xc611325d5f637ab4c3bb621acc08057ddbdde4bda22564f5db9c517bc683556c",
      "transactionType": "CALL",
      "contractName": null,
      "contractAddress": "0x2af10a3ce0fe67fa9310e29b70dfc6f107057a5a",
      "function": "createComposableSPG((string,string,string,string,uint32,uint256,address,address,address,bool,bool))",
      "arguments": [
        "(MyComposableSPG, MCSPG, https://example.com/metadata/, https://example.com/contract-metadata, 100000, 0, 0xC0F6E387aC0B324Ec18EAcf22EE7271207dCE3d5, 0x369Abe773328A9Aa2bb48B0D6F7D4bca58959EAb, 0x369Abe773328A9Aa2bb48B0D6F7D4bca58959EAb, true, true)"
      ],
      "transaction": {
        "from": "0x369abe773328a9aa2bb48b0d6f7d4bca58959eab",
        "to": "0x2af10a3ce0fe67fa9310e29b70dfc6f107057a5a",
        "gas": "0xe7e8b",
        "value": "0x0",
        "input": "0xb934751b0000000000000000000000000000000000000000000000000000000000000020000000000000000000000000000000000000000000000000000000000000016000000000000000000000000000000000000000000000000000000000000001a000000000000000000000000000000000000000000000000000000000000001e0000000000000000000000000000000000000000000000000000000000000022000000000000000000000000000000000000000000000000000000000000186a00000000000000000000000000000000000000000000000000000000000000000000000000000000000000000c0f6e387ac0b324ec18eacf22ee7271207dce3d5000000000000000000000000369abe773328a9aa2bb48b0d6f7d4bca58959eab000000000000000000000000369abe773328a9aa2bb48b0d6f7d4bca58959eab00000000000000000000000000000000000000000000000000000000000000010000000000000000000000000000000000000000000000000000000000000001000000000000000000000000000000000000000000000000000000000000000f4d79436f6d706f7361626c65535047000000000000000000000000000000000000000000000000000000000000000000000000000000000000000000000000054d43535047000000000000000000000000000000000000000000000000000000000000000000000000000000000000000000000000000000000000000000001d68747470733a2f2f6578616d706c652e636f6d2f6d657461646174612f000000000000000000000000000000000000000000000000000000000000000000002568747470733a2f2f6578616d706c652e636f6d2f636f6e74726163742d6d65746164617461000000000000000000000000000000000000000000000000000000",
        "nonce": "0x1d",
        "chainId": "0x5ec"
      },
      "additionalContracts": [],
      "isFixedGasLimit": false
    }
  ],
  "receipts": [
    {
      "status": "0x1",
      "cumulativeGasUsed": "0x60ccbd",
      "logs": [
        {
          "address": "0x02f1d10f80d7f7a4914cf716d59c54593789d65c",
          "topics": [
            "0x1cf3b03a6cf19fa2baba4df148e9dcabedea7f8a5c07840e207e5c089be95d3e",
            "0x000000000000000000000000c72e597cefb87fdd205c19b27b7207c3e5436e94"
          ],
          "data": "0x",
          "blockHash": "0x9f6db82847b065b237e4612f775744b235021d26d82233cb26081b9d7227d723",
          "blockNumber": "0x68f9e",
          "transactionHash": "0xc611325d5f637ab4c3bb621acc08057ddbdde4bda22564f5db9c517bc683556c",
          "transactionIndex": "0x1d",
          "logIndex": "0x69",
          "removed": false
        },
        {
          "address": "0x02f1d10f80d7f7a4914cf716d59c54593789d65c",
          "topics": [
            "0x2f8788117e7eff1d82e926ec794901d17c78024a50270940304540a733656f0d",
            "0x0000000000000000000000000000000000000000000000000000000000000000",
            "0x000000000000000000000000369abe773328a9aa2bb48b0d6f7d4bca58959eab",
            "0x0000000000000000000000002af10a3ce0fe67fa9310e29b70dfc6f107057a5a"
          ],
          "data": "0x",
          "blockHash": "0x9f6db82847b065b237e4612f775744b235021d26d82233cb26081b9d7227d723",
          "blockNumber": "0x68f9e",
          "transactionHash": "0xc611325d5f637ab4c3bb621acc08057ddbdde4bda22564f5db9c517bc683556c",
          "transactionIndex": "0x1d",
          "logIndex": "0x6a",
          "removed": false
        },
        {
          "address": "0x02f1d10f80d7f7a4914cf716d59c54593789d65c",
          "topics": [
            "0x2f8788117e7eff1d82e926ec794901d17c78024a50270940304540a733656f0d",
            "0x0000000000000000000000000000000000000000000000000000000000000001",
            "0x000000000000000000000000369abe773328a9aa2bb48b0d6f7d4bca58959eab",
            "0x0000000000000000000000002af10a3ce0fe67fa9310e29b70dfc6f107057a5a"
          ],
          "data": "0x",
          "blockHash": "0x9f6db82847b065b237e4612f775744b235021d26d82233cb26081b9d7227d723",
          "blockNumber": "0x68f9e",
          "transactionHash": "0xc611325d5f637ab4c3bb621acc08057ddbdde4bda22564f5db9c517bc683556c",
          "transactionIndex": "0x1d",
          "logIndex": "0x6b",
          "removed": false
        },
        {
          "address": "0x02f1d10f80d7f7a4914cf716d59c54593789d65c",
          "topics": [
            "0x2f8788117e7eff1d82e926ec794901d17c78024a50270940304540a733656f0d",
            "0x0000000000000000000000000000000000000000000000000000000000000000",
            "0x000000000000000000000000a8815ceb96857ffb8f5f8ce920b1ae6d70254c7b",
            "0x0000000000000000000000002af10a3ce0fe67fa9310e29b70dfc6f107057a5a"
          ],
          "data": "0x",
          "blockHash": "0x9f6db82847b065b237e4612f775744b235021d26d82233cb26081b9d7227d723",
          "blockNumber": "0x68f9e",
          "transactionHash": "0xc611325d5f637ab4c3bb621acc08057ddbdde4bda22564f5db9c517bc683556c",
          "transactionIndex": "0x1d",
          "logIndex": "0x6c",
          "removed": false
        },
        {
          "address": "0x02f1d10f80d7f7a4914cf716d59c54593789d65c",
          "topics": [
            "0x2f8788117e7eff1d82e926ec794901d17c78024a50270940304540a733656f0d",
            "0x0000000000000000000000000000000000000000000000000000000000000001",
            "0x000000000000000000000000a8815ceb96857ffb8f5f8ce920b1ae6d70254c7b",
            "0x0000000000000000000000002af10a3ce0fe67fa9310e29b70dfc6f107057a5a"
          ],
          "data": "0x",
          "blockHash": "0x9f6db82847b065b237e4612f775744b235021d26d82233cb26081b9d7227d723",
          "blockNumber": "0x68f9e",
          "transactionHash": "0xc611325d5f637ab4c3bb621acc08057ddbdde4bda22564f5db9c517bc683556c",
          "transactionIndex": "0x1d",
          "logIndex": "0x6d",
          "removed": false
        },
        {
          "address": "0x02f1d10f80d7f7a4914cf716d59c54593789d65c",
          "topics": [
            "0x2f8788117e7eff1d82e926ec794901d17c78024a50270940304540a733656f0d",
            "0x0000000000000000000000000000000000000000000000000000000000000000",
            "0x000000000000000000000000cd754994ebe5ce16d432c1f936f98ac0d4aaba0e",
            "0x0000000000000000000000002af10a3ce0fe67fa9310e29b70dfc6f107057a5a"
          ],
          "data": "0x",
          "blockHash": "0x9f6db82847b065b237e4612f775744b235021d26d82233cb26081b9d7227d723",
          "blockNumber": "0x68f9e",
          "transactionHash": "0xc611325d5f637ab4c3bb621acc08057ddbdde4bda22564f5db9c517bc683556c",
          "transactionIndex": "0x1d",
          "logIndex": "0x6e",
          "removed": false
        },
        {
          "address": "0x02f1d10f80d7f7a4914cf716d59c54593789d65c",
          "topics": [
            "0x2f8788117e7eff1d82e926ec794901d17c78024a50270940304540a733656f0d",
            "0x0000000000000000000000000000000000000000000000000000000000000001",
            "0x000000000000000000000000cd754994ebe5ce16d432c1f936f98ac0d4aaba0e",
            "0x0000000000000000000000002af10a3ce0fe67fa9310e29b70dfc6f107057a5a"
          ],
          "data": "0x",
          "blockHash": "0x9f6db82847b065b237e4612f775744b235021d26d82233cb26081b9d7227d723",
          "blockNumber": "0x68f9e",
          "transactionHash": "0xc611325d5f637ab4c3bb621acc08057ddbdde4bda22564f5db9c517bc683556c",
          "transactionIndex": "0x1d",
          "logIndex": "0x6f",
          "removed": false
        },
        {
          "address": "0x02f1d10f80d7f7a4914cf716d59c54593789d65c",
          "topics": [
            "0x2f8788117e7eff1d82e926ec794901d17c78024a50270940304540a733656f0d",
            "0x0000000000000000000000000000000000000000000000000000000000000000",
            "0x00000000000000000000000044bad1e4035a44eac1606b222873e4a85e8b7d9c",
            "0x0000000000000000000000002af10a3ce0fe67fa9310e29b70dfc6f107057a5a"
          ],
          "data": "0x",
          "blockHash": "0x9f6db82847b065b237e4612f775744b235021d26d82233cb26081b9d7227d723",
          "blockNumber": "0x68f9e",
          "transactionHash": "0xc611325d5f637ab4c3bb621acc08057ddbdde4bda22564f5db9c517bc683556c",
          "transactionIndex": "0x1d",
          "logIndex": "0x70",
          "removed": false
        },
        {
          "address": "0x02f1d10f80d7f7a4914cf716d59c54593789d65c",
          "topics": [
            "0x2f8788117e7eff1d82e926ec794901d17c78024a50270940304540a733656f0d",
            "0x0000000000000000000000000000000000000000000000000000000000000001",
            "0x00000000000000000000000044bad1e4035a44eac1606b222873e4a85e8b7d9c",
            "0x0000000000000000000000002af10a3ce0fe67fa9310e29b70dfc6f107057a5a"
          ],
          "data": "0x",
          "blockHash": "0x9f6db82847b065b237e4612f775744b235021d26d82233cb26081b9d7227d723",
          "blockNumber": "0x68f9e",
          "transactionHash": "0xc611325d5f637ab4c3bb621acc08057ddbdde4bda22564f5db9c517bc683556c",
          "transactionIndex": "0x1d",
          "logIndex": "0x71",
          "removed": false
        },
        {
          "address": "0x02f1d10f80d7f7a4914cf716d59c54593789d65c",
          "topics": [
            "0x2f8788117e7eff1d82e926ec794901d17c78024a50270940304540a733656f0d",
            "0x0000000000000000000000000000000000000000000000000000000000000000",
            "0x000000000000000000000000de13be395e1cd753471447cf6a656979ef87881c",
            "0x0000000000000000000000002af10a3ce0fe67fa9310e29b70dfc6f107057a5a"
          ],
          "data": "0x",
          "blockHash": "0x9f6db82847b065b237e4612f775744b235021d26d82233cb26081b9d7227d723",
          "blockNumber": "0x68f9e",
          "transactionHash": "0xc611325d5f637ab4c3bb621acc08057ddbdde4bda22564f5db9c517bc683556c",
          "transactionIndex": "0x1d",
          "logIndex": "0x72",
          "removed": false
        },
        {
          "address": "0x02f1d10f80d7f7a4914cf716d59c54593789d65c",
          "topics": [
            "0x2f8788117e7eff1d82e926ec794901d17c78024a50270940304540a733656f0d",
            "0x0000000000000000000000000000000000000000000000000000000000000001",
            "0x000000000000000000000000de13be395e1cd753471447cf6a656979ef87881c",
            "0x0000000000000000000000002af10a3ce0fe67fa9310e29b70dfc6f107057a5a"
          ],
          "data": "0x",
          "blockHash": "0x9f6db82847b065b237e4612f775744b235021d26d82233cb26081b9d7227d723",
          "blockNumber": "0x68f9e",
          "transactionHash": "0xc611325d5f637ab4c3bb621acc08057ddbdde4bda22564f5db9c517bc683556c",
          "transactionIndex": "0x1d",
          "logIndex": "0x73",
          "removed": false
        },
        {
          "address": "0x02f1d10f80d7f7a4914cf716d59c54593789d65c",
          "topics": [
            "0xc7f505b2f371ae2175ee4913f4499e1f2633a7b5936321eed1cdaeb6115181d2"
          ],
          "data": "0x0000000000000000000000000000000000000000000000000000000000000001",
          "blockHash": "0x9f6db82847b065b237e4612f775744b235021d26d82233cb26081b9d7227d723",
          "blockNumber": "0x68f9e",
          "transactionHash": "0xc611325d5f637ab4c3bb621acc08057ddbdde4bda22564f5db9c517bc683556c",
          "transactionIndex": "0x1d",
          "logIndex": "0x74",
          "removed": false
        },
        {
          "address": "0x2af10a3ce0fe67fa9310e29b70dfc6f107057a5a",
          "topics": [
            "0x68c2aee2986f58d77e87c1faf99e7dfd6cdc0998ea3c6278d3d8013291a7cdfa",
            "0x00000000000000000000000002f1d10f80d7f7a4914cf716d59c54593789d65c"
          ],
          "data": "0x000000000000000000000000000000000000000000000000000000000000006000000000000000000000000000000000000000000000000000000000000000a000000000000000000000000000000000000000000000000000000000000000e0000000000000000000000000000000000000000000000000000000000000000f4d79436f6d706f7361626c65535047000000000000000000000000000000000000000000000000000000000000000000000000000000000000000000000000054d43535047000000000000000000000000000000000000000000000000000000000000000000000000000000000000000000000000000000000000000000002568747470733a2f2f6578616d706c652e636f6d2f636f6e74726163742d6d65746164617461000000000000000000000000000000000000000000000000000000",
          "blockHash": "0x9f6db82847b065b237e4612f775744b235021d26d82233cb26081b9d7227d723",
          "blockNumber": "0x68f9e",
          "transactionHash": "0xc611325d5f637ab4c3bb621acc08057ddbdde4bda22564f5db9c517bc683556c",
          "transactionIndex": "0x1d",
          "logIndex": "0x75",
          "removed": false
        }
      ],
      "logsBloom": "0x20000004000000000000000000000000200100000000100000200000000000010400000000000004000000000000020000000000000000000000000200040000000000000000000000001000005400000000000000040000000000000004000000000000020000000000000001000800004000000000000000004000000000000000000004000000040800000000080000000080000084000000000002000000000000000000000000800000000000040000400000000000201000000000000000000000000000008000000000001000001000000004000300800000000060010000000000000000000000008000000000000100000000000000000000000000",
      "type": "0x2",
      "transactionHash": "0xc611325d5f637ab4c3bb621acc08057ddbdde4bda22564f5db9c517bc683556c",
      "transactionIndex": "0x1d",
      "blockHash": "0x9f6db82847b065b237e4612f775744b235021d26d82233cb26081b9d7227d723",
      "blockNumber": "0x68f9e",
      "gasUsed": "0xa7eef",
      "effectiveGasPrice": "0x4d7c6cdc",
      "from": "0x369abe773328a9aa2bb48b0d6f7d4bca58959eab",
      "to": "0x2af10a3ce0fe67fa9310e29b70dfc6f107057a5a",
      "contractAddress": null
    }
  ],
  "libraries": [],
  "pending": [],
  "returns": {},
  "timestamp": 1731169832,
  "chain": 1516,
  "commit": "906839e"
}