{
  "transactions": [
    {
      "hash": "0xa22e50308f6a1f065712beea9293eb8562783113dc2fdf489d26192978c988fc",
      "transactionType": "CALL",
      "contractName": null,
      "contractAddress": "0xf008a94bc7c1e5fd9caa04e0b1e80fc8d534c57a",
      "function": "addController(address)",
      "arguments": [
        "0xD8Ac44e71cf3A8D5d2C8BBC223d846b5aB3BEe3A"
      ],
      "transaction": {
        "from": "0x306563d12a1ee361280884d8cf68b14c0d34908b",
        "to": "0xf008a94bc7c1e5fd9caa04e0b1e80fc8d534c57a",
        "gas": "0x9cc5",
        "value": "0x0",
        "input": "0xa7fc7a07000000000000000000000000d8ac44e71cf3a8d5d2c8bbc223d846b5ab3bee3a",
        "nonce": "0x19",
        "chainId": "0x5e9"
      },
      "additionalContracts": [],
      "isFixedGasLimit": false
    },
    {
      "hash": "0x2876f3f4d38cb55b4f323c6fff9b26c72bb8a98e3ad4d9a317b86678efd43439",
      "transactionType": "CALL",
      "contractName": null,
      "contractAddress": "0x62f389864335730ccbccf75d109e992370f12dbc",
      "function": "setControllerApproval(address,bool)",
      "arguments": [
        "0xD8Ac44e71cf3A8D5d2C8BBC223d846b5aB3BEe3A",
        "true"
      ],
      "transaction": {
        "from": "0x306563d12a1ee361280884d8cf68b14c0d34908b",
        "to": "0x62f389864335730ccbccf75d109e992370f12dbc",
        "gas": "0x10232",
        "value": "0x0",
        "input": "0x0f6bdf41000000000000000000000000d8ac44e71cf3a8d5d2c8bbc223d846b5ab3bee3a0000000000000000000000000000000000000000000000000000000000000001",
        "nonce": "0x1a",
        "chainId": "0x5e9"
      },
      "additionalContracts": [],
      "isFixedGasLimit": false
    }
  ],
  "receipts": [
    {
      "status": "0x1",
      "cumulativeGasUsed": "0x159c0e",
      "logs": [
        {
          "address": "0xf008a94bc7c1e5fd9caa04e0b1e80fc8d534c57a",
          "topics": [
            "0x0a8bb31534c0ed46f380cb867bd5c803a189ced9a764e30b3a4991a9901d7474",
            "0x000000000000000000000000d8ac44e71cf3a8d5d2c8bbc223d846b5ab3bee3a"
          ],
          "data": "0x",
          "blockHash": "0xf86db0cecdce894e19fecee73e59b81f868317988dbc69755e95ca752ac29d79",
          "blockNumber": "0xb57b0",
          "transactionHash": "0xa22e50308f6a1f065712beea9293eb8562783113dc2fdf489d26192978c988fc",
          "transactionIndex": "0x24",
          "logIndex": "0x23",
          "removed": false
        }
      ],
      "logsBloom": "0x00000000000000000000000000000000000000000400000000000000000000000000000000000000000000000000000000000000000000000000000000010010000000000000000000000000000000000000000000000000000000000000000000000000000000000000000020001000008000000000000000000000000000000000000080000000000000000000000000000000000000000000000000000000000000000000040000000000000000000000000000000000000000000000000000000000000000000000000000000000000000000000000000000000000000000008000000000000000000000000000000000000000000000000000000000000",
      "type": "0x2",
      "transactionHash": "0xa22e50308f6a1f065712beea9293eb8562783113dc2fdf489d26192978c988fc",
      "transactionIndex": "0x24",
      "blockHash": "0xf86db0cecdce894e19fecee73e59b81f868317988dbc69755e95ca752ac29d79",
      "blockNumber": "0xb57b0",
      "gasUsed": "0x6b32",
      "effectiveGasPrice": "0x3b9aca009",
      "from": "0x306563d12a1ee361280884d8cf68b14c0d34908b",
      "to": "0xf008a94bc7c1e5fd9caa04e0b1e80fc8d534c57a",
      "contractAddress": null
    },
    {
      "status": "0x1",
      "cumulativeGasUsed": "0x18abcc",
      "logs": [
        {
          "address": "0x62f389864335730ccbccf75d109e992370f12dbc",
          "topics": [
            "0xf9029b781a69f4a546fcd723a108cc36592b8fbdecf665d7db4275c9d1de4892",
            "0x000000000000000000000000d8ac44e71cf3a8d5d2c8bbc223d846b5ab3bee3a"
          ],
          "data": "0x0000000000000000000000000000000000000000000000000000000000000001",
          "blockHash": "0xf86db0cecdce894e19fecee73e59b81f868317988dbc69755e95ca752ac29d79",
          "blockNumber": "0xb57b0",
          "transactionHash": "0x2876f3f4d38cb55b4f323c6fff9b26c72bb8a98e3ad4d9a317b86678efd43439",
          "transactionIndex": "0x29",
          "logIndex": "0x28",
          "removed": false
        }
      ],
      "logsBloom": "0x00000000000000000000000000000000000000000000080000000000000000000000000000000000000000000000000000000000000000000000000000000000000000000000000000080000000800000000000000000000000000000000000000400000000000000000000000001000000000000000000000000000000000000000000080000000000000000000001000000000000000000000000000000000000000000000040000000000000000000000000000000000000000000000000000000000000000000000000000800000000000000000000000000000000000000000000000000000000000000000000000000000000000000000000000000000",
      "type": "0x2",
      "transactionHash": "0x2876f3f4d38cb55b4f323c6fff9b26c72bb8a98e3ad4d9a317b86678efd43439",
      "transactionIndex": "0x29",
      "blockHash": "0xf86db0cecdce894e19fecee73e59b81f868317988dbc69755e95ca752ac29d79",
      "blockNumber": "0xb57b0",
      "gasUsed": "0xbaef",
      "effectiveGasPrice": "0x3b9aca009",
      "from": "0x306563d12a1ee361280884d8cf68b14c0d34908b",
      "to": "0x62f389864335730ccbccf75d109e992370f12dbc",
      "contractAddress": null
    }
  ],
  "libraries": [],
  "pending": [],
  "returns": {},
  "timestamp": 1726923439,
  "chain": 1513,
  "commit": "c8daec4"
}