{
  "transactions": [
    {
      "hash": "0xa53ab1c5356a8abd9e68509e22754399232495a30405b07ff09d9e3e71cf4da2",
      "transactionType": "CALL",
      "contractName": null,
      "contractAddress": "0x8487fd1b80da423aaf81b9eab9eafdd9473fdaba",
      "function": "setDiscountDetails((bool,address,bytes32,uint256))",
      "arguments": [
        "(true, 0xe1038c4a36Fbe074A40422a7336B8c3A1f5c6db3, 0x6c8df949574f3f1a3eee38b104f9b365dc50adcadefeecae2a8fc139cf6f3580, 250000000000000000)"
      ],
      "transaction": {
        "from": "0x369abe773328a9aa2bb48b0d6f7d4bca58959eab",
        "to": "0x8487fd1b80da423aaf81b9eab9eafdd9473fdaba",
        "gas": "0xfa2f",
        "value": "0x0",
        "input": "0x682baa900000000000000000000000000000000000000000000000000000000000000001000000000000000000000000e1038c4a36fbe074a40422a7336b8c3a1f5c6db36c8df949574f3f1a3eee38b104f9b365dc50adcadefeecae2a8fc139cf6f358000000000000000000000000000000000000000000000000003782dace9d90000",
        "nonce": "0x95",
        "chainId": "0x5ec"
      },
      "additionalContracts": [],
      "isFixedGasLimit": false
    }
  ],
  "receipts": [
    {
      "status": "0x1",
      "cumulativeGasUsed": "0x477cb5",
      "logs": [
        {
          "address": "0x8487fd1b80da423aaf81b9eab9eafdd9473fdaba",
          "topics": [
            "0x8e8593a48f626f59b50ae7022bc900a089280e27a89c5d7c1a4ca9a4338b47d1",
            "0x6c8df949574f3f1a3eee38b104f9b365dc50adcadefeecae2a8fc139cf6f3580"
          ],
          "data": "0x0000000000000000000000000000000000000000000000000000000000000001000000000000000000000000e1038c4a36fbe074a40422a7336b8c3a1f5c6db36c8df949574f3f1a3eee38b104f9b365dc50adcadefeecae2a8fc139cf6f358000000000000000000000000000000000000000000000000003782dace9d90000",
          "blockHash": "0x5ff5867cef11464c4f0e1e08e92ddab7db42f68d5f63a52cabbdf927c614e5e4",
          "blockNumber": "0xb318a",
          "transactionHash": "0xa53ab1c5356a8abd9e68509e22754399232495a30405b07ff09d9e3e71cf4da2",
          "transactionIndex": "0x1a",
          "logIndex": "0x34",
          "removed": false
        }
      ],
      "logsBloom": "0x00000000000000000000000000000000000000000000000000000000000000000000000000000000000000000000000000000000000000000000000000000000000000000000000000000000000000000000000000080000100800000000000000000000000400000000000000000000000000000000000000000000000000000000000000004000000000000000000000000000000000010000100000000000000000000000000000000000000000002000000000000000000000000000000000000000000000008000000000000000000000000000000000000000000000000000000000000000000000000000000000000000000000000000000000000000",
      "type": "0x2",
      "transactionHash": "0xa53ab1c5356a8abd9e68509e22754399232495a30405b07ff09d9e3e71cf4da2",
      "transactionIndex": "0x1a",
      "blockHash": "0x5ff5867cef11464c4f0e1e08e92ddab7db42f68d5f63a52cabbdf927c614e5e4",
      "blockNumber": "0xb318a",
      "gasUsed": "0xab11",
      "effectiveGasPrice": "0x3b9af55e5",
      "from": "0x369abe773328a9aa2bb48b0d6f7d4bca58959eab",
      "to": "0x8487fd1b80da423aaf81b9eab9eafdd9473fdaba",
      "contractAddress": null
    }
  ],
  "libraries": [],
  "pending": [],
  "returns": {},
  "timestamp": 1732241261,
  "chain": 1516,
  "commit": "906839e"
}