{
  "transactions": [
    {
      "hash": "0xbbba01c64590de42f1f3e2a2be242886fe62a1281c87c66ea05da4c1d35da772",
      "transactionType": "CALL",
      "contractName": null,
      "contractAddress": "0x8487fd1b80da423aaf81b9eab9eafdd9473fdaba",
      "function": "setDiscountDetails((bool,address,bytes32,uint256))",
      "arguments": [
        "(true, 0xcEA541B8A19cB1FaD0571A56563a11B6951c9E7A, 0xa182d9b992582728b9324d4d80c7730d0d13f329a09a9a478708611dec51dc88, 150000000000000000)"
      ],
      "transaction": {
        "from": "0x369abe773328a9aa2bb48b0d6f7d4bca58959eab",
        "to": "0x8487fd1b80da423aaf81b9eab9eafdd9473fdaba",
        "gas": "0x2bdc6",
        "value": "0x0",
        "input": "0x682baa900000000000000000000000000000000000000000000000000000000000000001000000000000000000000000cea541b8a19cb1fad0571a56563a11b6951c9e7aa182d9b992582728b9324d4d80c7730d0d13f329a09a9a478708611dec51dc880000000000000000000000000000000000000000000000000214e8348c4f0000",
        "nonce": "0xb1",
        "chainId": "0x5ec"
      },
      "additionalContracts": [],
      "isFixedGasLimit": false
    }
  ],
  "receipts": [
    {
      "status": "0x1",
      "cumulativeGasUsed": "0x4b518f",
      "logs": [
        {
          "address": "0x8487fd1b80da423aaf81b9eab9eafdd9473fdaba",
          "topics": [
            "0x8e8593a48f626f59b50ae7022bc900a089280e27a89c5d7c1a4ca9a4338b47d1",
            "0xa182d9b992582728b9324d4d80c7730d0d13f329a09a9a478708611dec51dc88"
          ],
          "data": "0x0000000000000000000000000000000000000000000000000000000000000001000000000000000000000000cea541b8a19cb1fad0571a56563a11b6951c9e7aa182d9b992582728b9324d4d80c7730d0d13f329a09a9a478708611dec51dc880000000000000000000000000000000000000000000000000214e8348c4f0000",
          "blockHash": "0xdeecb5bf3a25c4b54766a6fb517a257ce7f7ec2391776309e76df5a8b8c38504",
          "blockNumber": "0xfc61c",
          "transactionHash": "0xbbba01c64590de42f1f3e2a2be242886fe62a1281c87c66ea05da4c1d35da772",
          "transactionIndex": "0xc",
          "logIndex": "0x31",
          "removed": false
        }
      ],
      "logsBloom": "0x00040000000000000000000000000000000000000000000000000000000000000000000000000000000000000000000000000000000000000000000000000040000000000000000000000000000000000000000000000000100800000000000000000000000000000000000000000000000000000000000000000000000000000000000000004000000000000000000000000000000000010000000000000000000000000000000000000000000000002080000000000000000000000000000000000000000000008000000000000000000000000000000000000000000000000000000000000000000000000000000000000000000000000000000000000000",
      "type": "0x2",
      "transactionHash": "0xbbba01c64590de42f1f3e2a2be242886fe62a1281c87c66ea05da4c1d35da772",
      "transactionIndex": "0xc",
      "blockHash": "0xdeecb5bf3a25c4b54766a6fb517a257ce7f7ec2391776309e76df5a8b8c38504",
      "blockNumber": "0xfc61c",
      "gasUsed": "0x1dfd9",
      "effectiveGasPrice": "0xee6a46c6c9",
      "from": "0x369abe773328a9aa2bb48b0d6f7d4bca58959eab",
      "to": "0x8487fd1b80da423aaf81b9eab9eafdd9473fdaba",
      "contractAddress": null
    }
  ],
  "libraries": [],
  "pending": [],
  "returns": {},
  "timestamp": 1733316799,
  "chain": 1516,
  "commit": "906839e"
}