{
  "transactions": [
    {
      "hash": "0xa38800b515858879349024bc07c896e5eb4d3d18f50c77978c1c5651e6c0bffe",
      "transactionType": "CALL",
      "contractName": null,
      "contractAddress": "0x8487fd1b80da423aaf81b9eab9eafdd9473fdaba",
      "function": "setDiscountDetails((bool,address,bytes32,uint256))",
      "arguments": [
        "(true, 0x1c0B8714747D0496B2732DBB16c931159F17DCc6, 0xb8b6d1ee616aeee759528fbfe61a7b3ae8c198d9a05ffa5190c236c377bf9a67, 150000000000000000)"
      ],
      "transaction": {
        "from": "0x369abe773328a9aa2bb48b0d6f7d4bca58959eab",
        "to": "0x8487fd1b80da423aaf81b9eab9eafdd9473fdaba",
        "gas": "0xede5",
        "value": "0x0",
        "input": "0x682baa9000000000000000000000000000000000000000000000000000000000000000010000000000000000000000001c0b8714747d0496b2732dbb16c931159f17dcc6b8b6d1ee616aeee759528fbfe61a7b3ae8c198d9a05ffa5190c236c377bf9a670000000000000000000000000000000000000000000000000214e8348c4f0000",
        "nonce": "0x8c",
        "chainId": "0x5ec"
      },
      "additionalContracts": [],
      "isFixedGasLimit": false
    }
  ],
  "receipts": [
    {
      "status": "0x1",
      "cumulativeGasUsed": "0x47dd32",
      "logs": [
        {
          "address": "0x8487fd1b80da423aaf81b9eab9eafdd9473fdaba",
          "topics": [
            "0x8e8593a48f626f59b50ae7022bc900a089280e27a89c5d7c1a4ca9a4338b47d1",
            "0xb8b6d1ee616aeee759528fbfe61a7b3ae8c198d9a05ffa5190c236c377bf9a67"
          ],
          "data": "0x00000000000000000000000000000000000000000000000000000000000000010000000000000000000000001c0b8714747d0496b2732dbb16c931159f17dcc6b8b6d1ee616aeee759528fbfe61a7b3ae8c198d9a05ffa5190c236c377bf9a670000000000000000000000000000000000000000000000000214e8348c4f0000",
          "blockHash": "0x31fe0d1a5cba0227763427152b47f5258f2894a607ef987c5410c2fe1b972f6f",
          "blockNumber": "0xb2cd3",
          "transactionHash": "0xa38800b515858879349024bc07c896e5eb4d3d18f50c77978c1c5651e6c0bffe",
          "transactionIndex": "0x11",
          "logIndex": "0x41",
          "removed": false
        }
      ],
      "logsBloom": "0x00000000000000000000000000000000000000000000000000000000000000000000002000000000000000000000000000000000000000000000000000000000000000000000000000000000000000000000000000000000100800000000000000000000000000000000000000000000000000000000000000000000000000000000000000004000000100000000000000000000000000010000000000000000000001000000000000000000000000002000000000000000000000000000000000000000000000008000000000000000000000000000000000000000000000000000000000000000000000000000000000000000000000000000000000000000",
      "type": "0x2",
      "transactionHash": "0xa38800b515858879349024bc07c896e5eb4d3d18f50c77978c1c5651e6c0bffe",
      "transactionIndex": "0x11",
      "blockHash": "0x31fe0d1a5cba0227763427152b47f5258f2894a607ef987c5410c2fe1b972f6f",
      "blockNumber": "0xb2cd3",
      "gasUsed": "0xa2aa",
      "effectiveGasPrice": "0x59682f0a",
      "from": "0x369abe773328a9aa2bb48b0d6f7d4bca58959eab",
      "to": "0x8487fd1b80da423aaf81b9eab9eafdd9473fdaba",
      "contractAddress": null
    }
  ],
  "libraries": [],
  "pending": [],
  "returns": {},
  "timestamp": 1732236932,
  "chain": 1516,
  "commit": "906839e"
}