{
  "transactions": [
    {
      "hash": "0x37fad37a9a9906acfa659e15d0730d6214855678f7324daf838d1dce557aa0c4",
      "transactionType": "CALL",
      "contractName": null,
      "contractAddress": "0x8487fd1b80da423aaf81b9eab9eafdd9473fdaba",
      "function": "setDiscountDetails((bool,address,bytes32,uint256))",
      "arguments": [
        "(true, 0xD2cc4EF4B3a499B9c2d867f5b41c4535424a021A, 0x99a6a8a517d69aa0b9ae7e966b229ffd8370f13e87d266a274744672325a08ec, 150000000000000000)"
      ],
      "transaction": {
        "from": "0x369abe773328a9aa2bb48b0d6f7d4bca58959eab",
        "to": "0x8487fd1b80da423aaf81b9eab9eafdd9473fdaba",
        "gas": "0x536fe",
        "value": "0x0",
        "input": "0x682baa900000000000000000000000000000000000000000000000000000000000000001000000000000000000000000d2cc4ef4b3a499b9c2d867f5b41c4535424a021a99a6a8a517d69aa0b9ae7e966b229ffd8370f13e87d266a274744672325a08ec0000000000000000000000000000000000000000000000000214e8348c4f0000",
        "nonce": "0xb3",
        "chainId": "0x5ec"
      },
      "additionalContracts": [],
      "isFixedGasLimit": false
    }
  ],
  "receipts": [
    {
      "status": "0x1",
      "cumulativeGasUsed": "0x4fc4bd",
      "logs": [
        {
          "address": "0x8487fd1b80da423aaf81b9eab9eafdd9473fdaba",
          "topics": [
            "0x8e8593a48f626f59b50ae7022bc900a089280e27a89c5d7c1a4ca9a4338b47d1",
            "0x99a6a8a517d69aa0b9ae7e966b229ffd8370f13e87d266a274744672325a08ec"
          ],
          "data": "0x0000000000000000000000000000000000000000000000000000000000000001000000000000000000000000d2cc4ef4b3a499b9c2d867f5b41c4535424a021a99a6a8a517d69aa0b9ae7e966b229ffd8370f13e87d266a274744672325a08ec0000000000000000000000000000000000000000000000000214e8348c4f0000",
          "blockHash": "0x518a121314584104b124c1e9f1e3046f454903ee60fe183d7dcbf3369b403d10",
          "blockNumber": "0x151ce9",
          "transactionHash": "0x37fad37a9a9906acfa659e15d0730d6214855678f7324daf838d1dce557aa0c4",
          "transactionIndex": "0x20",
          "logIndex": "0x5b",
          "removed": false
        }
      ],
      "logsBloom": "0x00000000000000000000000000000000000000004000000000000000000000000000000000000000000000000000000000000000000000000000000000000000000000000000000000000000000000000000000000000000100800000000000000000000000000000000000000000000000020000000000000000000000000000000000000004000000000000000000000000000000000010000000000000000000000000000000000000000000000002000000000000000000000000000000000000000000000008040000000000000000000000000000000000000000000000000000000000000000000000000000000000000000000000000000000000000",
      "type": "0x2",
      "transactionHash": "0x37fad37a9a9906acfa659e15d0730d6214855678f7324daf838d1dce557aa0c4",
      "transactionIndex": "0x20",
      "blockHash": "0x518a121314584104b124c1e9f1e3046f454903ee60fe183d7dcbf3369b403d10",
      "blockNumber": "0x151ce9",
      "gasUsed": "0x390d1",
      "effectiveGasPrice": "0x4edd860f7",
      "from": "0x369abe773328a9aa2bb48b0d6f7d4bca58959eab",
      "to": "0x8487fd1b80da423aaf81b9eab9eafdd9473fdaba",
      "contractAddress": null
    }
  ],
  "libraries": [],
  "pending": [],
  "returns": {},
  "timestamp": 1734612079,
  "chain": 1516,
  "commit": "906839e"
}