{
  "transactions": [
    {
      "hash": "0x69968c90bb042e69e85b8045d48fbd9ec310fde8797d3e453d3c58f7e6605e35",
      "transactionType": "CALL",
      "contractName": null,
      "contractAddress": "0x8487fd1b80da423aaf81b9eab9eafdd9473fdaba",
      "function": "setDiscountDetails((bool,address,bytes32,uint256))",
      "arguments": [
        "(true, 0xe1038c4a36Fbe074A40422a7336B8c3A1f5c6db3, 0x6c8df949574f3f1a3eee38b104f9b365dc50adcadefeecae2a8fc139cf6f3580, 150000000000000000)"
      ],
      "transaction": {
        "from": "0x369abe773328a9aa2bb48b0d6f7d4bca58959eab",
        "to": "0x8487fd1b80da423aaf81b9eab9eafdd9473fdaba",
        "gas": "0x2b17c",
        "value": "0x0",
        "input": "0x682baa900000000000000000000000000000000000000000000000000000000000000001000000000000000000000000e1038c4a36fbe074a40422a7336b8c3a1f5c6db36c8df949574f3f1a3eee38b104f9b365dc50adcadefeecae2a8fc139cf6f35800000000000000000000000000000000000000000000000000214e8348c4f0000",
        "nonce": "0x94",
        "chainId": "0x5ec"
      },
      "additionalContracts": [],
      "isFixedGasLimit": false
    }
  ],
  "receipts": [
    {
      "status": "0x1",
      "cumulativeGasUsed": "0x418145",
      "logs": [
        {
          "address": "0x8487fd1b80da423aaf81b9eab9eafdd9473fdaba",
          "topics": [
            "0x8e8593a48f626f59b50ae7022bc900a089280e27a89c5d7c1a4ca9a4338b47d1",
            "0x6c8df949574f3f1a3eee38b104f9b365dc50adcadefeecae2a8fc139cf6f3580"
          ],
          "data": "0x0000000000000000000000000000000000000000000000000000000000000001000000000000000000000000e1038c4a36fbe074a40422a7336b8c3a1f5c6db36c8df949574f3f1a3eee38b104f9b365dc50adcadefeecae2a8fc139cf6f35800000000000000000000000000000000000000000000000000214e8348c4f0000",
          "blockHash": "0x3a8225e454e695cac44fc346f5ba22eaf2e94135719ea390267427c3e64f639e",
          "blockNumber": "0xb3177",
          "transactionHash": "0x69968c90bb042e69e85b8045d48fbd9ec310fde8797d3e453d3c58f7e6605e35",
          "transactionIndex": "0x1b",
          "logIndex": "0x37",
          "removed": false
        }
      ],
      "logsBloom": "0x00000000000000000000000000000000000000000000000000000000000000000000000000000000000000000000000000000000000000000000000000000000000000000000000000000000000000000000000000080000100800000000000000000000000400000000000000000000000000000000000000000000000000000000000000004000000000000000000000000000000000010000100000000000000000000000000000000000000000002000000000000000000000000000000000000000000000008000000000000000000000000000000000000000000000000000000000000000000000000000000000000000000000000000000000000000",
      "type": "0x2",
      "transactionHash": "0x69968c90bb042e69e85b8045d48fbd9ec310fde8797d3e453d3c58f7e6605e35",
      "transactionIndex": "0x1b",
      "blockHash": "0x3a8225e454e695cac44fc346f5ba22eaf2e94135719ea390267427c3e64f639e",
      "blockNumber": "0xb3177",
      "gasUsed": "0x1d772",
      "effectiveGasPrice": "0x3b9af55e6",
      "from": "0x369abe773328a9aa2bb48b0d6f7d4bca58959eab",
      "to": "0x8487fd1b80da423aaf81b9eab9eafdd9473fdaba",
      "contractAddress": null
    }
  ],
  "libraries": [],
  "pending": [],
  "returns": {},
  "timestamp": 1732241191,
  "chain": 1516,
  "commit": "906839e"
}