{
  "transactions": [
    {
      "hash": "0x12d3b8fac09c202ea7bfc375bfb5b8a53a95283a2aa1ddbc7d300e70afc242a5",
      "transactionType": "CALL",
      "contractName": null,
      "contractAddress": "0xfa984b1ead86bb37a1696fbaee68e043e6cd4dd7",
      "function": "createComposableERC721(string,string,string,address)",
      "arguments": [
        "MyComposableNFT",
        "MCNFT",
        "https://example.com/metadata.json",
        "0x1804c8AB1F12E6bbf3894d4083f33e07309d1f38"
      ],
      "transaction": {
        "from": "0x306563d12a1ee361280884d8cf68b14c0d34908b",
        "to": "0xfa984b1ead86bb37a1696fbaee68e043e6cd4dd7",
        "gas": "0x83529",
        "value": "0x0",
        "input": "0xf1719cbc000000000000000000000000000000000000000000000000000000000000008000000000000000000000000000000000000000000000000000000000000000c000000000000000000000000000000000000000000000000000000000000001000000000000000000000000001804c8ab1f12e6bbf3894d4083f33e07309d1f38000000000000000000000000000000000000000000000000000000000000000f4d79436f6d706f7361626c654e4654000000000000000000000000000000000000000000000000000000000000000000000000000000000000000000000000054d434e4654000000000000000000000000000000000000000000000000000000000000000000000000000000000000000000000000000000000000000000002168747470733a2f2f6578616d706c652e636f6d2f6d657461646174612e6a736f6e00000000000000000000000000000000000000000000000000000000000000",
        "nonce": "0x36",
        "chainId": "0x5e9"
      },
      "additionalContracts": [],
      "isFixedGasLimit": false
    }
  ],
  "receipts": [
    {
      "status": "0x1",
      "cumulativeGasUsed": "0x132b34",
      "logs": [
        {
          "address": "0x334141a3045e325e723ee176bcc6e0b401551e9f",
          "topics": [
            "0x1cf3b03a6cf19fa2baba4df148e9dcabedea7f8a5c07840e207e5c089be95d3e",
            "0x00000000000000000000000021bb4b5f74595c626016fe336359ea7aa16aadcb"
          ],
          "data": "0x",
          "blockHash": "0xcd65346c61e26d2c39d88e6753b53575417de556ffef6d22067c90de277bc5d7",
          "blockNumber": "0x2016d4",
          "transactionHash": "0x12d3b8fac09c202ea7bfc375bfb5b8a53a95283a2aa1ddbc7d300e70afc242a5",
          "transactionIndex": "0x9",
          "logIndex": "0x17",
          "removed": false
        },
        {
          "address": "0x334141a3045e325e723ee176bcc6e0b401551e9f",
          "topics": [
            "0x8be0079c531659141344cd1fd0a4f28419497f9722a3daafe3b4186f6b6457e0",
            "0x0000000000000000000000000000000000000000000000000000000000000000",
            "0x0000000000000000000000001804c8ab1f12e6bbf3894d4083f33e07309d1f38"
          ],
          "data": "0x",
          "blockHash": "0xcd65346c61e26d2c39d88e6753b53575417de556ffef6d22067c90de277bc5d7",
          "blockNumber": "0x2016d4",
          "transactionHash": "0x12d3b8fac09c202ea7bfc375bfb5b8a53a95283a2aa1ddbc7d300e70afc242a5",
          "transactionIndex": "0x9",
          "logIndex": "0x18",
          "removed": false
        },
        {
          "address": "0x334141a3045e325e723ee176bcc6e0b401551e9f",
          "topics": [
            "0xc7f505b2f371ae2175ee4913f4499e1f2633a7b5936321eed1cdaeb6115181d2"
          ],
          "data": "0x0000000000000000000000000000000000000000000000000000000000000001",
          "blockHash": "0xcd65346c61e26d2c39d88e6753b53575417de556ffef6d22067c90de277bc5d7",
          "blockNumber": "0x2016d4",
          "transactionHash": "0x12d3b8fac09c202ea7bfc375bfb5b8a53a95283a2aa1ddbc7d300e70afc242a5",
          "transactionIndex": "0x9",
          "logIndex": "0x19",
          "removed": false
        },
        {
          "address": "0xfa984b1ead86bb37a1696fbaee68e043e6cd4dd7",
          "topics": [
            "0x1562385b34ba957a712e25aa4f76e4f1a3a386509afc91f1148ee49e24a2d7fe",
            "0x000000000000000000000000334141a3045e325e723ee176bcc6e0b401551e9f"
          ],
          "data": "0x000000000000000000000000000000000000000000000000000000000000006000000000000000000000000000000000000000000000000000000000000000a000000000000000000000000000000000000000000000000000000000000000e0000000000000000000000000000000000000000000000000000000000000000f4d79436f6d706f7361626c654e4654000000000000000000000000000000000000000000000000000000000000000000000000000000000000000000000000054d434e4654000000000000000000000000000000000000000000000000000000000000000000000000000000000000000000000000000000000000000000002168747470733a2f2f6578616d706c652e636f6d2f6d657461646174612e6a736f6e00000000000000000000000000000000000000000000000000000000000000",
          "blockHash": "0xcd65346c61e26d2c39d88e6753b53575417de556ffef6d22067c90de277bc5d7",
          "blockNumber": "0x2016d4",
          "transactionHash": "0x12d3b8fac09c202ea7bfc375bfb5b8a53a95283a2aa1ddbc7d300e70afc242a5",
          "transactionIndex": "0x9",
          "logIndex": "0x1a",
          "removed": false
        }
      ],
      "logsBloom": "0x00000000000000000000000000000000000000100400000000800000200000000000000000000000000000000000000000000000000000000000100000000004000000000000000000000000001000000001000000000000010000000000000000000000020000000001000000000800008202000000000000000000000000400000000000000000000904000000080000000000000080000000000000000000000400000000000000000000000000000000000000000000000000000000000000000000000004000000000001000000000000000004000000800200000020000000000000000000000000000000000000000000000000000000000002000000",
      "type": "0x2",
      "transactionHash": "0x12d3b8fac09c202ea7bfc375bfb5b8a53a95283a2aa1ddbc7d300e70afc242a5",
      "transactionIndex": "0x9",
      "blockHash": "0xcd65346c61e26d2c39d88e6753b53575417de556ffef6d22067c90de277bc5d7",
      "blockNumber": "0x2016d4",
      "gasUsed": "0x5f1b0",
      "effectiveGasPrice": "0x3c866bf10",
      "from": "0x306563d12a1ee361280884d8cf68b14c0d34908b",
      "to": "0xfa984b1ead86bb37a1696fbaee68e043e6cd4dd7",
      "contractAddress": null
    }
  ],
  "libraries": [],
  "pending": [],
  "returns": {},
  "timestamp": 1730988802,
  "chain": 1513,
  "commit": "ea0f85d"
}