{
  "transactions": [
    {
      "hash": "0x5b5e00819daadc72a51357fff2ce7f033a656505ccea17d69551fa5688b36e9e",
      "transactionType": "CALL",
      "contractName": null,
      "contractAddress": "0xc000baa66da9b9a97abcb4fa579fe4cd43db6e38",
      "function": "createComposableERC721(string,string,string,address)",
      "arguments": [
        "MyComposableNFT",
        "MCNFT",
        "https://example.com/metadata.json",
        "0x1804c8AB1F12E6bbf3894d4083f33e07309d1f38"
      ],
      "transaction": {
        "from": "0x369abe773328a9aa2bb48b0d6f7d4bca58959eab",
        "to": "0xc000baa66da9b9a97abcb4fa579fe4cd43db6e38",
        "gas": "0x83529",
        "value": "0x0",
        "input": "0xf1719cbc000000000000000000000000000000000000000000000000000000000000008000000000000000000000000000000000000000000000000000000000000000c000000000000000000000000000000000000000000000000000000000000001000000000000000000000000001804c8ab1f12e6bbf3894d4083f33e07309d1f38000000000000000000000000000000000000000000000000000000000000000f4d79436f6d706f7361626c654e4654000000000000000000000000000000000000000000000000000000000000000000000000000000000000000000000000054d434e4654000000000000000000000000000000000000000000000000000000000000000000000000000000000000000000000000000000000000000000002168747470733a2f2f6578616d706c652e636f6d2f6d657461646174612e6a736f6e00000000000000000000000000000000000000000000000000000000000000",
        "nonce": "0x62",
        "chainId": "0x5e9"
      },
      "additionalContracts": [],
      "isFixedGasLimit": false
    }
  ],
  "receipts": [
    {
      "status": "0x1",
      "cumulativeGasUsed": "0x2793b4",
      "logs": [
        {
          "address": "0xa320d8162ed1da553deba941df30d3b5708387cc",
          "topics": [
            "0x1cf3b03a6cf19fa2baba4df148e9dcabedea7f8a5c07840e207e5c089be95d3e",
            "0x0000000000000000000000005dacc479156ca7ec016972b2c61763b6e688e1b0"
          ],
          "data": "0x",
          "blockHash": "0x704bf0b837ff718aa3756f8e2593bf2ac327b911d0dbb070d799fe55c16c67e8",
          "blockNumber": "0x201d21",
          "transactionHash": "0x5b5e00819daadc72a51357fff2ce7f033a656505ccea17d69551fa5688b36e9e",
          "transactionIndex": "0x20",
          "logIndex": "0x2c",
          "removed": false
        },
        {
          "address": "0xa320d8162ed1da553deba941df30d3b5708387cc",
          "topics": [
            "0x8be0079c531659141344cd1fd0a4f28419497f9722a3daafe3b4186f6b6457e0",
            "0x0000000000000000000000000000000000000000000000000000000000000000",
            "0x0000000000000000000000001804c8ab1f12e6bbf3894d4083f33e07309d1f38"
          ],
          "data": "0x",
          "blockHash": "0x704bf0b837ff718aa3756f8e2593bf2ac327b911d0dbb070d799fe55c16c67e8",
          "blockNumber": "0x201d21",
          "transactionHash": "0x5b5e00819daadc72a51357fff2ce7f033a656505ccea17d69551fa5688b36e9e",
          "transactionIndex": "0x20",
          "logIndex": "0x2d",
          "removed": false
        },
        {
          "address": "0xa320d8162ed1da553deba941df30d3b5708387cc",
          "topics": [
            "0xc7f505b2f371ae2175ee4913f4499e1f2633a7b5936321eed1cdaeb6115181d2"
          ],
          "data": "0x0000000000000000000000000000000000000000000000000000000000000001",
          "blockHash": "0x704bf0b837ff718aa3756f8e2593bf2ac327b911d0dbb070d799fe55c16c67e8",
          "blockNumber": "0x201d21",
          "transactionHash": "0x5b5e00819daadc72a51357fff2ce7f033a656505ccea17d69551fa5688b36e9e",
          "transactionIndex": "0x20",
          "logIndex": "0x2e",
          "removed": false
        },
        {
          "address": "0xc000baa66da9b9a97abcb4fa579fe4cd43db6e38",
          "topics": [
            "0x1562385b34ba957a712e25aa4f76e4f1a3a386509afc91f1148ee49e24a2d7fe",
            "0x000000000000000000000000a320d8162ed1da553deba941df30d3b5708387cc"
          ],
          "data": "0x000000000000000000000000000000000000000000000000000000000000006000000000000000000000000000000000000000000000000000000000000000a000000000000000000000000000000000000000000000000000000000000000e0000000000000000000000000000000000000000000000000000000000000000f4d79436f6d706f7361626c654e4654000000000000000000000000000000000000000000000000000000000000000000000000000000000000000000000000054d434e4654000000000000000000000000000000000000000000000000000000000000000000000000000000000000000000000000000000000000000000002168747470733a2f2f6578616d706c652e636f6d2f6d657461646174612e6a736f6e00000000000000000000000000000000000000000000000000000000000000",
          "blockHash": "0x704bf0b837ff718aa3756f8e2593bf2ac327b911d0dbb070d799fe55c16c67e8",
          "blockNumber": "0x201d21",
          "transactionHash": "0x5b5e00819daadc72a51357fff2ce7f033a656505ccea17d69551fa5688b36e9e",
          "transactionIndex": "0x20",
          "logIndex": "0x2f",
          "removed": false
        }
      ],
      "logsBloom": "0x00000000000000000000000000000000000000000000000000800000000000000000000000000000000200000000000000000000000000000000000000000000080000000000000000000000001000000001000000000000000000000000000000000004020000000001800200000800000000000000000000000004004000400000000000000000000804000000080000000000000080000000000000000000000000000000000000000000000000000000000000000000000000000000000000400040000004800000000001000000000000000004000000800220000020000000000000000000000000000000001000000000000000000000000002000000",
      "type": "0x2",
      "transactionHash": "0x5b5e00819daadc72a51357fff2ce7f033a656505ccea17d69551fa5688b36e9e",
      "transactionIndex": "0x20",
      "blockHash": "0x704bf0b837ff718aa3756f8e2593bf2ac327b911d0dbb070d799fe55c16c67e8",
      "blockNumber": "0x201d21",
      "gasUsed": "0x5f1b0",
      "effectiveGasPrice": "0x3c866bf10",
      "from": "0x369abe773328a9aa2bb48b0d6f7d4bca58959eab",
      "to": "0xc000baa66da9b9a97abcb4fa579fe4cd43db6e38",
      "contractAddress": null
    }
  ],
  "libraries": [],
  "pending": [],
  "returns": {},
  "timestamp": 1730993479,
  "chain": 1513,
  "commit": "ea0f85d"
}