{
  "transactions": [
    {
      "hash": "0x3b61e041391ba31b924a2555aed8ec3e40ef3823376904c44b510c10ddd02d34",
      "transactionType": "CALL",
      "contractName": null,
      "contractAddress": "0xd8ac44e71cf3a8d5d2c8bbc223d846b5ab3bee3a",
      "function": "register((string,address,uint256,address,bytes[],bool))",
      "arguments": [
        "(hello, 0x369Abe773328A9Aa2bb48B0D6F7D4bca58959EAb, 31536000, 0x770B8b351883F2ac1D621cADB07Fe2cc265DdcD9, [0xd5fa2b00e007e1c164980b573b5ddeca566a66482e705a7f2f153577dc8a0b9a952a89ae000000000000000000000000369abe773328a9aa2bb48b0d6f7d4bca58959eab, 0x10f13a8ce007e1c164980b573b5ddeca566a66482e705a7f2f153577dc8a0b9a952a89ae000000000000000000000000000000000000000000000000000000000000006000000000000000000000000000000000000000000000000000000000000000a0000000000000000000000000000000000000000000000000000000000000000362696f0000000000000000000000000000000000000000000000000000000000000000000000000000000000000000000000000000000000000000000000000768656c6c79616100000000000000000000000000000000000000000000000000], true)"
      ],
      "transaction": {
        "from": "0x369abe773328a9aa2bb48b0d6f7d4bca58959eab",
        "to": "0xd8ac44e71cf3a8d5d2c8bbc223d846b5ab3bee3a",
        "gas": "0x78d18",
        "value": "0x470599db867d80",
        "input": "0xc7c79676000000000000000000000000000000000000000000000000000000000000002000000000000000000000000000000000000000000000000000000000000000c0000000000000000000000000369abe773328a9aa2bb48b0d6f7d4bca58959eab0000000000000000000000000000000000000000000000000000000001e13380000000000000000000000000770b8b351883f2ac1d621cadb07fe2cc265ddcd900000000000000000000000000000000000000000000000000000000000001000000000000000000000000000000000000000000000000000000000000000001000000000000000000000000000000000000000000000000000000000000000568656c6c6f0000000000000000000000000000000000000000000000000000000000000000000000000000000000000000000000000000000000000000000002000000000000000000000000000000000000000000000000000000000000004000000000000000000000000000000000000000000000000000000000000000c00000000000000000000000000000000000000000000000000000000000000044d5fa2b00e007e1c164980b573b5ddeca566a66482e705a7f2f153577dc8a0b9a952a89ae000000000000000000000000369abe773328a9aa2bb48b0d6f7d4bca58959eab0000000000000000000000000000000000000000000000000000000000000000000000000000000000000000000000000000000000000000000000e410f13a8ce007e1c164980b573b5ddeca566a66482e705a7f2f153577dc8a0b9a952a89ae000000000000000000000000000000000000000000000000000000000000006000000000000000000000000000000000000000000000000000000000000000a0000000000000000000000000000000000000000000000000000000000000000362696f0000000000000000000000000000000000000000000000000000000000000000000000000000000000000000000000000000000000000000000000000768656c6c7961610000000000000000000000000000000000000000000000000000000000000000000000000000000000000000000000000000000000",
        "nonce": "0x0",
        "chainId": "0x5e9"
      },
      "additionalContracts": [],
      "isFixedGasLimit": false
    }
  ],
  "receipts": [
    {
      "status": "0x1",
      "cumulativeGasUsed": "0x1f3d63",
      "logs": [
        {
          "address": "0xd8ac44e71cf3a8d5d2c8bbc223d846b5ab3bee3a",
          "topics": [
            "0xbc769889246686134856b409155bb87630ea5797a705fa98b61f576d316aab9b",
            "0x000000000000000000000000369abe773328a9aa2bb48b0d6f7d4bca58959eab"
          ],
          "data": "0x00000000000000000000000000000000000000000000000000237ea76bc57d80",
          "blockHash": "0x47135c15b010048a61789c9e0cc12adb3e42b27776bceed1216e609d9993817d",
          "blockNumber": "0xb6295",
          "transactionHash": "0x3b61e041391ba31b924a2555aed8ec3e40ef3823376904c44b510c10ddd02d34",
          "transactionIndex": "0x2c",
          "logIndex": "0x33",
          "removed": false
        },
        {
          "address": "0xf008a94bc7c1e5fd9caa04e0b1e80fc8d534c57a",
          "topics": [
            "0xddf252ad1be2c89b69c2b068fc378daa952ba7f163c4a11628f55a4df523b3ef",
            "0x0000000000000000000000000000000000000000000000000000000000000000",
            "0x000000000000000000000000369abe773328a9aa2bb48b0d6f7d4bca58959eab",
            "0x1c8aff950685c2ed4bc3174f3472287b56d9517b9c948127319a09a7a36deac8"
          ],
          "data": "0x",
          "blockHash": "0x47135c15b010048a61789c9e0cc12adb3e42b27776bceed1216e609d9993817d",
          "blockNumber": "0xb6295",
          "transactionHash": "0x3b61e041391ba31b924a2555aed8ec3e40ef3823376904c44b510c10ddd02d34",
          "transactionIndex": "0x2c",
          "logIndex": "0x34",
          "removed": false
        },
        {
          "address": "0x416db0484bc33666a4039a4d4f730e2376794a1b",
          "topics": [
            "0xce0457fe73731f824cc272376169235128c118b49d344817417c6d108d155e82",
            "0x98cdd1ddd8a5b13be5dc5f223f4a5838478104dfbe397f4e4c213f23f4dfc6f5",
            "0x1c8aff950685c2ed4bc3174f3472287b56d9517b9c948127319a09a7a36deac8"
          ],
          "data": "0x000000000000000000000000369abe773328a9aa2bb48b0d6f7d4bca58959eab",
          "blockHash": "0x47135c15b010048a61789c9e0cc12adb3e42b27776bceed1216e609d9993817d",
          "blockNumber": "0xb6295",
          "transactionHash": "0x3b61e041391ba31b924a2555aed8ec3e40ef3823376904c44b510c10ddd02d34",
          "transactionIndex": "0x2c",
          "logIndex": "0x35",
          "removed": false
        },
        {
          "address": "0x416db0484bc33666a4039a4d4f730e2376794a1b",
          "topics": [
            "0x335721b01866dc23fbee8b6b2c7b1e14d6f05c28cd35a2c934239f94095602a0",
            "0xe007e1c164980b573b5ddeca566a66482e705a7f2f153577dc8a0b9a952a89ae"
          ],
          "data": "0x000000000000000000000000770b8b351883f2ac1d621cadb07fe2cc265ddcd9",
          "blockHash": "0x47135c15b010048a61789c9e0cc12adb3e42b27776bceed1216e609d9993817d",
          "blockNumber": "0xb6295",
          "transactionHash": "0x3b61e041391ba31b924a2555aed8ec3e40ef3823376904c44b510c10ddd02d34",
          "transactionIndex": "0x2c",
          "logIndex": "0x36",
          "removed": false
        },
        {
          "address": "0xf008a94bc7c1e5fd9caa04e0b1e80fc8d534c57a",
          "topics": [
            "0xfd724d251af149ea2929b9061ddab2bb31e2d87778cc0acfa1d68add62e222e8",
            "0x1c8aff950685c2ed4bc3174f3472287b56d9517b9c948127319a09a7a36deac8",
            "0x000000000000000000000000369abe773328a9aa2bb48b0d6f7d4bca58959eab"
          ],
          "data": "0x0000000000000000000000000000000000000000000000000000000068d014d3000000000000000000000000770b8b351883f2ac1d621cadb07fe2cc265ddcd90000000000000000000000000000000000000000000000000000000000000000",
          "blockHash": "0x47135c15b010048a61789c9e0cc12adb3e42b27776bceed1216e609d9993817d",
          "blockNumber": "0xb6295",
          "transactionHash": "0x3b61e041391ba31b924a2555aed8ec3e40ef3823376904c44b510c10ddd02d34",
          "transactionIndex": "0x2c",
          "logIndex": "0x37",
          "removed": false
        },
        {
          "address": "0x770b8b351883f2ac1d621cadb07fe2cc265ddcd9",
          "topics": [
            "0x65412581168e88a1e60c6459d7f44ae83ad0832e670826c05a4e2476b57af752",
            "0xe007e1c164980b573b5ddeca566a66482e705a7f2f153577dc8a0b9a952a89ae"
          ],
          "data": "0x000000000000000000000000000000000000000000000000000000000000003c00000000000000000000000000000000000000000000000000000000000000400000000000000000000000000000000000000000000000000000000000000014369abe773328a9aa2bb48b0d6f7d4bca58959eab000000000000000000000000",
          "blockHash": "0x47135c15b010048a61789c9e0cc12adb3e42b27776bceed1216e609d9993817d",
          "blockNumber": "0xb6295",
          "transactionHash": "0x3b61e041391ba31b924a2555aed8ec3e40ef3823376904c44b510c10ddd02d34",
          "transactionIndex": "0x2c",
          "logIndex": "0x38",
          "removed": false
        },
        {
          "address": "0x770b8b351883f2ac1d621cadb07fe2cc265ddcd9",
          "topics": [
            "0x52d7d861f09ab3d26239d492e8968629f95e9e318cf0b73bfddc441522a15fd2",
            "0xe007e1c164980b573b5ddeca566a66482e705a7f2f153577dc8a0b9a952a89ae"
          ],
          "data": "0x000000000000000000000000369abe773328a9aa2bb48b0d6f7d4bca58959eab",
          "blockHash": "0x47135c15b010048a61789c9e0cc12adb3e42b27776bceed1216e609d9993817d",
          "blockNumber": "0xb6295",
          "transactionHash": "0x3b61e041391ba31b924a2555aed8ec3e40ef3823376904c44b510c10ddd02d34",
          "transactionIndex": "0x2c",
          "logIndex": "0x39",
          "removed": false
        },
        {
          "address": "0x770b8b351883f2ac1d621cadb07fe2cc265ddcd9",
          "topics": [
            "0x448bc014f1536726cf8d54ff3d6481ed3cbc683c2591ca204274009afa09b1a1",
            "0xe007e1c164980b573b5ddeca566a66482e705a7f2f153577dc8a0b9a952a89ae",
            "0xfef9717ee20b36505960cbd060d252726b978a1682471b1eb57953df3fd158f1"
          ],
          "data": "0x00000000000000000000000000000000000000000000000000000000000000400000000000000000000000000000000000000000000000000000000000000080000000000000000000000000000000000000000000000000000000000000000362696f0000000000000000000000000000000000000000000000000000000000000000000000000000000000000000000000000000000000000000000000000768656c6c79616100000000000000000000000000000000000000000000000000",
          "blockHash": "0x47135c15b010048a61789c9e0cc12adb3e42b27776bceed1216e609d9993817d",
          "blockNumber": "0xb6295",
          "transactionHash": "0x3b61e041391ba31b924a2555aed8ec3e40ef3823376904c44b510c10ddd02d34",
          "transactionIndex": "0x2c",
          "logIndex": "0x3a",
          "removed": false
        },
        {
          "address": "0x62f389864335730ccbccf75d109e992370f12dbc",
          "topics": [
            "0x94a5ce4d9c1b6f48709de92cd4f882a72e6c496245ed1f72edbfcce4a46f0b37",
            "0x000000000000000000000000369abe773328a9aa2bb48b0d6f7d4bca58959eab",
            "0xd014be17162510fdd4629c2fc420f9d40e9168fec8fa1f6b0538cc0f7bf8daaa"
          ],
          "data": "0x",
          "blockHash": "0x47135c15b010048a61789c9e0cc12adb3e42b27776bceed1216e609d9993817d",
          "blockNumber": "0xb6295",
          "transactionHash": "0x3b61e041391ba31b924a2555aed8ec3e40ef3823376904c44b510c10ddd02d34",
          "transactionIndex": "0x2c",
          "logIndex": "0x3b",
          "removed": false
        },
        {
          "address": "0x416db0484bc33666a4039a4d4f730e2376794a1b",
          "topics": [
            "0xce0457fe73731f824cc272376169235128c118b49d344817417c6d108d155e82",
            "0xdc8e7cc9e68a59320d3030b7501cb861162ad34fdc33ea3131c5470b8fe0ab4e",
            "0x169a3737f409d094f7362a4e38e9253078814a84dd1bcf24e13bdb9a517edeec"
          ],
          "data": "0x000000000000000000000000369abe773328a9aa2bb48b0d6f7d4bca58959eab",
          "blockHash": "0x47135c15b010048a61789c9e0cc12adb3e42b27776bceed1216e609d9993817d",
          "blockNumber": "0xb6295",
          "transactionHash": "0x3b61e041391ba31b924a2555aed8ec3e40ef3823376904c44b510c10ddd02d34",
          "transactionIndex": "0x2c",
          "logIndex": "0x3c",
          "removed": false
        },
        {
          "address": "0x416db0484bc33666a4039a4d4f730e2376794a1b",
          "topics": [
            "0x335721b01866dc23fbee8b6b2c7b1e14d6f05c28cd35a2c934239f94095602a0",
            "0xd014be17162510fdd4629c2fc420f9d40e9168fec8fa1f6b0538cc0f7bf8daaa"
          ],
          "data": "0x000000000000000000000000770b8b351883f2ac1d621cadb07fe2cc265ddcd9",
          "blockHash": "0x47135c15b010048a61789c9e0cc12adb3e42b27776bceed1216e609d9993817d",
          "blockNumber": "0xb6295",
          "transactionHash": "0x3b61e041391ba31b924a2555aed8ec3e40ef3823376904c44b510c10ddd02d34",
          "transactionIndex": "0x2c",
          "logIndex": "0x3d",
          "removed": false
        },
        {
          "address": "0x770b8b351883f2ac1d621cadb07fe2cc265ddcd9",
          "topics": [
            "0xb7d29e911041e8d9b843369e890bcb72c9388692ba48b65ac54e7214c4c348f7",
            "0xd014be17162510fdd4629c2fc420f9d40e9168fec8fa1f6b0538cc0f7bf8daaa"
          ],
          "data": "0x0000000000000000000000000000000000000000000000000000000000000020000000000000000000000000000000000000000000000000000000000000000868656c6c6f2e6970000000000000000000000000000000000000000000000000",
          "blockHash": "0x47135c15b010048a61789c9e0cc12adb3e42b27776bceed1216e609d9993817d",
          "blockNumber": "0xb6295",
          "transactionHash": "0x3b61e041391ba31b924a2555aed8ec3e40ef3823376904c44b510c10ddd02d34",
          "transactionIndex": "0x2c",
          "logIndex": "0x3e",
          "removed": false
        },
        {
          "address": "0xd8ac44e71cf3a8d5d2c8bbc223d846b5ab3bee3a",
          "topics": [
            "0x0667086d08417333ce63f40d5bc2ef6fd330e25aaaf317b7c489541f8fe600fa",
            "0x1c8aff950685c2ed4bc3174f3472287b56d9517b9c948127319a09a7a36deac8",
            "0x000000000000000000000000369abe773328a9aa2bb48b0d6f7d4bca58959eab"
          ],
          "data": "0x00000000000000000000000000000000000000000000000000000000000000400000000000000000000000000000000000000000000000000000000068d014d3000000000000000000000000000000000000000000000000000000000000000568656c6c6f000000000000000000000000000000000000000000000000000000",
          "blockHash": "0x47135c15b010048a61789c9e0cc12adb3e42b27776bceed1216e609d9993817d",
          "blockNumber": "0xb6295",
          "transactionHash": "0x3b61e041391ba31b924a2555aed8ec3e40ef3823376904c44b510c10ddd02d34",
          "transactionIndex": "0x2c",
          "logIndex": "0x3f",
          "removed": false
        }
      ],
      "logsBloom": "0x00000000000000000000000000000100000002000000080001000000101000000000000000000000000400000000100200000000884010000000000000038002000002000000000048000008000800100000000004100000000100200006000000400020020000000000801020400800000000000000000000000010081000080000000000000004000000000000020000000100000000010030000008000000000000100202000008000240040000000004400040000000800040040000000000000002100000008000000000004080000000001000000000000000000020000008000000000000000002000000001004000000000000000080000000000100",
      "type": "0x2",
      "transactionHash": "0x3b61e041391ba31b924a2555aed8ec3e40ef3823376904c44b510c10ddd02d34",
      "transactionIndex": "0x2c",
      "blockHash": "0x47135c15b010048a61789c9e0cc12adb3e42b27776bceed1216e609d9993817d",
      "blockNumber": "0xb6295",
      "gasUsed": "0x57787",
      "effectiveGasPrice": "0x3b9aca009",
      "from": "0x369abe773328a9aa2bb48b0d6f7d4bca58959eab",
      "to": "0xd8ac44e71cf3a8d5d2c8bbc223d846b5ab3bee3a",
      "contractAddress": null
    }
  ],
  "libraries": [],
  "pending": [],
  "returns": {},
  "timestamp": 1726931290,
  "chain": 1513,
  "commit": "c8daec4"
}